{
	"Year1Term3/INFO6001/Assignment2/trafficDataSharing/entityManager.sol": {
		"EntityManager": {
			"abi": [
				{
					"anonymous": false,
					"inputs": [
						{
							"indexed": true,
							"internalType": "address",
							"name": "entityAddress",
							"type": "address"
						},
						{
							"indexed": false,
							"internalType": "string",
							"name": "name",
							"type": "string"
						},
						{
							"indexed": false,
							"internalType": "string",
							"name": "entityType",
							"type": "string"
						}
					],
					"name": "EntityRegistered",
					"type": "event"
				},
				{
					"inputs": [],
					"name": "getAllEntities",
					"outputs": [
						{
							"internalType": "address[]",
							"name": "",
							"type": "address[]"
						}
					],
					"stateMutability": "view",
					"type": "function"
				},
				{
					"inputs": [
						{
							"internalType": "address",
							"name": "_user",
							"type": "address"
						}
					],
					"name": "getEntity",
					"outputs": [
						{
							"internalType": "string",
							"name": "",
							"type": "string"
						},
						{
							"internalType": "string",
							"name": "",
							"type": "string"
						},
						{
							"internalType": "address",
							"name": "",
							"type": "address"
						},
						{
							"internalType": "bool",
							"name": "",
							"type": "bool"
						}
					],
					"stateMutability": "view",
					"type": "function"
				},
				{
					"inputs": [
						{
							"internalType": "address",
							"name": "_user",
							"type": "address"
						}
					],
					"name": "isRegistered",
					"outputs": [
						{
							"internalType": "bool",
							"name": "",
							"type": "bool"
						}
					],
					"stateMutability": "view",
					"type": "function"
				},
				{
					"inputs": [
						{
							"internalType": "string",
							"name": "_name",
							"type": "string"
						},
						{
							"internalType": "string",
							"name": "_entityType",
							"type": "string"
						}
					],
					"name": "registerEntity",
					"outputs": [],
					"stateMutability": "nonpayable",
					"type": "function"
				}
			],
			"devdoc": {
				"kind": "dev",
				"methods": {},
				"version": 1
			},
			"evm": {
				"assembly": "    /* \"Year1Term3/INFO6001/Assignment2/trafficDataSharing/entityManager.sol\":127:2016  contract EntityManager {... */\n  mstore(0x40, 0x80)\n  callvalue\n  dup1\n  iszero\n  tag_1\n  jumpi\n  revert(0x00, 0x00)\ntag_1:\n  pop\n  dataSize(sub_0)\n  dup1\n  dataOffset(sub_0)\n  0x00\n  codecopy\n  0x00\n  return\nstop\n\nsub_0: assembly {\n        /* \"Year1Term3/INFO6001/Assignment2/trafficDataSharing/entityManager.sol\":127:2016  contract EntityManager {... */\n      mstore(0x40, 0x80)\n      callvalue\n      dup1\n      iszero\n      tag_1\n      jumpi\n      revert(0x00, 0x00)\n    tag_1:\n      pop\n      jumpi(tag_2, lt(calldatasize, 0x04))\n      shr(0xe0, calldataload(0x00))\n      dup1\n      0x2ff19780\n      eq\n      tag_3\n      jumpi\n      dup1\n      0x75894e8c\n      eq\n      tag_4\n      jumpi\n      dup1\n      0x7e69dae0\n      eq\n      tag_5\n      jumpi\n      dup1\n      0xc3c5a547\n      eq\n      tag_6\n      jumpi\n    tag_2:\n      revert(0x00, 0x00)\n        /* \"Year1Term3/INFO6001/Assignment2/trafficDataSharing/entityManager.sol\":975:1366  function registerEntity(string memory _name, string memory _entityType) public notRegistered {... */\n    tag_3:\n      tag_7\n      0x04\n      dup1\n      calldatasize\n      sub\n      dup2\n      add\n      swap1\n      tag_8\n      swap2\n      swap1\n      tag_9\n      jump\t// in\n    tag_8:\n      tag_10\n      jump\t// in\n    tag_7:\n      stop\n        /* \"Year1Term3/INFO6001/Assignment2/trafficDataSharing/entityManager.sol\":1597:1845  function getEntity(address _user)... */\n    tag_4:\n      tag_11\n      0x04\n      dup1\n      calldatasize\n      sub\n      dup2\n      add\n      swap1\n      tag_12\n      swap2\n      swap1\n      tag_13\n      jump\t// in\n    tag_12:\n      tag_14\n      jump\t// in\n    tag_11:\n      mload(0x40)\n      tag_15\n      swap5\n      swap4\n      swap3\n      swap2\n      swap1\n      tag_16\n      jump\t// in\n    tag_15:\n      mload(0x40)\n      dup1\n      swap2\n      sub\n      swap1\n      return\n        /* \"Year1Term3/INFO6001/Assignment2/trafficDataSharing/entityManager.sol\":1907:2014  function getAllEntities() public view returns (address[] memory) {... */\n    tag_5:\n      tag_17\n      tag_18\n      jump\t// in\n    tag_17:\n      mload(0x40)\n      tag_19\n      swap2\n      swap1\n      tag_20\n      jump\t// in\n    tag_19:\n      mload(0x40)\n      dup1\n      swap2\n      sub\n      swap1\n      return\n        /* \"Year1Term3/INFO6001/Assignment2/trafficDataSharing/entityManager.sol\":1427:1541  function isRegistered(address _user) public view returns (bool) {... */\n    tag_6:\n      tag_21\n      0x04\n      dup1\n      calldatasize\n      sub\n      dup2\n      add\n      swap1\n      tag_22\n      swap2\n      swap1\n      tag_13\n      jump\t// in\n    tag_22:\n      tag_23\n      jump\t// in\n    tag_21:\n      mload(0x40)\n      tag_24\n      swap2\n      swap1\n      tag_25\n      jump\t// in\n    tag_24:\n      mload(0x40)\n      dup1\n      swap2\n      sub\n      swap1\n      return\n        /* \"Year1Term3/INFO6001/Assignment2/trafficDataSharing/entityManager.sol\":975:1366  function registerEntity(string memory _name, string memory _entityType) public notRegistered {... */\n    tag_10:\n        /* \"Year1Term3/INFO6001/Assignment2/trafficDataSharing/entityManager.sol\":753:761  entities */\n      0x00\n        /* \"Year1Term3/INFO6001/Assignment2/trafficDataSharing/entityManager.sol\":753:773  entities[msg.sender] */\n      0x00\n        /* \"Year1Term3/INFO6001/Assignment2/trafficDataSharing/entityManager.sol\":762:772  msg.sender */\n      caller\n        /* \"Year1Term3/INFO6001/Assignment2/trafficDataSharing/entityManager.sol\":753:773  entities[msg.sender] */\n      0xffffffffffffffffffffffffffffffffffffffff\n      and\n      0xffffffffffffffffffffffffffffffffffffffff\n      and\n      dup2\n      mstore\n      0x20\n      add\n      swap1\n      dup2\n      mstore\n      0x20\n      add\n      0x00\n      keccak256\n        /* \"Year1Term3/INFO6001/Assignment2/trafficDataSharing/entityManager.sol\":753:784  entities[msg.sender].registered */\n      0x02\n      add\n      0x14\n      swap1\n      sload\n      swap1\n      0x0100\n      exp\n      swap1\n      div\n      0xff\n      and\n        /* \"Year1Term3/INFO6001/Assignment2/trafficDataSharing/entityManager.sol\":752:784  !entities[msg.sender].registered */\n      iszero\n        /* \"Year1Term3/INFO6001/Assignment2/trafficDataSharing/entityManager.sol\":744:808  require(!entities[msg.sender].registered, \"Already registered.\") */\n      tag_27\n      jumpi\n      mload(0x40)\n      0x08c379a000000000000000000000000000000000000000000000000000000000\n      dup2\n      mstore\n      0x04\n      add\n      tag_28\n      swap1\n      tag_29\n      jump\t// in\n    tag_28:\n      mload(0x40)\n      dup1\n      swap2\n      sub\n      swap1\n      revert\n    tag_27:\n        /* \"Year1Term3/INFO6001/Assignment2/trafficDataSharing/entityManager.sol\":1101:1250  Entity({... */\n      mload(0x40)\n      dup1\n      0x80\n      add\n      0x40\n      mstore\n      dup1\n        /* \"Year1Term3/INFO6001/Assignment2/trafficDataSharing/entityManager.sol\":1128:1133  _name */\n      dup4\n        /* \"Year1Term3/INFO6001/Assignment2/trafficDataSharing/entityManager.sol\":1101:1250  Entity({... */\n      dup2\n      mstore\n      0x20\n      add\n        /* \"Year1Term3/INFO6001/Assignment2/trafficDataSharing/entityManager.sol\":1159:1170  _entityType */\n      dup3\n        /* \"Year1Term3/INFO6001/Assignment2/trafficDataSharing/entityManager.sol\":1101:1250  Entity({... */\n      dup2\n      mstore\n      0x20\n      add\n        /* \"Year1Term3/INFO6001/Assignment2/trafficDataSharing/entityManager.sol\":1199:1209  msg.sender */\n      caller\n        /* \"Year1Term3/INFO6001/Assignment2/trafficDataSharing/entityManager.sol\":1101:1250  Entity({... */\n      0xffffffffffffffffffffffffffffffffffffffff\n      and\n      dup2\n      mstore\n      0x20\n      add\n        /* \"Year1Term3/INFO6001/Assignment2/trafficDataSharing/entityManager.sol\":1235:1239  true */\n      0x01\n        /* \"Year1Term3/INFO6001/Assignment2/trafficDataSharing/entityManager.sol\":1101:1250  Entity({... */\n      iszero\n      iszero\n      dup2\n      mstore\n      pop\n        /* \"Year1Term3/INFO6001/Assignment2/trafficDataSharing/entityManager.sol\":1078:1086  entities */\n      0x00\n        /* \"Year1Term3/INFO6001/Assignment2/trafficDataSharing/entityManager.sol\":1078:1098  entities[msg.sender] */\n      0x00\n        /* \"Year1Term3/INFO6001/Assignment2/trafficDataSharing/entityManager.sol\":1087:1097  msg.sender */\n      caller\n        /* \"Year1Term3/INFO6001/Assignment2/trafficDataSharing/entityManager.sol\":1078:1098  entities[msg.sender] */\n      0xffffffffffffffffffffffffffffffffffffffff\n      and\n      0xffffffffffffffffffffffffffffffffffffffff\n      and\n      dup2\n      mstore\n      0x20\n      add\n      swap1\n      dup2\n      mstore\n      0x20\n      add\n      0x00\n      keccak256\n        /* \"Year1Term3/INFO6001/Assignment2/trafficDataSharing/entityManager.sol\":1078:1250  entities[msg.sender] = Entity({... */\n      0x00\n      dup3\n      add\n      mload\n      dup2\n      0x00\n      add\n      swap1\n      dup2\n      tag_31\n      swap2\n      swap1\n      tag_32\n      jump\t// in\n    tag_31:\n      pop\n      0x20\n      dup3\n      add\n      mload\n      dup2\n      0x01\n      add\n      swap1\n      dup2\n      tag_33\n      swap2\n      swap1\n      tag_32\n      jump\t// in\n    tag_33:\n      pop\n      0x40\n      dup3\n      add\n      mload\n      dup2\n      0x02\n      add\n      exp(0x0100, 0x00)\n      dup2\n      sload\n      dup2\n      0xffffffffffffffffffffffffffffffffffffffff\n      mul\n      not\n      and\n      swap1\n      dup4\n      0xffffffffffffffffffffffffffffffffffffffff\n      and\n      mul\n      or\n      swap1\n      sstore\n      pop\n      0x60\n      dup3\n      add\n      mload\n      dup2\n      0x02\n      add\n      exp(0x0100, 0x14)\n      dup2\n      sload\n      dup2\n      0xff\n      mul\n      not\n      and\n      swap1\n      dup4\n      iszero\n      iszero\n      mul\n      or\n      swap1\n      sstore\n      pop\n      swap1\n      pop\n      pop\n        /* \"Year1Term3/INFO6001/Assignment2/trafficDataSharing/entityManager.sol\":1260:1278  registeredEntities */\n      0x01\n        /* \"Year1Term3/INFO6001/Assignment2/trafficDataSharing/entityManager.sol\":1284:1294  msg.sender */\n      caller\n        /* \"Year1Term3/INFO6001/Assignment2/trafficDataSharing/entityManager.sol\":1260:1295  registeredEntities.push(msg.sender) */\n      swap1\n      dup1\n      0x01\n      dup2\n      sload\n      add\n      dup1\n      dup3\n      sstore\n      dup1\n      swap2\n      pop\n      pop\n      0x01\n      swap1\n      sub\n      swap1\n      0x00\n      mstore\n      keccak256(0x00, 0x20)\n      add\n      0x00\n      swap1\n      swap2\n      swap1\n      swap2\n      swap1\n      swap2\n      0x0100\n      exp\n      dup2\n      sload\n      dup2\n      0xffffffffffffffffffffffffffffffffffffffff\n      mul\n      not\n      and\n      swap1\n      dup4\n      0xffffffffffffffffffffffffffffffffffffffff\n      and\n      mul\n      or\n      swap1\n      sstore\n      pop\n        /* \"Year1Term3/INFO6001/Assignment2/trafficDataSharing/entityManager.sol\":1327:1337  msg.sender */\n      caller\n        /* \"Year1Term3/INFO6001/Assignment2/trafficDataSharing/entityManager.sol\":1310:1358  EntityRegistered(msg.sender, _name, _entityType) */\n      0xffffffffffffffffffffffffffffffffffffffff\n      and\n      0xb7218c8f53a2510b44c6ae2c8bc4ad68abecd93526d50d88bd472e70bf81fcca\n        /* \"Year1Term3/INFO6001/Assignment2/trafficDataSharing/entityManager.sol\":1339:1344  _name */\n      dup4\n        /* \"Year1Term3/INFO6001/Assignment2/trafficDataSharing/entityManager.sol\":1346:1357  _entityType */\n      dup4\n        /* \"Year1Term3/INFO6001/Assignment2/trafficDataSharing/entityManager.sol\":1310:1358  EntityRegistered(msg.sender, _name, _entityType) */\n      mload(0x40)\n      tag_35\n      swap3\n      swap2\n      swap1\n      tag_36\n      jump\t// in\n    tag_35:\n      mload(0x40)\n      dup1\n      swap2\n      sub\n      swap1\n      log2\n        /* \"Year1Term3/INFO6001/Assignment2/trafficDataSharing/entityManager.sol\":975:1366  function registerEntity(string memory _name, string memory _entityType) public notRegistered {... */\n      pop\n      pop\n      jump\t// out\n        /* \"Year1Term3/INFO6001/Assignment2/trafficDataSharing/entityManager.sol\":1597:1845  function getEntity(address _user)... */\n    tag_14:\n        /* \"Year1Term3/INFO6001/Assignment2/trafficDataSharing/entityManager.sol\":1676:1689  string memory */\n      0x60\n        /* \"Year1Term3/INFO6001/Assignment2/trafficDataSharing/entityManager.sol\":1691:1704  string memory */\n      dup1\n        /* \"Year1Term3/INFO6001/Assignment2/trafficDataSharing/entityManager.sol\":1706:1713  address */\n      0x00\n        /* \"Year1Term3/INFO6001/Assignment2/trafficDataSharing/entityManager.sol\":1715:1719  bool */\n      0x00\n        /* \"Year1Term3/INFO6001/Assignment2/trafficDataSharing/entityManager.sol\":1735:1750  Entity memory e */\n      0x00\n        /* \"Year1Term3/INFO6001/Assignment2/trafficDataSharing/entityManager.sol\":1753:1761  entities */\n      0x00\n        /* \"Year1Term3/INFO6001/Assignment2/trafficDataSharing/entityManager.sol\":1753:1768  entities[_user] */\n      0x00\n        /* \"Year1Term3/INFO6001/Assignment2/trafficDataSharing/entityManager.sol\":1762:1767  _user */\n      dup8\n        /* \"Year1Term3/INFO6001/Assignment2/trafficDataSharing/entityManager.sol\":1753:1768  entities[_user] */\n      0xffffffffffffffffffffffffffffffffffffffff\n      and\n      0xffffffffffffffffffffffffffffffffffffffff\n      and\n      dup2\n      mstore\n      0x20\n      add\n      swap1\n      dup2\n      mstore\n      0x20\n      add\n      0x00\n      keccak256\n        /* \"Year1Term3/INFO6001/Assignment2/trafficDataSharing/entityManager.sol\":1735:1768  Entity memory e = entities[_user] */\n      mload(0x40)\n      dup1\n      0x80\n      add\n      0x40\n      mstore\n      swap1\n      dup2\n      0x00\n      dup3\n      add\n      dup1\n      sload\n      tag_38\n      swap1\n      tag_39\n      jump\t// in\n    tag_38:\n      dup1\n      0x1f\n      add\n      0x20\n      dup1\n      swap2\n      div\n      mul\n      0x20\n      add\n      mload(0x40)\n      swap1\n      dup2\n      add\n      0x40\n      mstore\n      dup1\n      swap3\n      swap2\n      swap1\n      dup2\n      dup2\n      mstore\n      0x20\n      add\n      dup3\n      dup1\n      sload\n      tag_40\n      swap1\n      tag_39\n      jump\t// in\n    tag_40:\n      dup1\n      iszero\n      tag_41\n      jumpi\n      dup1\n      0x1f\n      lt\n      tag_42\n      jumpi\n      0x0100\n      dup1\n      dup4\n      sload\n      div\n      mul\n      dup4\n      mstore\n      swap2\n      0x20\n      add\n      swap2\n      jump(tag_41)\n    tag_42:\n      dup3\n      add\n      swap2\n      swap1\n      0x00\n      mstore\n      keccak256(0x00, 0x20)\n      swap1\n    tag_43:\n      dup2\n      sload\n      dup2\n      mstore\n      swap1\n      0x01\n      add\n      swap1\n      0x20\n      add\n      dup1\n      dup4\n      gt\n      tag_43\n      jumpi\n      dup3\n      swap1\n      sub\n      0x1f\n      and\n      dup3\n      add\n      swap2\n    tag_41:\n      pop\n      pop\n      pop\n      pop\n      pop\n      dup2\n      mstore\n      0x20\n      add\n      0x01\n      dup3\n      add\n      dup1\n      sload\n      tag_44\n      swap1\n      tag_39\n      jump\t// in\n    tag_44:\n      dup1\n      0x1f\n      add\n      0x20\n      dup1\n      swap2\n      div\n      mul\n      0x20\n      add\n      mload(0x40)\n      swap1\n      dup2\n      add\n      0x40\n      mstore\n      dup1\n      swap3\n      swap2\n      swap1\n      dup2\n      dup2\n      mstore\n      0x20\n      add\n      dup3\n      dup1\n      sload\n      tag_45\n      swap1\n      tag_39\n      jump\t// in\n    tag_45:\n      dup1\n      iszero\n      tag_46\n      jumpi\n      dup1\n      0x1f\n      lt\n      tag_47\n      jumpi\n      0x0100\n      dup1\n      dup4\n      sload\n      div\n      mul\n      dup4\n      mstore\n      swap2\n      0x20\n      add\n      swap2\n      jump(tag_46)\n    tag_47:\n      dup3\n      add\n      swap2\n      swap1\n      0x00\n      mstore\n      keccak256(0x00, 0x20)\n      swap1\n    tag_48:\n      dup2\n      sload\n      dup2\n      mstore\n      swap1\n      0x01\n      add\n      swap1\n      0x20\n      add\n      dup1\n      dup4\n      gt\n      tag_48\n      jumpi\n      dup3\n      swap1\n      sub\n      0x1f\n      and\n      dup3\n      add\n      swap2\n    tag_46:\n      pop\n      pop\n      pop\n      pop\n      pop\n      dup2\n      mstore\n      0x20\n      add\n      0x02\n      dup3\n      add\n      0x00\n      swap1\n      sload\n      swap1\n      0x0100\n      exp\n      swap1\n      div\n      0xffffffffffffffffffffffffffffffffffffffff\n      and\n      0xffffffffffffffffffffffffffffffffffffffff\n      and\n      0xffffffffffffffffffffffffffffffffffffffff\n      and\n      dup2\n      mstore\n      0x20\n      add\n      0x02\n      dup3\n      add\n      0x14\n      swap1\n      sload\n      swap1\n      0x0100\n      exp\n      swap1\n      div\n      0xff\n      and\n      iszero\n      iszero\n      iszero\n      iszero\n      dup2\n      mstore\n      pop\n      pop\n      swap1\n      pop\n        /* \"Year1Term3/INFO6001/Assignment2/trafficDataSharing/entityManager.sol\":1786:1787  e */\n      dup1\n        /* \"Year1Term3/INFO6001/Assignment2/trafficDataSharing/entityManager.sol\":1786:1792  e.name */\n      0x00\n      add\n      mload\n        /* \"Year1Term3/INFO6001/Assignment2/trafficDataSharing/entityManager.sol\":1794:1795  e */\n      dup2\n        /* \"Year1Term3/INFO6001/Assignment2/trafficDataSharing/entityManager.sol\":1794:1806  e.entityType */\n      0x20\n      add\n      mload\n        /* \"Year1Term3/INFO6001/Assignment2/trafficDataSharing/entityManager.sol\":1808:1809  e */\n      dup3\n        /* \"Year1Term3/INFO6001/Assignment2/trafficDataSharing/entityManager.sol\":1808:1823  e.entityAddress */\n      0x40\n      add\n      mload\n        /* \"Year1Term3/INFO6001/Assignment2/trafficDataSharing/entityManager.sol\":1825:1826  e */\n      dup4\n        /* \"Year1Term3/INFO6001/Assignment2/trafficDataSharing/entityManager.sol\":1825:1837  e.registered */\n      0x60\n      add\n      mload\n        /* \"Year1Term3/INFO6001/Assignment2/trafficDataSharing/entityManager.sol\":1778:1838  return (e.name, e.entityType, e.entityAddress, e.registered) */\n      swap5\n      pop\n      swap5\n      pop\n      swap5\n      pop\n      swap5\n      pop\n      pop\n        /* \"Year1Term3/INFO6001/Assignment2/trafficDataSharing/entityManager.sol\":1597:1845  function getEntity(address _user)... */\n      swap2\n      swap4\n      pop\n      swap2\n      swap4\n      jump\t// out\n        /* \"Year1Term3/INFO6001/Assignment2/trafficDataSharing/entityManager.sol\":1907:2014  function getAllEntities() public view returns (address[] memory) {... */\n    tag_18:\n        /* \"Year1Term3/INFO6001/Assignment2/trafficDataSharing/entityManager.sol\":1954:1970  address[] memory */\n      0x60\n        /* \"Year1Term3/INFO6001/Assignment2/trafficDataSharing/entityManager.sol\":1989:2007  registeredEntities */\n      0x01\n        /* \"Year1Term3/INFO6001/Assignment2/trafficDataSharing/entityManager.sol\":1982:2007  return registeredEntities */\n      dup1\n      sload\n      dup1\n      0x20\n      mul\n      0x20\n      add\n      mload(0x40)\n      swap1\n      dup2\n      add\n      0x40\n      mstore\n      dup1\n      swap3\n      swap2\n      swap1\n      dup2\n      dup2\n      mstore\n      0x20\n      add\n      dup3\n      dup1\n      sload\n      dup1\n      iszero\n      tag_50\n      jumpi\n      0x20\n      mul\n      dup3\n      add\n      swap2\n      swap1\n      0x00\n      mstore\n      keccak256(0x00, 0x20)\n      swap1\n    tag_51:\n      dup2\n      0x00\n      swap1\n      sload\n      swap1\n      0x0100\n      exp\n      swap1\n      div\n      0xffffffffffffffffffffffffffffffffffffffff\n      and\n      0xffffffffffffffffffffffffffffffffffffffff\n      and\n      dup2\n      mstore\n      0x20\n      add\n      swap1\n      0x01\n      add\n      swap1\n      dup1\n      dup4\n      gt\n      tag_51\n      jumpi\n    tag_50:\n      pop\n      pop\n      pop\n      pop\n      pop\n      swap1\n      pop\n        /* \"Year1Term3/INFO6001/Assignment2/trafficDataSharing/entityManager.sol\":1907:2014  function getAllEntities() public view returns (address[] memory) {... */\n      swap1\n      jump\t// out\n        /* \"Year1Term3/INFO6001/Assignment2/trafficDataSharing/entityManager.sol\":1427:1541  function isRegistered(address _user) public view returns (bool) {... */\n    tag_23:\n        /* \"Year1Term3/INFO6001/Assignment2/trafficDataSharing/entityManager.sol\":1485:1489  bool */\n      0x00\n        /* \"Year1Term3/INFO6001/Assignment2/trafficDataSharing/entityManager.sol\":1508:1516  entities */\n      0x00\n        /* \"Year1Term3/INFO6001/Assignment2/trafficDataSharing/entityManager.sol\":1508:1523  entities[_user] */\n      0x00\n        /* \"Year1Term3/INFO6001/Assignment2/trafficDataSharing/entityManager.sol\":1517:1522  _user */\n      dup4\n        /* \"Year1Term3/INFO6001/Assignment2/trafficDataSharing/entityManager.sol\":1508:1523  entities[_user] */\n      0xffffffffffffffffffffffffffffffffffffffff\n      and\n      0xffffffffffffffffffffffffffffffffffffffff\n      and\n      dup2\n      mstore\n      0x20\n      add\n      swap1\n      dup2\n      mstore\n      0x20\n      add\n      0x00\n      keccak256\n        /* \"Year1Term3/INFO6001/Assignment2/trafficDataSharing/entityManager.sol\":1508:1534  entities[_user].registered */\n      0x02\n      add\n      0x14\n      swap1\n      sload\n      swap1\n      0x0100\n      exp\n      swap1\n      div\n      0xff\n      and\n        /* \"Year1Term3/INFO6001/Assignment2/trafficDataSharing/entityManager.sol\":1501:1534  return entities[_user].registered */\n      swap1\n      pop\n        /* \"Year1Term3/INFO6001/Assignment2/trafficDataSharing/entityManager.sol\":1427:1541  function isRegistered(address _user) public view returns (bool) {... */\n      swap2\n      swap1\n      pop\n      jump\t// out\n        /* \"#utility.yul\":7:82   */\n    tag_53:\n        /* \"#utility.yul\":40:46   */\n      0x00\n        /* \"#utility.yul\":73:75   */\n      0x40\n        /* \"#utility.yul\":67:76   */\n      mload\n        /* \"#utility.yul\":57:76   */\n      swap1\n      pop\n        /* \"#utility.yul\":7:82   */\n      swap1\n      jump\t// out\n        /* \"#utility.yul\":88:205   */\n    tag_54:\n        /* \"#utility.yul\":197:198   */\n      0x00\n        /* \"#utility.yul\":194:195   */\n      0x00\n        /* \"#utility.yul\":187:199   */\n      revert\n        /* \"#utility.yul\":211:328   */\n    tag_55:\n        /* \"#utility.yul\":320:321   */\n      0x00\n        /* \"#utility.yul\":317:318   */\n      0x00\n        /* \"#utility.yul\":310:322   */\n      revert\n        /* \"#utility.yul\":334:451   */\n    tag_56:\n        /* \"#utility.yul\":443:444   */\n      0x00\n        /* \"#utility.yul\":440:441   */\n      0x00\n        /* \"#utility.yul\":433:445   */\n      revert\n        /* \"#utility.yul\":457:574   */\n    tag_57:\n        /* \"#utility.yul\":566:567   */\n      0x00\n        /* \"#utility.yul\":563:564   */\n      0x00\n        /* \"#utility.yul\":556:568   */\n      revert\n        /* \"#utility.yul\":580:682   */\n    tag_58:\n        /* \"#utility.yul\":621:627   */\n      0x00\n        /* \"#utility.yul\":672:674   */\n      0x1f\n        /* \"#utility.yul\":668:675   */\n      not\n        /* \"#utility.yul\":663:665   */\n      0x1f\n        /* \"#utility.yul\":656:661   */\n      dup4\n        /* \"#utility.yul\":652:666   */\n      add\n        /* \"#utility.yul\":648:676   */\n      and\n        /* \"#utility.yul\":638:676   */\n      swap1\n      pop\n        /* \"#utility.yul\":580:682   */\n      swap2\n      swap1\n      pop\n      jump\t// out\n        /* \"#utility.yul\":688:868   */\n    tag_59:\n        /* \"#utility.yul\":736:813   */\n      0x4e487b7100000000000000000000000000000000000000000000000000000000\n        /* \"#utility.yul\":733:734   */\n      0x00\n        /* \"#utility.yul\":726:814   */\n      mstore\n        /* \"#utility.yul\":833:837   */\n      0x41\n        /* \"#utility.yul\":830:831   */\n      0x04\n        /* \"#utility.yul\":823:838   */\n      mstore\n        /* \"#utility.yul\":857:861   */\n      0x24\n        /* \"#utility.yul\":854:855   */\n      0x00\n        /* \"#utility.yul\":847:862   */\n      revert\n        /* \"#utility.yul\":874:1155   */\n    tag_60:\n        /* \"#utility.yul\":957:984   */\n      tag_112\n        /* \"#utility.yul\":979:983   */\n      dup3\n        /* \"#utility.yul\":957:984   */\n      tag_58\n      jump\t// in\n    tag_112:\n        /* \"#utility.yul\":949:955   */\n      dup2\n        /* \"#utility.yul\":945:985   */\n      add\n        /* \"#utility.yul\":1087:1093   */\n      dup2\n        /* \"#utility.yul\":1075:1085   */\n      dup2\n        /* \"#utility.yul\":1072:1094   */\n      lt\n        /* \"#utility.yul\":1051:1069   */\n      0xffffffffffffffff\n        /* \"#utility.yul\":1039:1049   */\n      dup3\n        /* \"#utility.yul\":1036:1070   */\n      gt\n        /* \"#utility.yul\":1033:1095   */\n      or\n        /* \"#utility.yul\":1030:1118   */\n      iszero\n      tag_113\n      jumpi\n        /* \"#utility.yul\":1098:1116   */\n      tag_114\n      tag_59\n      jump\t// in\n    tag_114:\n        /* \"#utility.yul\":1030:1118   */\n    tag_113:\n        /* \"#utility.yul\":1138:1148   */\n      dup1\n        /* \"#utility.yul\":1134:1136   */\n      0x40\n        /* \"#utility.yul\":1127:1149   */\n      mstore\n        /* \"#utility.yul\":917:1155   */\n      pop\n        /* \"#utility.yul\":874:1155   */\n      pop\n      pop\n      jump\t// out\n        /* \"#utility.yul\":1161:1290   */\n    tag_61:\n        /* \"#utility.yul\":1195:1201   */\n      0x00\n        /* \"#utility.yul\":1222:1242   */\n      tag_116\n      tag_53\n      jump\t// in\n    tag_116:\n        /* \"#utility.yul\":1212:1242   */\n      swap1\n      pop\n        /* \"#utility.yul\":1251:1284   */\n      tag_117\n        /* \"#utility.yul\":1279:1283   */\n      dup3\n        /* \"#utility.yul\":1271:1277   */\n      dup3\n        /* \"#utility.yul\":1251:1284   */\n      tag_60\n      jump\t// in\n    tag_117:\n        /* \"#utility.yul\":1161:1290   */\n      swap2\n      swap1\n      pop\n      jump\t// out\n        /* \"#utility.yul\":1296:1604   */\n    tag_62:\n        /* \"#utility.yul\":1358:1362   */\n      0x00\n        /* \"#utility.yul\":1448:1466   */\n      0xffffffffffffffff\n        /* \"#utility.yul\":1440:1446   */\n      dup3\n        /* \"#utility.yul\":1437:1467   */\n      gt\n        /* \"#utility.yul\":1434:1490   */\n      iszero\n      tag_119\n      jumpi\n        /* \"#utility.yul\":1470:1488   */\n      tag_120\n      tag_59\n      jump\t// in\n    tag_120:\n        /* \"#utility.yul\":1434:1490   */\n    tag_119:\n        /* \"#utility.yul\":1508:1537   */\n      tag_121\n        /* \"#utility.yul\":1530:1536   */\n      dup3\n        /* \"#utility.yul\":1508:1537   */\n      tag_58\n      jump\t// in\n    tag_121:\n        /* \"#utility.yul\":1500:1537   */\n      swap1\n      pop\n        /* \"#utility.yul\":1592:1596   */\n      0x20\n        /* \"#utility.yul\":1586:1590   */\n      dup2\n        /* \"#utility.yul\":1582:1597   */\n      add\n        /* \"#utility.yul\":1574:1597   */\n      swap1\n      pop\n        /* \"#utility.yul\":1296:1604   */\n      swap2\n      swap1\n      pop\n      jump\t// out\n        /* \"#utility.yul\":1610:1758   */\n    tag_63:\n        /* \"#utility.yul\":1708:1714   */\n      dup3\n        /* \"#utility.yul\":1703:1706   */\n      dup2\n        /* \"#utility.yul\":1698:1701   */\n      dup4\n        /* \"#utility.yul\":1685:1715   */\n      calldatacopy\n        /* \"#utility.yul\":1749:1750   */\n      0x00\n        /* \"#utility.yul\":1740:1746   */\n      dup4\n        /* \"#utility.yul\":1735:1738   */\n      dup4\n        /* \"#utility.yul\":1731:1747   */\n      add\n        /* \"#utility.yul\":1724:1751   */\n      mstore\n        /* \"#utility.yul\":1610:1758   */\n      pop\n      pop\n      pop\n      jump\t// out\n        /* \"#utility.yul\":1764:2189   */\n    tag_64:\n        /* \"#utility.yul\":1842:1847   */\n      0x00\n        /* \"#utility.yul\":1867:1933   */\n      tag_124\n        /* \"#utility.yul\":1883:1932   */\n      tag_125\n        /* \"#utility.yul\":1925:1931   */\n      dup5\n        /* \"#utility.yul\":1883:1932   */\n      tag_62\n      jump\t// in\n    tag_125:\n        /* \"#utility.yul\":1867:1933   */\n      tag_61\n      jump\t// in\n    tag_124:\n        /* \"#utility.yul\":1858:1933   */\n      swap1\n      pop\n        /* \"#utility.yul\":1956:1962   */\n      dup3\n        /* \"#utility.yul\":1949:1954   */\n      dup2\n        /* \"#utility.yul\":1942:1963   */\n      mstore\n        /* \"#utility.yul\":1994:1998   */\n      0x20\n        /* \"#utility.yul\":1987:1992   */\n      dup2\n        /* \"#utility.yul\":1983:1999   */\n      add\n        /* \"#utility.yul\":2032:2035   */\n      dup5\n        /* \"#utility.yul\":2023:2029   */\n      dup5\n        /* \"#utility.yul\":2018:2021   */\n      dup5\n        /* \"#utility.yul\":2014:2030   */\n      add\n        /* \"#utility.yul\":2011:2036   */\n      gt\n        /* \"#utility.yul\":2008:2120   */\n      iszero\n      tag_126\n      jumpi\n        /* \"#utility.yul\":2039:2118   */\n      tag_127\n      tag_57\n      jump\t// in\n    tag_127:\n        /* \"#utility.yul\":2008:2120   */\n    tag_126:\n        /* \"#utility.yul\":2129:2183   */\n      tag_128\n        /* \"#utility.yul\":2176:2182   */\n      dup5\n        /* \"#utility.yul\":2171:2174   */\n      dup3\n        /* \"#utility.yul\":2166:2169   */\n      dup6\n        /* \"#utility.yul\":2129:2183   */\n      tag_63\n      jump\t// in\n    tag_128:\n        /* \"#utility.yul\":1848:2189   */\n      pop\n        /* \"#utility.yul\":1764:2189   */\n      swap4\n      swap3\n      pop\n      pop\n      pop\n      jump\t// out\n        /* \"#utility.yul\":2209:2549   */\n    tag_65:\n        /* \"#utility.yul\":2265:2270   */\n      0x00\n        /* \"#utility.yul\":2314:2317   */\n      dup3\n        /* \"#utility.yul\":2307:2311   */\n      0x1f\n        /* \"#utility.yul\":2299:2305   */\n      dup4\n        /* \"#utility.yul\":2295:2312   */\n      add\n        /* \"#utility.yul\":2291:2318   */\n      slt\n        /* \"#utility.yul\":2281:2403   */\n      tag_130\n      jumpi\n        /* \"#utility.yul\":2322:2401   */\n      tag_131\n      tag_56\n      jump\t// in\n    tag_131:\n        /* \"#utility.yul\":2281:2403   */\n    tag_130:\n        /* \"#utility.yul\":2439:2445   */\n      dup2\n        /* \"#utility.yul\":2426:2446   */\n      calldataload\n        /* \"#utility.yul\":2464:2543   */\n      tag_132\n        /* \"#utility.yul\":2539:2542   */\n      dup5\n        /* \"#utility.yul\":2531:2537   */\n      dup3\n        /* \"#utility.yul\":2524:2528   */\n      0x20\n        /* \"#utility.yul\":2516:2522   */\n      dup7\n        /* \"#utility.yul\":2512:2529   */\n      add\n        /* \"#utility.yul\":2464:2543   */\n      tag_64\n      jump\t// in\n    tag_132:\n        /* \"#utility.yul\":2455:2543   */\n      swap2\n      pop\n        /* \"#utility.yul\":2271:2549   */\n      pop\n        /* \"#utility.yul\":2209:2549   */\n      swap3\n      swap2\n      pop\n      pop\n      jump\t// out\n        /* \"#utility.yul\":2555:3389   */\n    tag_9:\n        /* \"#utility.yul\":2643:2649   */\n      0x00\n        /* \"#utility.yul\":2651:2657   */\n      0x00\n        /* \"#utility.yul\":2700:2702   */\n      0x40\n        /* \"#utility.yul\":2688:2697   */\n      dup4\n        /* \"#utility.yul\":2679:2686   */\n      dup6\n        /* \"#utility.yul\":2675:2698   */\n      sub\n        /* \"#utility.yul\":2671:2703   */\n      slt\n        /* \"#utility.yul\":2668:2787   */\n      iszero\n      tag_134\n      jumpi\n        /* \"#utility.yul\":2706:2785   */\n      tag_135\n      tag_54\n      jump\t// in\n    tag_135:\n        /* \"#utility.yul\":2668:2787   */\n    tag_134:\n        /* \"#utility.yul\":2854:2855   */\n      0x00\n        /* \"#utility.yul\":2843:2852   */\n      dup4\n        /* \"#utility.yul\":2839:2856   */\n      add\n        /* \"#utility.yul\":2826:2857   */\n      calldataload\n        /* \"#utility.yul\":2884:2902   */\n      0xffffffffffffffff\n        /* \"#utility.yul\":2876:2882   */\n      dup2\n        /* \"#utility.yul\":2873:2903   */\n      gt\n        /* \"#utility.yul\":2870:2987   */\n      iszero\n      tag_136\n      jumpi\n        /* \"#utility.yul\":2906:2985   */\n      tag_137\n      tag_55\n      jump\t// in\n    tag_137:\n        /* \"#utility.yul\":2870:2987   */\n    tag_136:\n        /* \"#utility.yul\":3011:3074   */\n      tag_138\n        /* \"#utility.yul\":3066:3073   */\n      dup6\n        /* \"#utility.yul\":3057:3063   */\n      dup3\n        /* \"#utility.yul\":3046:3055   */\n      dup7\n        /* \"#utility.yul\":3042:3064   */\n      add\n        /* \"#utility.yul\":3011:3074   */\n      tag_65\n      jump\t// in\n    tag_138:\n        /* \"#utility.yul\":3001:3074   */\n      swap3\n      pop\n        /* \"#utility.yul\":2797:3084   */\n      pop\n        /* \"#utility.yul\":3151:3153   */\n      0x20\n        /* \"#utility.yul\":3140:3149   */\n      dup4\n        /* \"#utility.yul\":3136:3154   */\n      add\n        /* \"#utility.yul\":3123:3155   */\n      calldataload\n        /* \"#utility.yul\":3182:3200   */\n      0xffffffffffffffff\n        /* \"#utility.yul\":3174:3180   */\n      dup2\n        /* \"#utility.yul\":3171:3201   */\n      gt\n        /* \"#utility.yul\":3168:3285   */\n      iszero\n      tag_139\n      jumpi\n        /* \"#utility.yul\":3204:3283   */\n      tag_140\n      tag_55\n      jump\t// in\n    tag_140:\n        /* \"#utility.yul\":3168:3285   */\n    tag_139:\n        /* \"#utility.yul\":3309:3372   */\n      tag_141\n        /* \"#utility.yul\":3364:3371   */\n      dup6\n        /* \"#utility.yul\":3355:3361   */\n      dup3\n        /* \"#utility.yul\":3344:3353   */\n      dup7\n        /* \"#utility.yul\":3340:3362   */\n      add\n        /* \"#utility.yul\":3309:3372   */\n      tag_65\n      jump\t// in\n    tag_141:\n        /* \"#utility.yul\":3299:3372   */\n      swap2\n      pop\n        /* \"#utility.yul\":3094:3382   */\n      pop\n        /* \"#utility.yul\":2555:3389   */\n      swap3\n      pop\n      swap3\n      swap1\n      pop\n      jump\t// out\n        /* \"#utility.yul\":3395:3521   */\n    tag_66:\n        /* \"#utility.yul\":3432:3439   */\n      0x00\n        /* \"#utility.yul\":3472:3514   */\n      0xffffffffffffffffffffffffffffffffffffffff\n        /* \"#utility.yul\":3465:3470   */\n      dup3\n        /* \"#utility.yul\":3461:3515   */\n      and\n        /* \"#utility.yul\":3450:3515   */\n      swap1\n      pop\n        /* \"#utility.yul\":3395:3521   */\n      swap2\n      swap1\n      pop\n      jump\t// out\n        /* \"#utility.yul\":3527:3623   */\n    tag_67:\n        /* \"#utility.yul\":3564:3571   */\n      0x00\n        /* \"#utility.yul\":3593:3617   */\n      tag_144\n        /* \"#utility.yul\":3611:3616   */\n      dup3\n        /* \"#utility.yul\":3593:3617   */\n      tag_66\n      jump\t// in\n    tag_144:\n        /* \"#utility.yul\":3582:3617   */\n      swap1\n      pop\n        /* \"#utility.yul\":3527:3623   */\n      swap2\n      swap1\n      pop\n      jump\t// out\n        /* \"#utility.yul\":3629:3751   */\n    tag_68:\n        /* \"#utility.yul\":3702:3726   */\n      tag_146\n        /* \"#utility.yul\":3720:3725   */\n      dup2\n        /* \"#utility.yul\":3702:3726   */\n      tag_67\n      jump\t// in\n    tag_146:\n        /* \"#utility.yul\":3695:3700   */\n      dup2\n        /* \"#utility.yul\":3692:3727   */\n      eq\n        /* \"#utility.yul\":3682:3745   */\n      tag_147\n      jumpi\n        /* \"#utility.yul\":3741:3742   */\n      0x00\n        /* \"#utility.yul\":3738:3739   */\n      0x00\n        /* \"#utility.yul\":3731:3743   */\n      revert\n        /* \"#utility.yul\":3682:3745   */\n    tag_147:\n        /* \"#utility.yul\":3629:3751   */\n      pop\n      jump\t// out\n        /* \"#utility.yul\":3757:3896   */\n    tag_69:\n        /* \"#utility.yul\":3803:3808   */\n      0x00\n        /* \"#utility.yul\":3841:3847   */\n      dup2\n        /* \"#utility.yul\":3828:3848   */\n      calldataload\n        /* \"#utility.yul\":3819:3848   */\n      swap1\n      pop\n        /* \"#utility.yul\":3857:3890   */\n      tag_149\n        /* \"#utility.yul\":3884:3889   */\n      dup2\n        /* \"#utility.yul\":3857:3890   */\n      tag_68\n      jump\t// in\n    tag_149:\n        /* \"#utility.yul\":3757:3896   */\n      swap3\n      swap2\n      pop\n      pop\n      jump\t// out\n        /* \"#utility.yul\":3902:4231   */\n    tag_13:\n        /* \"#utility.yul\":3961:3967   */\n      0x00\n        /* \"#utility.yul\":4010:4012   */\n      0x20\n        /* \"#utility.yul\":3998:4007   */\n      dup3\n        /* \"#utility.yul\":3989:3996   */\n      dup5\n        /* \"#utility.yul\":3985:4008   */\n      sub\n        /* \"#utility.yul\":3981:4013   */\n      slt\n        /* \"#utility.yul\":3978:4097   */\n      iszero\n      tag_151\n      jumpi\n        /* \"#utility.yul\":4016:4095   */\n      tag_152\n      tag_54\n      jump\t// in\n    tag_152:\n        /* \"#utility.yul\":3978:4097   */\n    tag_151:\n        /* \"#utility.yul\":4136:4137   */\n      0x00\n        /* \"#utility.yul\":4161:4214   */\n      tag_153\n        /* \"#utility.yul\":4206:4213   */\n      dup5\n        /* \"#utility.yul\":4197:4203   */\n      dup3\n        /* \"#utility.yul\":4186:4195   */\n      dup6\n        /* \"#utility.yul\":4182:4204   */\n      add\n        /* \"#utility.yul\":4161:4214   */\n      tag_69\n      jump\t// in\n    tag_153:\n        /* \"#utility.yul\":4151:4214   */\n      swap2\n      pop\n        /* \"#utility.yul\":4107:4224   */\n      pop\n        /* \"#utility.yul\":3902:4231   */\n      swap3\n      swap2\n      pop\n      pop\n      jump\t// out\n        /* \"#utility.yul\":4237:4336   */\n    tag_70:\n        /* \"#utility.yul\":4289:4295   */\n      0x00\n        /* \"#utility.yul\":4323:4328   */\n      dup2\n        /* \"#utility.yul\":4317:4329   */\n      mload\n        /* \"#utility.yul\":4307:4329   */\n      swap1\n      pop\n        /* \"#utility.yul\":4237:4336   */\n      swap2\n      swap1\n      pop\n      jump\t// out\n        /* \"#utility.yul\":4342:4511   */\n    tag_71:\n        /* \"#utility.yul\":4426:4437   */\n      0x00\n        /* \"#utility.yul\":4460:4466   */\n      dup3\n        /* \"#utility.yul\":4455:4458   */\n      dup3\n        /* \"#utility.yul\":4448:4467   */\n      mstore\n        /* \"#utility.yul\":4500:4504   */\n      0x20\n        /* \"#utility.yul\":4495:4498   */\n      dup3\n        /* \"#utility.yul\":4491:4505   */\n      add\n        /* \"#utility.yul\":4476:4505   */\n      swap1\n      pop\n        /* \"#utility.yul\":4342:4511   */\n      swap3\n      swap2\n      pop\n      pop\n      jump\t// out\n        /* \"#utility.yul\":4517:4656   */\n    tag_72:\n        /* \"#utility.yul\":4606:4612   */\n      dup3\n        /* \"#utility.yul\":4601:4604   */\n      dup2\n        /* \"#utility.yul\":4596:4599   */\n      dup4\n        /* \"#utility.yul\":4590:4613   */\n      mcopy\n        /* \"#utility.yul\":4647:4648   */\n      0x00\n        /* \"#utility.yul\":4638:4644   */\n      dup4\n        /* \"#utility.yul\":4633:4636   */\n      dup4\n        /* \"#utility.yul\":4629:4645   */\n      add\n        /* \"#utility.yul\":4622:4649   */\n      mstore\n        /* \"#utility.yul\":4517:4656   */\n      pop\n      pop\n      pop\n      jump\t// out\n        /* \"#utility.yul\":4662:5039   */\n    tag_73:\n        /* \"#utility.yul\":4750:4753   */\n      0x00\n        /* \"#utility.yul\":4778:4817   */\n      tag_158\n        /* \"#utility.yul\":4811:4816   */\n      dup3\n        /* \"#utility.yul\":4778:4817   */\n      tag_70\n      jump\t// in\n    tag_158:\n        /* \"#utility.yul\":4833:4904   */\n      tag_159\n        /* \"#utility.yul\":4897:4903   */\n      dup2\n        /* \"#utility.yul\":4892:4895   */\n      dup6\n        /* \"#utility.yul\":4833:4904   */\n      tag_71\n      jump\t// in\n    tag_159:\n        /* \"#utility.yul\":4826:4904   */\n      swap4\n      pop\n        /* \"#utility.yul\":4913:4978   */\n      tag_160\n        /* \"#utility.yul\":4971:4977   */\n      dup2\n        /* \"#utility.yul\":4966:4969   */\n      dup6\n        /* \"#utility.yul\":4959:4963   */\n      0x20\n        /* \"#utility.yul\":4952:4957   */\n      dup7\n        /* \"#utility.yul\":4948:4964   */\n      add\n        /* \"#utility.yul\":4913:4978   */\n      tag_72\n      jump\t// in\n    tag_160:\n        /* \"#utility.yul\":5003:5032   */\n      tag_161\n        /* \"#utility.yul\":5025:5031   */\n      dup2\n        /* \"#utility.yul\":5003:5032   */\n      tag_58\n      jump\t// in\n    tag_161:\n        /* \"#utility.yul\":4998:5001   */\n      dup5\n        /* \"#utility.yul\":4994:5033   */\n      add\n        /* \"#utility.yul\":4987:5033   */\n      swap2\n      pop\n        /* \"#utility.yul\":4754:5039   */\n      pop\n        /* \"#utility.yul\":4662:5039   */\n      swap3\n      swap2\n      pop\n      pop\n      jump\t// out\n        /* \"#utility.yul\":5045:5163   */\n    tag_74:\n        /* \"#utility.yul\":5132:5156   */\n      tag_163\n        /* \"#utility.yul\":5150:5155   */\n      dup2\n        /* \"#utility.yul\":5132:5156   */\n      tag_67\n      jump\t// in\n    tag_163:\n        /* \"#utility.yul\":5127:5130   */\n      dup3\n        /* \"#utility.yul\":5120:5157   */\n      mstore\n        /* \"#utility.yul\":5045:5163   */\n      pop\n      pop\n      jump\t// out\n        /* \"#utility.yul\":5169:5259   */\n    tag_75:\n        /* \"#utility.yul\":5203:5210   */\n      0x00\n        /* \"#utility.yul\":5246:5251   */\n      dup2\n        /* \"#utility.yul\":5239:5252   */\n      iszero\n        /* \"#utility.yul\":5232:5253   */\n      iszero\n        /* \"#utility.yul\":5221:5253   */\n      swap1\n      pop\n        /* \"#utility.yul\":5169:5259   */\n      swap2\n      swap1\n      pop\n      jump\t// out\n        /* \"#utility.yul\":5265:5374   */\n    tag_76:\n        /* \"#utility.yul\":5346:5367   */\n      tag_166\n        /* \"#utility.yul\":5361:5366   */\n      dup2\n        /* \"#utility.yul\":5346:5367   */\n      tag_75\n      jump\t// in\n    tag_166:\n        /* \"#utility.yul\":5341:5344   */\n      dup3\n        /* \"#utility.yul\":5334:5368   */\n      mstore\n        /* \"#utility.yul\":5265:5374   */\n      pop\n      pop\n      jump\t// out\n        /* \"#utility.yul\":5380:6103   */\n    tag_16:\n        /* \"#utility.yul\":5591:5595   */\n      0x00\n        /* \"#utility.yul\":5629:5632   */\n      0x80\n        /* \"#utility.yul\":5618:5627   */\n      dup3\n        /* \"#utility.yul\":5614:5633   */\n      add\n        /* \"#utility.yul\":5606:5633   */\n      swap1\n      pop\n        /* \"#utility.yul\":5679:5688   */\n      dup2\n        /* \"#utility.yul\":5673:5677   */\n      dup2\n        /* \"#utility.yul\":5669:5689   */\n      sub\n        /* \"#utility.yul\":5665:5666   */\n      0x00\n        /* \"#utility.yul\":5654:5663   */\n      dup4\n        /* \"#utility.yul\":5650:5667   */\n      add\n        /* \"#utility.yul\":5643:5690   */\n      mstore\n        /* \"#utility.yul\":5707:5785   */\n      tag_168\n        /* \"#utility.yul\":5780:5784   */\n      dup2\n        /* \"#utility.yul\":5771:5777   */\n      dup8\n        /* \"#utility.yul\":5707:5785   */\n      tag_73\n      jump\t// in\n    tag_168:\n        /* \"#utility.yul\":5699:5785   */\n      swap1\n      pop\n        /* \"#utility.yul\":5832:5841   */\n      dup2\n        /* \"#utility.yul\":5826:5830   */\n      dup2\n        /* \"#utility.yul\":5822:5842   */\n      sub\n        /* \"#utility.yul\":5817:5819   */\n      0x20\n        /* \"#utility.yul\":5806:5815   */\n      dup4\n        /* \"#utility.yul\":5802:5820   */\n      add\n        /* \"#utility.yul\":5795:5843   */\n      mstore\n        /* \"#utility.yul\":5860:5938   */\n      tag_169\n        /* \"#utility.yul\":5933:5937   */\n      dup2\n        /* \"#utility.yul\":5924:5930   */\n      dup7\n        /* \"#utility.yul\":5860:5938   */\n      tag_73\n      jump\t// in\n    tag_169:\n        /* \"#utility.yul\":5852:5938   */\n      swap1\n      pop\n        /* \"#utility.yul\":5948:6020   */\n      tag_170\n        /* \"#utility.yul\":6016:6018   */\n      0x40\n        /* \"#utility.yul\":6005:6014   */\n      dup4\n        /* \"#utility.yul\":6001:6019   */\n      add\n        /* \"#utility.yul\":5992:5998   */\n      dup6\n        /* \"#utility.yul\":5948:6020   */\n      tag_74\n      jump\t// in\n    tag_170:\n        /* \"#utility.yul\":6030:6096   */\n      tag_171\n        /* \"#utility.yul\":6092:6094   */\n      0x60\n        /* \"#utility.yul\":6081:6090   */\n      dup4\n        /* \"#utility.yul\":6077:6095   */\n      add\n        /* \"#utility.yul\":6068:6074   */\n      dup5\n        /* \"#utility.yul\":6030:6096   */\n      tag_76\n      jump\t// in\n    tag_171:\n        /* \"#utility.yul\":5380:6103   */\n      swap6\n      swap5\n      pop\n      pop\n      pop\n      pop\n      pop\n      jump\t// out\n        /* \"#utility.yul\":6109:6223   */\n    tag_77:\n        /* \"#utility.yul\":6176:6182   */\n      0x00\n        /* \"#utility.yul\":6210:6215   */\n      dup2\n        /* \"#utility.yul\":6204:6216   */\n      mload\n        /* \"#utility.yul\":6194:6216   */\n      swap1\n      pop\n        /* \"#utility.yul\":6109:6223   */\n      swap2\n      swap1\n      pop\n      jump\t// out\n        /* \"#utility.yul\":6229:6413   */\n    tag_78:\n        /* \"#utility.yul\":6328:6339   */\n      0x00\n        /* \"#utility.yul\":6362:6368   */\n      dup3\n        /* \"#utility.yul\":6357:6360   */\n      dup3\n        /* \"#utility.yul\":6350:6369   */\n      mstore\n        /* \"#utility.yul\":6402:6406   */\n      0x20\n        /* \"#utility.yul\":6397:6400   */\n      dup3\n        /* \"#utility.yul\":6393:6407   */\n      add\n        /* \"#utility.yul\":6378:6407   */\n      swap1\n      pop\n        /* \"#utility.yul\":6229:6413   */\n      swap3\n      swap2\n      pop\n      pop\n      jump\t// out\n        /* \"#utility.yul\":6419:6551   */\n    tag_79:\n        /* \"#utility.yul\":6486:6490   */\n      0x00\n        /* \"#utility.yul\":6509:6512   */\n      dup2\n        /* \"#utility.yul\":6501:6512   */\n      swap1\n      pop\n        /* \"#utility.yul\":6539:6543   */\n      0x20\n        /* \"#utility.yul\":6534:6537   */\n      dup3\n        /* \"#utility.yul\":6530:6544   */\n      add\n        /* \"#utility.yul\":6522:6544   */\n      swap1\n      pop\n        /* \"#utility.yul\":6419:6551   */\n      swap2\n      swap1\n      pop\n      jump\t// out\n        /* \"#utility.yul\":6557:6665   */\n    tag_80:\n        /* \"#utility.yul\":6634:6658   */\n      tag_176\n        /* \"#utility.yul\":6652:6657   */\n      dup2\n        /* \"#utility.yul\":6634:6658   */\n      tag_67\n      jump\t// in\n    tag_176:\n        /* \"#utility.yul\":6629:6632   */\n      dup3\n        /* \"#utility.yul\":6622:6659   */\n      mstore\n        /* \"#utility.yul\":6557:6665   */\n      pop\n      pop\n      jump\t// out\n        /* \"#utility.yul\":6671:6850   */\n    tag_81:\n        /* \"#utility.yul\":6740:6750   */\n      0x00\n        /* \"#utility.yul\":6761:6807   */\n      tag_178\n        /* \"#utility.yul\":6803:6806   */\n      dup4\n        /* \"#utility.yul\":6795:6801   */\n      dup4\n        /* \"#utility.yul\":6761:6807   */\n      tag_80\n      jump\t// in\n    tag_178:\n        /* \"#utility.yul\":6839:6843   */\n      0x20\n        /* \"#utility.yul\":6834:6837   */\n      dup4\n        /* \"#utility.yul\":6830:6844   */\n      add\n        /* \"#utility.yul\":6816:6844   */\n      swap1\n      pop\n        /* \"#utility.yul\":6671:6850   */\n      swap3\n      swap2\n      pop\n      pop\n      jump\t// out\n        /* \"#utility.yul\":6856:6969   */\n    tag_82:\n        /* \"#utility.yul\":6926:6930   */\n      0x00\n        /* \"#utility.yul\":6958:6962   */\n      0x20\n        /* \"#utility.yul\":6953:6956   */\n      dup3\n        /* \"#utility.yul\":6949:6963   */\n      add\n        /* \"#utility.yul\":6941:6963   */\n      swap1\n      pop\n        /* \"#utility.yul\":6856:6969   */\n      swap2\n      swap1\n      pop\n      jump\t// out\n        /* \"#utility.yul\":7005:7737   */\n    tag_83:\n        /* \"#utility.yul\":7124:7127   */\n      0x00\n        /* \"#utility.yul\":7153:7207   */\n      tag_181\n        /* \"#utility.yul\":7201:7206   */\n      dup3\n        /* \"#utility.yul\":7153:7207   */\n      tag_77\n      jump\t// in\n    tag_181:\n        /* \"#utility.yul\":7223:7309   */\n      tag_182\n        /* \"#utility.yul\":7302:7308   */\n      dup2\n        /* \"#utility.yul\":7297:7300   */\n      dup6\n        /* \"#utility.yul\":7223:7309   */\n      tag_78\n      jump\t// in\n    tag_182:\n        /* \"#utility.yul\":7216:7309   */\n      swap4\n      pop\n        /* \"#utility.yul\":7333:7389   */\n      tag_183\n        /* \"#utility.yul\":7383:7388   */\n      dup4\n        /* \"#utility.yul\":7333:7389   */\n      tag_79\n      jump\t// in\n    tag_183:\n        /* \"#utility.yul\":7412:7419   */\n      dup1\n        /* \"#utility.yul\":7443:7444   */\n      0x00\n        /* \"#utility.yul\":7428:7712   */\n    tag_184:\n        /* \"#utility.yul\":7453:7459   */\n      dup4\n        /* \"#utility.yul\":7450:7451   */\n      dup2\n        /* \"#utility.yul\":7447:7460   */\n      lt\n        /* \"#utility.yul\":7428:7712   */\n      iszero\n      tag_186\n      jumpi\n        /* \"#utility.yul\":7529:7535   */\n      dup2\n        /* \"#utility.yul\":7523:7536   */\n      mload\n        /* \"#utility.yul\":7556:7619   */\n      tag_187\n        /* \"#utility.yul\":7615:7618   */\n      dup9\n        /* \"#utility.yul\":7600:7613   */\n      dup3\n        /* \"#utility.yul\":7556:7619   */\n      tag_81\n      jump\t// in\n    tag_187:\n        /* \"#utility.yul\":7549:7619   */\n      swap8\n      pop\n        /* \"#utility.yul\":7642:7702   */\n      tag_188\n        /* \"#utility.yul\":7695:7701   */\n      dup4\n        /* \"#utility.yul\":7642:7702   */\n      tag_82\n      jump\t// in\n    tag_188:\n        /* \"#utility.yul\":7632:7702   */\n      swap3\n      pop\n        /* \"#utility.yul\":7488:7712   */\n      pop\n        /* \"#utility.yul\":7475:7476   */\n      0x01\n        /* \"#utility.yul\":7472:7473   */\n      dup2\n        /* \"#utility.yul\":7468:7477   */\n      add\n        /* \"#utility.yul\":7463:7477   */\n      swap1\n      pop\n        /* \"#utility.yul\":7428:7712   */\n      jump(tag_184)\n    tag_186:\n        /* \"#utility.yul\":7432:7446   */\n      pop\n        /* \"#utility.yul\":7728:7731   */\n      dup6\n        /* \"#utility.yul\":7721:7731   */\n      swap4\n      pop\n        /* \"#utility.yul\":7129:7737   */\n      pop\n      pop\n      pop\n        /* \"#utility.yul\":7005:7737   */\n      swap3\n      swap2\n      pop\n      pop\n      jump\t// out\n        /* \"#utility.yul\":7743:8116   */\n    tag_20:\n        /* \"#utility.yul\":7886:7890   */\n      0x00\n        /* \"#utility.yul\":7924:7926   */\n      0x20\n        /* \"#utility.yul\":7913:7922   */\n      dup3\n        /* \"#utility.yul\":7909:7927   */\n      add\n        /* \"#utility.yul\":7901:7927   */\n      swap1\n      pop\n        /* \"#utility.yul\":7973:7982   */\n      dup2\n        /* \"#utility.yul\":7967:7971   */\n      dup2\n        /* \"#utility.yul\":7963:7983   */\n      sub\n        /* \"#utility.yul\":7959:7960   */\n      0x00\n        /* \"#utility.yul\":7948:7957   */\n      dup4\n        /* \"#utility.yul\":7944:7961   */\n      add\n        /* \"#utility.yul\":7937:7984   */\n      mstore\n        /* \"#utility.yul\":8001:8109   */\n      tag_190\n        /* \"#utility.yul\":8104:8108   */\n      dup2\n        /* \"#utility.yul\":8095:8101   */\n      dup5\n        /* \"#utility.yul\":8001:8109   */\n      tag_83\n      jump\t// in\n    tag_190:\n        /* \"#utility.yul\":7993:8109   */\n      swap1\n      pop\n        /* \"#utility.yul\":7743:8116   */\n      swap3\n      swap2\n      pop\n      pop\n      jump\t// out\n        /* \"#utility.yul\":8122:8332   */\n    tag_25:\n        /* \"#utility.yul\":8209:8213   */\n      0x00\n        /* \"#utility.yul\":8247:8249   */\n      0x20\n        /* \"#utility.yul\":8236:8245   */\n      dup3\n        /* \"#utility.yul\":8232:8250   */\n      add\n        /* \"#utility.yul\":8224:8250   */\n      swap1\n      pop\n        /* \"#utility.yul\":8260:8325   */\n      tag_192\n        /* \"#utility.yul\":8322:8323   */\n      0x00\n        /* \"#utility.yul\":8311:8320   */\n      dup4\n        /* \"#utility.yul\":8307:8324   */\n      add\n        /* \"#utility.yul\":8298:8304   */\n      dup5\n        /* \"#utility.yul\":8260:8325   */\n      tag_76\n      jump\t// in\n    tag_192:\n        /* \"#utility.yul\":8122:8332   */\n      swap3\n      swap2\n      pop\n      pop\n      jump\t// out\n        /* \"#utility.yul\":8338:8507   */\n    tag_84:\n        /* \"#utility.yul\":8478:8499   */\n      0x416c726561647920726567697374657265642e00000000000000000000000000\n        /* \"#utility.yul\":8474:8475   */\n      0x00\n        /* \"#utility.yul\":8466:8472   */\n      dup3\n        /* \"#utility.yul\":8462:8476   */\n      add\n        /* \"#utility.yul\":8455:8500   */\n      mstore\n        /* \"#utility.yul\":8338:8507   */\n      pop\n      jump\t// out\n        /* \"#utility.yul\":8513:8879   */\n    tag_85:\n        /* \"#utility.yul\":8655:8658   */\n      0x00\n        /* \"#utility.yul\":8676:8743   */\n      tag_195\n        /* \"#utility.yul\":8740:8742   */\n      0x13\n        /* \"#utility.yul\":8735:8738   */\n      dup4\n        /* \"#utility.yul\":8676:8743   */\n      tag_71\n      jump\t// in\n    tag_195:\n        /* \"#utility.yul\":8669:8743   */\n      swap2\n      pop\n        /* \"#utility.yul\":8752:8845   */\n      tag_196\n        /* \"#utility.yul\":8841:8844   */\n      dup3\n        /* \"#utility.yul\":8752:8845   */\n      tag_84\n      jump\t// in\n    tag_196:\n        /* \"#utility.yul\":8870:8872   */\n      0x20\n        /* \"#utility.yul\":8865:8868   */\n      dup3\n        /* \"#utility.yul\":8861:8873   */\n      add\n        /* \"#utility.yul\":8854:8873   */\n      swap1\n      pop\n        /* \"#utility.yul\":8513:8879   */\n      swap2\n      swap1\n      pop\n      jump\t// out\n        /* \"#utility.yul\":8885:9304   */\n    tag_29:\n        /* \"#utility.yul\":9051:9055   */\n      0x00\n        /* \"#utility.yul\":9089:9091   */\n      0x20\n        /* \"#utility.yul\":9078:9087   */\n      dup3\n        /* \"#utility.yul\":9074:9092   */\n      add\n        /* \"#utility.yul\":9066:9092   */\n      swap1\n      pop\n        /* \"#utility.yul\":9138:9147   */\n      dup2\n        /* \"#utility.yul\":9132:9136   */\n      dup2\n        /* \"#utility.yul\":9128:9148   */\n      sub\n        /* \"#utility.yul\":9124:9125   */\n      0x00\n        /* \"#utility.yul\":9113:9122   */\n      dup4\n        /* \"#utility.yul\":9109:9126   */\n      add\n        /* \"#utility.yul\":9102:9149   */\n      mstore\n        /* \"#utility.yul\":9166:9297   */\n      tag_198\n        /* \"#utility.yul\":9292:9296   */\n      dup2\n        /* \"#utility.yul\":9166:9297   */\n      tag_85\n      jump\t// in\n    tag_198:\n        /* \"#utility.yul\":9158:9297   */\n      swap1\n      pop\n        /* \"#utility.yul\":8885:9304   */\n      swap2\n      swap1\n      pop\n      jump\t// out\n        /* \"#utility.yul\":9310:9490   */\n    tag_86:\n        /* \"#utility.yul\":9358:9435   */\n      0x4e487b7100000000000000000000000000000000000000000000000000000000\n        /* \"#utility.yul\":9355:9356   */\n      0x00\n        /* \"#utility.yul\":9348:9436   */\n      mstore\n        /* \"#utility.yul\":9455:9459   */\n      0x22\n        /* \"#utility.yul\":9452:9453   */\n      0x04\n        /* \"#utility.yul\":9445:9460   */\n      mstore\n        /* \"#utility.yul\":9479:9483   */\n      0x24\n        /* \"#utility.yul\":9476:9477   */\n      0x00\n        /* \"#utility.yul\":9469:9484   */\n      revert\n        /* \"#utility.yul\":9496:9816   */\n    tag_39:\n        /* \"#utility.yul\":9540:9546   */\n      0x00\n        /* \"#utility.yul\":9577:9578   */\n      0x02\n        /* \"#utility.yul\":9571:9575   */\n      dup3\n        /* \"#utility.yul\":9567:9579   */\n      div\n        /* \"#utility.yul\":9557:9579   */\n      swap1\n      pop\n        /* \"#utility.yul\":9624:9625   */\n      0x01\n        /* \"#utility.yul\":9618:9622   */\n      dup3\n        /* \"#utility.yul\":9614:9626   */\n      and\n        /* \"#utility.yul\":9645:9663   */\n      dup1\n        /* \"#utility.yul\":9635:9716   */\n      tag_201\n      jumpi\n        /* \"#utility.yul\":9701:9705   */\n      0x7f\n        /* \"#utility.yul\":9693:9699   */\n      dup3\n        /* \"#utility.yul\":9689:9706   */\n      and\n        /* \"#utility.yul\":9679:9706   */\n      swap2\n      pop\n        /* \"#utility.yul\":9635:9716   */\n    tag_201:\n        /* \"#utility.yul\":9763:9765   */\n      0x20\n        /* \"#utility.yul\":9755:9761   */\n      dup3\n        /* \"#utility.yul\":9752:9766   */\n      lt\n        /* \"#utility.yul\":9732:9750   */\n      dup2\n        /* \"#utility.yul\":9729:9767   */\n      sub\n        /* \"#utility.yul\":9726:9810   */\n      tag_202\n      jumpi\n        /* \"#utility.yul\":9782:9800   */\n      tag_203\n      tag_86\n      jump\t// in\n    tag_203:\n        /* \"#utility.yul\":9726:9810   */\n    tag_202:\n        /* \"#utility.yul\":9547:9816   */\n      pop\n        /* \"#utility.yul\":9496:9816   */\n      swap2\n      swap1\n      pop\n      jump\t// out\n        /* \"#utility.yul\":9822:9963   */\n    tag_87:\n        /* \"#utility.yul\":9871:9875   */\n      0x00\n        /* \"#utility.yul\":9894:9897   */\n      dup2\n        /* \"#utility.yul\":9886:9897   */\n      swap1\n      pop\n        /* \"#utility.yul\":9917:9920   */\n      dup2\n        /* \"#utility.yul\":9914:9915   */\n      0x00\n        /* \"#utility.yul\":9907:9921   */\n      mstore\n        /* \"#utility.yul\":9951:9955   */\n      0x20\n        /* \"#utility.yul\":9948:9949   */\n      0x00\n        /* \"#utility.yul\":9938:9956   */\n      keccak256\n        /* \"#utility.yul\":9930:9956   */\n      swap1\n      pop\n        /* \"#utility.yul\":9822:9963   */\n      swap2\n      swap1\n      pop\n      jump\t// out\n        /* \"#utility.yul\":9969:10062   */\n    tag_88:\n        /* \"#utility.yul\":10006:10012   */\n      0x00\n        /* \"#utility.yul\":10053:10055   */\n      0x20\n        /* \"#utility.yul\":10048:10050   */\n      0x1f\n        /* \"#utility.yul\":10041:10046   */\n      dup4\n        /* \"#utility.yul\":10037:10051   */\n      add\n        /* \"#utility.yul\":10033:10056   */\n      div\n        /* \"#utility.yul\":10023:10056   */\n      swap1\n      pop\n        /* \"#utility.yul\":9969:10062   */\n      swap2\n      swap1\n      pop\n      jump\t// out\n        /* \"#utility.yul\":10068:10175   */\n    tag_89:\n        /* \"#utility.yul\":10112:10120   */\n      0x00\n        /* \"#utility.yul\":10162:10167   */\n      dup3\n        /* \"#utility.yul\":10156:10160   */\n      dup3\n        /* \"#utility.yul\":10152:10168   */\n      shl\n        /* \"#utility.yul\":10131:10168   */\n      swap1\n      pop\n        /* \"#utility.yul\":10068:10175   */\n      swap3\n      swap2\n      pop\n      pop\n      jump\t// out\n        /* \"#utility.yul\":10181:10574   */\n    tag_90:\n        /* \"#utility.yul\":10250:10256   */\n      0x00\n        /* \"#utility.yul\":10300:10301   */\n      0x08\n        /* \"#utility.yul\":10288:10298   */\n      dup4\n        /* \"#utility.yul\":10284:10302   */\n      mul\n        /* \"#utility.yul\":10323:10420   */\n      tag_208\n        /* \"#utility.yul\":10353:10419   */\n      0xffffffffffffffffffffffffffffffffffffffffffffffffffffffffffffffff\n        /* \"#utility.yul\":10342:10351   */\n      dup3\n        /* \"#utility.yul\":10323:10420   */\n      tag_89\n      jump\t// in\n    tag_208:\n        /* \"#utility.yul\":10441:10480   */\n      tag_209\n        /* \"#utility.yul\":10471:10479   */\n      dup7\n        /* \"#utility.yul\":10460:10469   */\n      dup4\n        /* \"#utility.yul\":10441:10480   */\n      tag_89\n      jump\t// in\n    tag_209:\n        /* \"#utility.yul\":10429:10480   */\n      swap6\n      pop\n        /* \"#utility.yul\":10513:10517   */\n      dup1\n        /* \"#utility.yul\":10509:10518   */\n      not\n        /* \"#utility.yul\":10502:10507   */\n      dup5\n        /* \"#utility.yul\":10498:10519   */\n      and\n        /* \"#utility.yul\":10489:10519   */\n      swap4\n      pop\n        /* \"#utility.yul\":10562:10566   */\n      dup1\n        /* \"#utility.yul\":10552:10560   */\n      dup7\n        /* \"#utility.yul\":10548:10567   */\n      and\n        /* \"#utility.yul\":10541:10546   */\n      dup5\n        /* \"#utility.yul\":10538:10568   */\n      or\n        /* \"#utility.yul\":10528:10568   */\n      swap3\n      pop\n        /* \"#utility.yul\":10257:10574   */\n      pop\n      pop\n        /* \"#utility.yul\":10181:10574   */\n      swap4\n      swap3\n      pop\n      pop\n      pop\n      jump\t// out\n        /* \"#utility.yul\":10580:10657   */\n    tag_91:\n        /* \"#utility.yul\":10617:10624   */\n      0x00\n        /* \"#utility.yul\":10646:10651   */\n      dup2\n        /* \"#utility.yul\":10635:10651   */\n      swap1\n      pop\n        /* \"#utility.yul\":10580:10657   */\n      swap2\n      swap1\n      pop\n      jump\t// out\n        /* \"#utility.yul\":10663:10723   */\n    tag_92:\n        /* \"#utility.yul\":10691:10694   */\n      0x00\n        /* \"#utility.yul\":10712:10717   */\n      dup2\n        /* \"#utility.yul\":10705:10717   */\n      swap1\n      pop\n        /* \"#utility.yul\":10663:10723   */\n      swap2\n      swap1\n      pop\n      jump\t// out\n        /* \"#utility.yul\":10729:10871   */\n    tag_93:\n        /* \"#utility.yul\":10779:10788   */\n      0x00\n        /* \"#utility.yul\":10812:10865   */\n      tag_213\n        /* \"#utility.yul\":10830:10864   */\n      tag_214\n        /* \"#utility.yul\":10839:10863   */\n      tag_215\n        /* \"#utility.yul\":10857:10862   */\n      dup5\n        /* \"#utility.yul\":10839:10863   */\n      tag_91\n      jump\t// in\n    tag_215:\n        /* \"#utility.yul\":10830:10864   */\n      tag_92\n      jump\t// in\n    tag_214:\n        /* \"#utility.yul\":10812:10865   */\n      tag_91\n      jump\t// in\n    tag_213:\n        /* \"#utility.yul\":10799:10865   */\n      swap1\n      pop\n        /* \"#utility.yul\":10729:10871   */\n      swap2\n      swap1\n      pop\n      jump\t// out\n        /* \"#utility.yul\":10877:10952   */\n    tag_94:\n        /* \"#utility.yul\":10920:10923   */\n      0x00\n        /* \"#utility.yul\":10941:10946   */\n      dup2\n        /* \"#utility.yul\":10934:10946   */\n      swap1\n      pop\n        /* \"#utility.yul\":10877:10952   */\n      swap2\n      swap1\n      pop\n      jump\t// out\n        /* \"#utility.yul\":10958:11227   */\n    tag_95:\n        /* \"#utility.yul\":11068:11107   */\n      tag_218\n        /* \"#utility.yul\":11099:11106   */\n      dup4\n        /* \"#utility.yul\":11068:11107   */\n      tag_93\n      jump\t// in\n    tag_218:\n        /* \"#utility.yul\":11129:11220   */\n      tag_219\n        /* \"#utility.yul\":11178:11219   */\n      tag_220\n        /* \"#utility.yul\":11202:11218   */\n      dup3\n        /* \"#utility.yul\":11178:11219   */\n      tag_94\n      jump\t// in\n    tag_220:\n        /* \"#utility.yul\":11170:11176   */\n      dup5\n        /* \"#utility.yul\":11163:11167   */\n      dup5\n        /* \"#utility.yul\":11157:11168   */\n      sload\n        /* \"#utility.yul\":11129:11220   */\n      tag_90\n      jump\t// in\n    tag_219:\n        /* \"#utility.yul\":11123:11127   */\n      dup3\n        /* \"#utility.yul\":11116:11221   */\n      sstore\n        /* \"#utility.yul\":11034:11227   */\n      pop\n        /* \"#utility.yul\":10958:11227   */\n      pop\n      pop\n      pop\n      jump\t// out\n        /* \"#utility.yul\":11233:11306   */\n    tag_96:\n        /* \"#utility.yul\":11278:11281   */\n      0x00\n        /* \"#utility.yul\":11299:11300   */\n      0x00\n        /* \"#utility.yul\":11292:11300   */\n      swap1\n      pop\n        /* \"#utility.yul\":11233:11306   */\n      swap1\n      jump\t// out\n        /* \"#utility.yul\":11312:11501   */\n    tag_97:\n        /* \"#utility.yul\":11389:11421   */\n      tag_223\n      tag_96\n      jump\t// in\n    tag_223:\n        /* \"#utility.yul\":11430:11495   */\n      tag_224\n        /* \"#utility.yul\":11488:11494   */\n      dup2\n        /* \"#utility.yul\":11480:11486   */\n      dup5\n        /* \"#utility.yul\":11474:11478   */\n      dup5\n        /* \"#utility.yul\":11430:11495   */\n      tag_95\n      jump\t// in\n    tag_224:\n        /* \"#utility.yul\":11365:11501   */\n      pop\n        /* \"#utility.yul\":11312:11501   */\n      pop\n      pop\n      jump\t// out\n        /* \"#utility.yul\":11507:11693   */\n    tag_98:\n        /* \"#utility.yul\":11567:11687   */\n    tag_226:\n        /* \"#utility.yul\":11584:11587   */\n      dup2\n        /* \"#utility.yul\":11577:11582   */\n      dup2\n        /* \"#utility.yul\":11574:11588   */\n      lt\n        /* \"#utility.yul\":11567:11687   */\n      iszero\n      tag_228\n      jumpi\n        /* \"#utility.yul\":11638:11677   */\n      tag_229\n        /* \"#utility.yul\":11675:11676   */\n      0x00\n        /* \"#utility.yul\":11668:11673   */\n      dup3\n        /* \"#utility.yul\":11638:11677   */\n      tag_97\n      jump\t// in\n    tag_229:\n        /* \"#utility.yul\":11611:11612   */\n      0x01\n        /* \"#utility.yul\":11604:11609   */\n      dup2\n        /* \"#utility.yul\":11600:11613   */\n      add\n        /* \"#utility.yul\":11591:11613   */\n      swap1\n      pop\n        /* \"#utility.yul\":11567:11687   */\n      jump(tag_226)\n    tag_228:\n        /* \"#utility.yul\":11507:11693   */\n      pop\n      pop\n      jump\t// out\n        /* \"#utility.yul\":11699:12242   */\n    tag_99:\n        /* \"#utility.yul\":11800:11802   */\n      0x1f\n        /* \"#utility.yul\":11795:11798   */\n      dup3\n        /* \"#utility.yul\":11792:11803   */\n      gt\n        /* \"#utility.yul\":11789:12235   */\n      iszero\n      tag_231\n      jumpi\n        /* \"#utility.yul\":11834:11872   */\n      tag_232\n        /* \"#utility.yul\":11866:11871   */\n      dup2\n        /* \"#utility.yul\":11834:11872   */\n      tag_87\n      jump\t// in\n    tag_232:\n        /* \"#utility.yul\":11918:11947   */\n      tag_233\n        /* \"#utility.yul\":11936:11946   */\n      dup5\n        /* \"#utility.yul\":11918:11947   */\n      tag_88\n      jump\t// in\n    tag_233:\n        /* \"#utility.yul\":11908:11916   */\n      dup2\n        /* \"#utility.yul\":11904:11948   */\n      add\n        /* \"#utility.yul\":12101:12103   */\n      0x20\n        /* \"#utility.yul\":12089:12099   */\n      dup6\n        /* \"#utility.yul\":12086:12104   */\n      lt\n        /* \"#utility.yul\":12083:12132   */\n      iszero\n      tag_234\n      jumpi\n        /* \"#utility.yul\":12122:12130   */\n      dup2\n        /* \"#utility.yul\":12107:12130   */\n      swap1\n      pop\n        /* \"#utility.yul\":12083:12132   */\n    tag_234:\n        /* \"#utility.yul\":12145:12225   */\n      tag_235\n        /* \"#utility.yul\":12201:12223   */\n      tag_236\n        /* \"#utility.yul\":12219:12222   */\n      dup6\n        /* \"#utility.yul\":12201:12223   */\n      tag_88\n      jump\t// in\n    tag_236:\n        /* \"#utility.yul\":12191:12199   */\n      dup4\n        /* \"#utility.yul\":12187:12224   */\n      add\n        /* \"#utility.yul\":12174:12185   */\n      dup3\n        /* \"#utility.yul\":12145:12225   */\n      tag_98\n      jump\t// in\n    tag_235:\n        /* \"#utility.yul\":11804:12235   */\n      pop\n      pop\n        /* \"#utility.yul\":11789:12235   */\n    tag_231:\n        /* \"#utility.yul\":11699:12242   */\n      pop\n      pop\n      pop\n      jump\t// out\n        /* \"#utility.yul\":12248:12365   */\n    tag_100:\n        /* \"#utility.yul\":12302:12310   */\n      0x00\n        /* \"#utility.yul\":12352:12357   */\n      dup3\n        /* \"#utility.yul\":12346:12350   */\n      dup3\n        /* \"#utility.yul\":12342:12358   */\n      shr\n        /* \"#utility.yul\":12321:12358   */\n      swap1\n      pop\n        /* \"#utility.yul\":12248:12365   */\n      swap3\n      swap2\n      pop\n      pop\n      jump\t// out\n        /* \"#utility.yul\":12371:12540   */\n    tag_101:\n        /* \"#utility.yul\":12415:12421   */\n      0x00\n        /* \"#utility.yul\":12448:12499   */\n      tag_239\n        /* \"#utility.yul\":12496:12497   */\n      0x00\n        /* \"#utility.yul\":12492:12498   */\n      not\n        /* \"#utility.yul\":12484:12489   */\n      dup5\n        /* \"#utility.yul\":12481:12482   */\n      0x08\n        /* \"#utility.yul\":12477:12490   */\n      mul\n        /* \"#utility.yul\":12448:12499   */\n      tag_100\n      jump\t// in\n    tag_239:\n        /* \"#utility.yul\":12444:12500   */\n      not\n        /* \"#utility.yul\":12529:12533   */\n      dup1\n        /* \"#utility.yul\":12523:12527   */\n      dup4\n        /* \"#utility.yul\":12519:12534   */\n      and\n        /* \"#utility.yul\":12509:12534   */\n      swap2\n      pop\n        /* \"#utility.yul\":12422:12540   */\n      pop\n        /* \"#utility.yul\":12371:12540   */\n      swap3\n      swap2\n      pop\n      pop\n      jump\t// out\n        /* \"#utility.yul\":12545:12840   */\n    tag_102:\n        /* \"#utility.yul\":12621:12625   */\n      0x00\n        /* \"#utility.yul\":12767:12796   */\n      tag_241\n        /* \"#utility.yul\":12792:12795   */\n      dup4\n        /* \"#utility.yul\":12786:12790   */\n      dup4\n        /* \"#utility.yul\":12767:12796   */\n      tag_101\n      jump\t// in\n    tag_241:\n        /* \"#utility.yul\":12759:12796   */\n      swap2\n      pop\n        /* \"#utility.yul\":12829:12832   */\n      dup3\n        /* \"#utility.yul\":12826:12827   */\n      0x02\n        /* \"#utility.yul\":12822:12833   */\n      mul\n        /* \"#utility.yul\":12816:12820   */\n      dup3\n        /* \"#utility.yul\":12813:12834   */\n      or\n        /* \"#utility.yul\":12805:12834   */\n      swap1\n      pop\n        /* \"#utility.yul\":12545:12840   */\n      swap3\n      swap2\n      pop\n      pop\n      jump\t// out\n        /* \"#utility.yul\":12845:14240   */\n    tag_32:\n        /* \"#utility.yul\":12962:12999   */\n      tag_243\n        /* \"#utility.yul\":12995:12998   */\n      dup3\n        /* \"#utility.yul\":12962:12999   */\n      tag_70\n      jump\t// in\n    tag_243:\n        /* \"#utility.yul\":13064:13082   */\n      0xffffffffffffffff\n        /* \"#utility.yul\":13056:13062   */\n      dup2\n        /* \"#utility.yul\":13053:13083   */\n      gt\n        /* \"#utility.yul\":13050:13106   */\n      iszero\n      tag_244\n      jumpi\n        /* \"#utility.yul\":13086:13104   */\n      tag_245\n      tag_59\n      jump\t// in\n    tag_245:\n        /* \"#utility.yul\":13050:13106   */\n    tag_244:\n        /* \"#utility.yul\":13130:13168   */\n      tag_246\n        /* \"#utility.yul\":13162:13166   */\n      dup3\n        /* \"#utility.yul\":13156:13167   */\n      sload\n        /* \"#utility.yul\":13130:13168   */\n      tag_39\n      jump\t// in\n    tag_246:\n        /* \"#utility.yul\":13215:13282   */\n      tag_247\n        /* \"#utility.yul\":13275:13281   */\n      dup3\n        /* \"#utility.yul\":13267:13273   */\n      dup3\n        /* \"#utility.yul\":13261:13265   */\n      dup6\n        /* \"#utility.yul\":13215:13282   */\n      tag_99\n      jump\t// in\n    tag_247:\n        /* \"#utility.yul\":13309:13310   */\n      0x00\n        /* \"#utility.yul\":13333:13337   */\n      0x20\n        /* \"#utility.yul\":13320:13337   */\n      swap1\n      pop\n        /* \"#utility.yul\":13365:13367   */\n      0x1f\n        /* \"#utility.yul\":13357:13363   */\n      dup4\n        /* \"#utility.yul\":13354:13368   */\n      gt\n        /* \"#utility.yul\":13382:13383   */\n      0x01\n        /* \"#utility.yul\":13377:13995   */\n      dup2\n      eq\n      tag_249\n      jumpi\n        /* \"#utility.yul\":14039:14040   */\n      0x00\n        /* \"#utility.yul\":14056:14062   */\n      dup5\n        /* \"#utility.yul\":14053:14130   */\n      iszero\n      tag_250\n      jumpi\n        /* \"#utility.yul\":14105:14114   */\n      dup3\n        /* \"#utility.yul\":14100:14103   */\n      dup8\n        /* \"#utility.yul\":14096:14115   */\n      add\n        /* \"#utility.yul\":14090:14116   */\n      mload\n        /* \"#utility.yul\":14081:14116   */\n      swap1\n      pop\n        /* \"#utility.yul\":14053:14130   */\n    tag_250:\n        /* \"#utility.yul\":14156:14223   */\n      tag_251\n        /* \"#utility.yul\":14216:14222   */\n      dup6\n        /* \"#utility.yul\":14209:14214   */\n      dup3\n        /* \"#utility.yul\":14156:14223   */\n      tag_102\n      jump\t// in\n    tag_251:\n        /* \"#utility.yul\":14150:14154   */\n      dup7\n        /* \"#utility.yul\":14143:14224   */\n      sstore\n        /* \"#utility.yul\":14012:14234   */\n      pop\n        /* \"#utility.yul\":13347:14234   */\n      jump(tag_248)\n        /* \"#utility.yul\":13377:13995   */\n    tag_249:\n        /* \"#utility.yul\":13429:13433   */\n      0x1f\n        /* \"#utility.yul\":13425:13434   */\n      not\n        /* \"#utility.yul\":13417:13423   */\n      dup5\n        /* \"#utility.yul\":13413:13435   */\n      and\n        /* \"#utility.yul\":13463:13500   */\n      tag_252\n        /* \"#utility.yul\":13495:13499   */\n      dup7\n        /* \"#utility.yul\":13463:13500   */\n      tag_87\n      jump\t// in\n    tag_252:\n        /* \"#utility.yul\":13522:13523   */\n      0x00\n        /* \"#utility.yul\":13536:13744   */\n    tag_253:\n        /* \"#utility.yul\":13550:13557   */\n      dup3\n        /* \"#utility.yul\":13547:13548   */\n      dup2\n        /* \"#utility.yul\":13544:13558   */\n      lt\n        /* \"#utility.yul\":13536:13744   */\n      iszero\n      tag_255\n      jumpi\n        /* \"#utility.yul\":13629:13638   */\n      dup5\n        /* \"#utility.yul\":13624:13627   */\n      dup10\n        /* \"#utility.yul\":13620:13639   */\n      add\n        /* \"#utility.yul\":13614:13640   */\n      mload\n        /* \"#utility.yul\":13606:13612   */\n      dup3\n        /* \"#utility.yul\":13599:13641   */\n      sstore\n        /* \"#utility.yul\":13680:13681   */\n      0x01\n        /* \"#utility.yul\":13672:13678   */\n      dup3\n        /* \"#utility.yul\":13668:13682   */\n      add\n        /* \"#utility.yul\":13658:13682   */\n      swap2\n      pop\n        /* \"#utility.yul\":13727:13729   */\n      0x20\n        /* \"#utility.yul\":13716:13725   */\n      dup6\n        /* \"#utility.yul\":13712:13730   */\n      add\n        /* \"#utility.yul\":13699:13730   */\n      swap5\n      pop\n        /* \"#utility.yul\":13573:13577   */\n      0x20\n        /* \"#utility.yul\":13570:13571   */\n      dup2\n        /* \"#utility.yul\":13566:13578   */\n      add\n        /* \"#utility.yul\":13561:13578   */\n      swap1\n      pop\n        /* \"#utility.yul\":13536:13744   */\n      jump(tag_253)\n    tag_255:\n        /* \"#utility.yul\":13772:13778   */\n      dup7\n        /* \"#utility.yul\":13763:13770   */\n      dup4\n        /* \"#utility.yul\":13760:13779   */\n      lt\n        /* \"#utility.yul\":13757:13936   */\n      iszero\n      tag_256\n      jumpi\n        /* \"#utility.yul\":13830:13839   */\n      dup5\n        /* \"#utility.yul\":13825:13828   */\n      dup10\n        /* \"#utility.yul\":13821:13840   */\n      add\n        /* \"#utility.yul\":13815:13841   */\n      mload\n        /* \"#utility.yul\":13873:13921   */\n      tag_257\n        /* \"#utility.yul\":13915:13919   */\n      0x1f\n        /* \"#utility.yul\":13907:13913   */\n      dup10\n        /* \"#utility.yul\":13903:13920   */\n      and\n        /* \"#utility.yul\":13892:13901   */\n      dup3\n        /* \"#utility.yul\":13873:13921   */\n      tag_101\n      jump\t// in\n    tag_257:\n        /* \"#utility.yul\":13865:13871   */\n      dup4\n        /* \"#utility.yul\":13858:13922   */\n      sstore\n        /* \"#utility.yul\":13780:13936   */\n      pop\n        /* \"#utility.yul\":13757:13936   */\n    tag_256:\n        /* \"#utility.yul\":13982:13983   */\n      0x01\n        /* \"#utility.yul\":13978:13979   */\n      0x02\n        /* \"#utility.yul\":13970:13976   */\n      dup9\n        /* \"#utility.yul\":13966:13980   */\n      mul\n        /* \"#utility.yul\":13962:13984   */\n      add\n        /* \"#utility.yul\":13956:13960   */\n      dup9\n        /* \"#utility.yul\":13949:13985   */\n      sstore\n        /* \"#utility.yul\":13384:13995   */\n      pop\n      pop\n      pop\n        /* \"#utility.yul\":13347:14234   */\n    tag_248:\n      pop\n        /* \"#utility.yul\":12937:14240   */\n      pop\n      pop\n      pop\n        /* \"#utility.yul\":12845:14240   */\n      pop\n      pop\n      jump\t// out\n        /* \"#utility.yul\":14246:14760   */\n    tag_36:\n        /* \"#utility.yul\":14407:14411   */\n      0x00\n        /* \"#utility.yul\":14445:14447   */\n      0x40\n        /* \"#utility.yul\":14434:14443   */\n      dup3\n        /* \"#utility.yul\":14430:14448   */\n      add\n        /* \"#utility.yul\":14422:14448   */\n      swap1\n      pop\n        /* \"#utility.yul\":14494:14503   */\n      dup2\n        /* \"#utility.yul\":14488:14492   */\n      dup2\n        /* \"#utility.yul\":14484:14504   */\n      sub\n        /* \"#utility.yul\":14480:14481   */\n      0x00\n        /* \"#utility.yul\":14469:14478   */\n      dup4\n        /* \"#utility.yul\":14465:14482   */\n      add\n        /* \"#utility.yul\":14458:14505   */\n      mstore\n        /* \"#utility.yul\":14522:14600   */\n      tag_259\n        /* \"#utility.yul\":14595:14599   */\n      dup2\n        /* \"#utility.yul\":14586:14592   */\n      dup6\n        /* \"#utility.yul\":14522:14600   */\n      tag_73\n      jump\t// in\n    tag_259:\n        /* \"#utility.yul\":14514:14600   */\n      swap1\n      pop\n        /* \"#utility.yul\":14647:14656   */\n      dup2\n        /* \"#utility.yul\":14641:14645   */\n      dup2\n        /* \"#utility.yul\":14637:14657   */\n      sub\n        /* \"#utility.yul\":14632:14634   */\n      0x20\n        /* \"#utility.yul\":14621:14630   */\n      dup4\n        /* \"#utility.yul\":14617:14635   */\n      add\n        /* \"#utility.yul\":14610:14658   */\n      mstore\n        /* \"#utility.yul\":14675:14753   */\n      tag_260\n        /* \"#utility.yul\":14748:14752   */\n      dup2\n        /* \"#utility.yul\":14739:14745   */\n      dup5\n        /* \"#utility.yul\":14675:14753   */\n      tag_73\n      jump\t// in\n    tag_260:\n        /* \"#utility.yul\":14667:14753   */\n      swap1\n      pop\n        /* \"#utility.yul\":14246:14760   */\n      swap4\n      swap3\n      pop\n      pop\n      pop\n      jump\t// out\n\n    auxdata: 0xa2646970667358221220b7896a19f2af466818800b23e909e47595c4d4b49e7c5fdc9d428d172fa292c464736f6c634300081e0033\n}\n",
				"bytecode": {
					"linkReferences": {},
					"object": "6080604052348015600e575f5ffd5b50610dd08061001c5f395ff3fe608060405234801561000f575f5ffd5b506004361061004a575f3560e01c80632ff197801461004e57806375894e8c1461006a5780637e69dae01461009d578063c3c5a547146100bb575b5f5ffd5b61006860048036038101906100639190610763565b6100eb565b005b610084600480360381019061007f9190610833565b610335565b60405161009494939291906108e7565b60405180910390f35b6100a5610536565b6040516100b291906109ef565b60405180910390f35b6100d560048036038101906100d09190610833565b6105c1565b6040516100e29190610a0f565b60405180910390f35b5f5f3373ffffffffffffffffffffffffffffffffffffffff1673ffffffffffffffffffffffffffffffffffffffff1681526020019081526020015f2060020160149054906101000a900460ff1615610178576040517f08c379a000000000000000000000000000000000000000000000000000000000815260040161016f90610a72565b60405180910390fd5b60405180608001604052808381526020018281526020013373ffffffffffffffffffffffffffffffffffffffff168152602001600115158152505f5f3373ffffffffffffffffffffffffffffffffffffffff1673ffffffffffffffffffffffffffffffffffffffff1681526020019081526020015f205f820151815f0190816102019190610c96565b5060208201518160010190816102179190610c96565b506040820151816002015f6101000a81548173ffffffffffffffffffffffffffffffffffffffff021916908373ffffffffffffffffffffffffffffffffffffffff16021790555060608201518160020160146101000a81548160ff021916908315150217905550905050600133908060018154018082558091505060019003905f5260205f20015f9091909190916101000a81548173ffffffffffffffffffffffffffffffffffffffff021916908373ffffffffffffffffffffffffffffffffffffffff1602179055503373ffffffffffffffffffffffffffffffffffffffff167fb7218c8f53a2510b44c6ae2c8bc4ad68abecd93526d50d88bd472e70bf81fcca8383604051610329929190610d65565b60405180910390a25050565b6060805f5f5f5f5f8773ffffffffffffffffffffffffffffffffffffffff1673ffffffffffffffffffffffffffffffffffffffff1681526020019081526020015f206040518060800160405290815f8201805461039190610abd565b80601f01602080910402602001604051908101604052809291908181526020018280546103bd90610abd565b80156104085780601f106103df57610100808354040283529160200191610408565b820191905f5260205f20905b8154815290600101906020018083116103eb57829003601f168201915b5050505050815260200160018201805461042190610abd565b80601f016020809104026020016040519081016040528092919081815260200182805461044d90610abd565b80156104985780601f1061046f57610100808354040283529160200191610498565b820191905f5260205f20905b81548152906001019060200180831161047b57829003601f168201915b50505050508152602001600282015f9054906101000a900473ffffffffffffffffffffffffffffffffffffffff1673ffffffffffffffffffffffffffffffffffffffff1673ffffffffffffffffffffffffffffffffffffffff1681526020016002820160149054906101000a900460ff1615151515815250509050805f01518160200151826040015183606001519450945094509450509193509193565b606060018054806020026020016040519081016040528092919081815260200182805480156105b757602002820191905f5260205f20905b815f9054906101000a900473ffffffffffffffffffffffffffffffffffffffff1673ffffffffffffffffffffffffffffffffffffffff168152602001906001019080831161056e575b5050505050905090565b5f5f5f8373ffffffffffffffffffffffffffffffffffffffff1673ffffffffffffffffffffffffffffffffffffffff1681526020019081526020015f2060020160149054906101000a900460ff169050919050565b5f604051905090565b5f5ffd5b5f5ffd5b5f5ffd5b5f5ffd5b5f601f19601f8301169050919050565b7f4e487b71000000000000000000000000000000000000000000000000000000005f52604160045260245ffd5b6106758261062f565b810181811067ffffffffffffffff821117156106945761069361063f565b5b80604052505050565b5f6106a6610616565b90506106b2828261066c565b919050565b5f67ffffffffffffffff8211156106d1576106d061063f565b5b6106da8261062f565b9050602081019050919050565b828183375f83830152505050565b5f610707610702846106b7565b61069d565b9050828152602081018484840111156107235761072261062b565b5b61072e8482856106e7565b509392505050565b5f82601f83011261074a57610749610627565b5b813561075a8482602086016106f5565b91505092915050565b5f5f604083850312156107795761077861061f565b5b5f83013567ffffffffffffffff81111561079657610795610623565b5b6107a285828601610736565b925050602083013567ffffffffffffffff8111156107c3576107c2610623565b5b6107cf85828601610736565b9150509250929050565b5f73ffffffffffffffffffffffffffffffffffffffff82169050919050565b5f610802826107d9565b9050919050565b610812816107f8565b811461081c575f5ffd5b50565b5f8135905061082d81610809565b92915050565b5f602082840312156108485761084761061f565b5b5f6108558482850161081f565b91505092915050565b5f81519050919050565b5f82825260208201905092915050565b8281835e5f83830152505050565b5f6108908261085e565b61089a8185610868565b93506108aa818560208601610878565b6108b38161062f565b840191505092915050565b6108c7816107f8565b82525050565b5f8115159050919050565b6108e1816108cd565b82525050565b5f6080820190508181035f8301526108ff8187610886565b905081810360208301526109138186610886565b905061092260408301856108be565b61092f60608301846108d8565b95945050505050565b5f81519050919050565b5f82825260208201905092915050565b5f819050602082019050919050565b61096a816107f8565b82525050565b5f61097b8383610961565b60208301905092915050565b5f602082019050919050565b5f61099d82610938565b6109a78185610942565b93506109b283610952565b805f5b838110156109e25781516109c98882610970565b97506109d483610987565b9250506001810190506109b5565b5085935050505092915050565b5f6020820190508181035f830152610a078184610993565b905092915050565b5f602082019050610a225f8301846108d8565b92915050565b7f416c726561647920726567697374657265642e000000000000000000000000005f82015250565b5f610a5c601383610868565b9150610a6782610a28565b602082019050919050565b5f6020820190508181035f830152610a8981610a50565b9050919050565b7f4e487b71000000000000000000000000000000000000000000000000000000005f52602260045260245ffd5b5f6002820490506001821680610ad457607f821691505b602082108103610ae757610ae6610a90565b5b50919050565b5f819050815f5260205f209050919050565b5f6020601f8301049050919050565b5f82821b905092915050565b5f60088302610b497fffffffffffffffffffffffffffffffffffffffffffffffffffffffffffffffff82610b0e565b610b538683610b0e565b95508019841693508086168417925050509392505050565b5f819050919050565b5f819050919050565b5f610b97610b92610b8d84610b6b565b610b74565b610b6b565b9050919050565b5f819050919050565b610bb083610b7d565b610bc4610bbc82610b9e565b848454610b1a565b825550505050565b5f5f905090565b610bdb610bcc565b610be6818484610ba7565b505050565b5b81811015610c0957610bfe5f82610bd3565b600181019050610bec565b5050565b601f821115610c4e57610c1f81610aed565b610c2884610aff565b81016020851015610c37578190505b610c4b610c4385610aff565b830182610beb565b50505b505050565b5f82821c905092915050565b5f610c6e5f1984600802610c53565b1980831691505092915050565b5f610c868383610c5f565b9150826002028217905092915050565b610c9f8261085e565b67ffffffffffffffff811115610cb857610cb761063f565b5b610cc28254610abd565b610ccd828285610c0d565b5f60209050601f831160018114610cfe575f8415610cec578287015190505b610cf68582610c7b565b865550610d5d565b601f198416610d0c86610aed565b5f5b82811015610d3357848901518255600182019150602085019450602081019050610d0e565b86831015610d505784890151610d4c601f891682610c5f565b8355505b6001600288020188555050505b505050505050565b5f6040820190508181035f830152610d7d8185610886565b90508181036020830152610d918184610886565b9050939250505056fea2646970667358221220b7896a19f2af466818800b23e909e47595c4d4b49e7c5fdc9d428d172fa292c464736f6c634300081e0033",
					"opcodes": "PUSH1 0x80 PUSH1 0x40 MSTORE CALLVALUE DUP1 ISZERO PUSH1 0xE JUMPI PUSH0 PUSH0 REVERT JUMPDEST POP PUSH2 0xDD0 DUP1 PUSH2 0x1C PUSH0 CODECOPY PUSH0 RETURN INVALID PUSH1 0x80 PUSH1 0x40 MSTORE CALLVALUE DUP1 ISZERO PUSH2 0xF JUMPI PUSH0 PUSH0 REVERT JUMPDEST POP PUSH1 0x4 CALLDATASIZE LT PUSH2 0x4A JUMPI PUSH0 CALLDATALOAD PUSH1 0xE0 SHR DUP1 PUSH4 0x2FF19780 EQ PUSH2 0x4E JUMPI DUP1 PUSH4 0x75894E8C EQ PUSH2 0x6A JUMPI DUP1 PUSH4 0x7E69DAE0 EQ PUSH2 0x9D JUMPI DUP1 PUSH4 0xC3C5A547 EQ PUSH2 0xBB JUMPI JUMPDEST PUSH0 PUSH0 REVERT JUMPDEST PUSH2 0x68 PUSH1 0x4 DUP1 CALLDATASIZE SUB DUP2 ADD SWAP1 PUSH2 0x63 SWAP2 SWAP1 PUSH2 0x763 JUMP JUMPDEST PUSH2 0xEB JUMP JUMPDEST STOP JUMPDEST PUSH2 0x84 PUSH1 0x4 DUP1 CALLDATASIZE SUB DUP2 ADD SWAP1 PUSH2 0x7F SWAP2 SWAP1 PUSH2 0x833 JUMP JUMPDEST PUSH2 0x335 JUMP JUMPDEST PUSH1 0x40 MLOAD PUSH2 0x94 SWAP5 SWAP4 SWAP3 SWAP2 SWAP1 PUSH2 0x8E7 JUMP JUMPDEST PUSH1 0x40 MLOAD DUP1 SWAP2 SUB SWAP1 RETURN JUMPDEST PUSH2 0xA5 PUSH2 0x536 JUMP JUMPDEST PUSH1 0x40 MLOAD PUSH2 0xB2 SWAP2 SWAP1 PUSH2 0x9EF JUMP JUMPDEST PUSH1 0x40 MLOAD DUP1 SWAP2 SUB SWAP1 RETURN JUMPDEST PUSH2 0xD5 PUSH1 0x4 DUP1 CALLDATASIZE SUB DUP2 ADD SWAP1 PUSH2 0xD0 SWAP2 SWAP1 PUSH2 0x833 JUMP JUMPDEST PUSH2 0x5C1 JUMP JUMPDEST PUSH1 0x40 MLOAD PUSH2 0xE2 SWAP2 SWAP1 PUSH2 0xA0F JUMP JUMPDEST PUSH1 0x40 MLOAD DUP1 SWAP2 SUB SWAP1 RETURN JUMPDEST PUSH0 PUSH0 CALLER PUSH20 0xFFFFFFFFFFFFFFFFFFFFFFFFFFFFFFFFFFFFFFFF AND PUSH20 0xFFFFFFFFFFFFFFFFFFFFFFFFFFFFFFFFFFFFFFFF AND DUP2 MSTORE PUSH1 0x20 ADD SWAP1 DUP2 MSTORE PUSH1 0x20 ADD PUSH0 KECCAK256 PUSH1 0x2 ADD PUSH1 0x14 SWAP1 SLOAD SWAP1 PUSH2 0x100 EXP SWAP1 DIV PUSH1 0xFF AND ISZERO PUSH2 0x178 JUMPI PUSH1 0x40 MLOAD PUSH32 0x8C379A000000000000000000000000000000000000000000000000000000000 DUP2 MSTORE PUSH1 0x4 ADD PUSH2 0x16F SWAP1 PUSH2 0xA72 JUMP JUMPDEST PUSH1 0x40 MLOAD DUP1 SWAP2 SUB SWAP1 REVERT JUMPDEST PUSH1 0x40 MLOAD DUP1 PUSH1 0x80 ADD PUSH1 0x40 MSTORE DUP1 DUP4 DUP2 MSTORE PUSH1 0x20 ADD DUP3 DUP2 MSTORE PUSH1 0x20 ADD CALLER PUSH20 0xFFFFFFFFFFFFFFFFFFFFFFFFFFFFFFFFFFFFFFFF AND DUP2 MSTORE PUSH1 0x20 ADD PUSH1 0x1 ISZERO ISZERO DUP2 MSTORE POP PUSH0 PUSH0 CALLER PUSH20 0xFFFFFFFFFFFFFFFFFFFFFFFFFFFFFFFFFFFFFFFF AND PUSH20 0xFFFFFFFFFFFFFFFFFFFFFFFFFFFFFFFFFFFFFFFF AND DUP2 MSTORE PUSH1 0x20 ADD SWAP1 DUP2 MSTORE PUSH1 0x20 ADD PUSH0 KECCAK256 PUSH0 DUP3 ADD MLOAD DUP2 PUSH0 ADD SWAP1 DUP2 PUSH2 0x201 SWAP2 SWAP1 PUSH2 0xC96 JUMP JUMPDEST POP PUSH1 0x20 DUP3 ADD MLOAD DUP2 PUSH1 0x1 ADD SWAP1 DUP2 PUSH2 0x217 SWAP2 SWAP1 PUSH2 0xC96 JUMP JUMPDEST POP PUSH1 0x40 DUP3 ADD MLOAD DUP2 PUSH1 0x2 ADD PUSH0 PUSH2 0x100 EXP DUP2 SLOAD DUP2 PUSH20 0xFFFFFFFFFFFFFFFFFFFFFFFFFFFFFFFFFFFFFFFF MUL NOT AND SWAP1 DUP4 PUSH20 0xFFFFFFFFFFFFFFFFFFFFFFFFFFFFFFFFFFFFFFFF AND MUL OR SWAP1 SSTORE POP PUSH1 0x60 DUP3 ADD MLOAD DUP2 PUSH1 0x2 ADD PUSH1 0x14 PUSH2 0x100 EXP DUP2 SLOAD DUP2 PUSH1 0xFF MUL NOT AND SWAP1 DUP4 ISZERO ISZERO MUL OR SWAP1 SSTORE POP SWAP1 POP POP PUSH1 0x1 CALLER SWAP1 DUP1 PUSH1 0x1 DUP2 SLOAD ADD DUP1 DUP3 SSTORE DUP1 SWAP2 POP POP PUSH1 0x1 SWAP1 SUB SWAP1 PUSH0 MSTORE PUSH1 0x20 PUSH0 KECCAK256 ADD PUSH0 SWAP1 SWAP2 SWAP1 SWAP2 SWAP1 SWAP2 PUSH2 0x100 EXP DUP2 SLOAD DUP2 PUSH20 0xFFFFFFFFFFFFFFFFFFFFFFFFFFFFFFFFFFFFFFFF MUL NOT AND SWAP1 DUP4 PUSH20 0xFFFFFFFFFFFFFFFFFFFFFFFFFFFFFFFFFFFFFFFF AND MUL OR SWAP1 SSTORE POP CALLER PUSH20 0xFFFFFFFFFFFFFFFFFFFFFFFFFFFFFFFFFFFFFFFF AND PUSH32 0xB7218C8F53A2510B44C6AE2C8BC4AD68ABECD93526D50D88BD472E70BF81FCCA DUP4 DUP4 PUSH1 0x40 MLOAD PUSH2 0x329 SWAP3 SWAP2 SWAP1 PUSH2 0xD65 JUMP JUMPDEST PUSH1 0x40 MLOAD DUP1 SWAP2 SUB SWAP1 LOG2 POP POP JUMP JUMPDEST PUSH1 0x60 DUP1 PUSH0 PUSH0 PUSH0 PUSH0 PUSH0 DUP8 PUSH20 0xFFFFFFFFFFFFFFFFFFFFFFFFFFFFFFFFFFFFFFFF AND PUSH20 0xFFFFFFFFFFFFFFFFFFFFFFFFFFFFFFFFFFFFFFFF AND DUP2 MSTORE PUSH1 0x20 ADD SWAP1 DUP2 MSTORE PUSH1 0x20 ADD PUSH0 KECCAK256 PUSH1 0x40 MLOAD DUP1 PUSH1 0x80 ADD PUSH1 0x40 MSTORE SWAP1 DUP2 PUSH0 DUP3 ADD DUP1 SLOAD PUSH2 0x391 SWAP1 PUSH2 0xABD JUMP JUMPDEST DUP1 PUSH1 0x1F ADD PUSH1 0x20 DUP1 SWAP2 DIV MUL PUSH1 0x20 ADD PUSH1 0x40 MLOAD SWAP1 DUP2 ADD PUSH1 0x40 MSTORE DUP1 SWAP3 SWAP2 SWAP1 DUP2 DUP2 MSTORE PUSH1 0x20 ADD DUP3 DUP1 SLOAD PUSH2 0x3BD SWAP1 PUSH2 0xABD JUMP JUMPDEST DUP1 ISZERO PUSH2 0x408 JUMPI DUP1 PUSH1 0x1F LT PUSH2 0x3DF JUMPI PUSH2 0x100 DUP1 DUP4 SLOAD DIV MUL DUP4 MSTORE SWAP2 PUSH1 0x20 ADD SWAP2 PUSH2 0x408 JUMP JUMPDEST DUP3 ADD SWAP2 SWAP1 PUSH0 MSTORE PUSH1 0x20 PUSH0 KECCAK256 SWAP1 JUMPDEST DUP2 SLOAD DUP2 MSTORE SWAP1 PUSH1 0x1 ADD SWAP1 PUSH1 0x20 ADD DUP1 DUP4 GT PUSH2 0x3EB JUMPI DUP3 SWAP1 SUB PUSH1 0x1F AND DUP3 ADD SWAP2 JUMPDEST POP POP POP POP POP DUP2 MSTORE PUSH1 0x20 ADD PUSH1 0x1 DUP3 ADD DUP1 SLOAD PUSH2 0x421 SWAP1 PUSH2 0xABD JUMP JUMPDEST DUP1 PUSH1 0x1F ADD PUSH1 0x20 DUP1 SWAP2 DIV MUL PUSH1 0x20 ADD PUSH1 0x40 MLOAD SWAP1 DUP2 ADD PUSH1 0x40 MSTORE DUP1 SWAP3 SWAP2 SWAP1 DUP2 DUP2 MSTORE PUSH1 0x20 ADD DUP3 DUP1 SLOAD PUSH2 0x44D SWAP1 PUSH2 0xABD JUMP JUMPDEST DUP1 ISZERO PUSH2 0x498 JUMPI DUP1 PUSH1 0x1F LT PUSH2 0x46F JUMPI PUSH2 0x100 DUP1 DUP4 SLOAD DIV MUL DUP4 MSTORE SWAP2 PUSH1 0x20 ADD SWAP2 PUSH2 0x498 JUMP JUMPDEST DUP3 ADD SWAP2 SWAP1 PUSH0 MSTORE PUSH1 0x20 PUSH0 KECCAK256 SWAP1 JUMPDEST DUP2 SLOAD DUP2 MSTORE SWAP1 PUSH1 0x1 ADD SWAP1 PUSH1 0x20 ADD DUP1 DUP4 GT PUSH2 0x47B JUMPI DUP3 SWAP1 SUB PUSH1 0x1F AND DUP3 ADD SWAP2 JUMPDEST POP POP POP POP POP DUP2 MSTORE PUSH1 0x20 ADD PUSH1 0x2 DUP3 ADD PUSH0 SWAP1 SLOAD SWAP1 PUSH2 0x100 EXP SWAP1 DIV PUSH20 0xFFFFFFFFFFFFFFFFFFFFFFFFFFFFFFFFFFFFFFFF AND PUSH20 0xFFFFFFFFFFFFFFFFFFFFFFFFFFFFFFFFFFFFFFFF AND PUSH20 0xFFFFFFFFFFFFFFFFFFFFFFFFFFFFFFFFFFFFFFFF AND DUP2 MSTORE PUSH1 0x20 ADD PUSH1 0x2 DUP3 ADD PUSH1 0x14 SWAP1 SLOAD SWAP1 PUSH2 0x100 EXP SWAP1 DIV PUSH1 0xFF AND ISZERO ISZERO ISZERO ISZERO DUP2 MSTORE POP POP SWAP1 POP DUP1 PUSH0 ADD MLOAD DUP2 PUSH1 0x20 ADD MLOAD DUP3 PUSH1 0x40 ADD MLOAD DUP4 PUSH1 0x60 ADD MLOAD SWAP5 POP SWAP5 POP SWAP5 POP SWAP5 POP POP SWAP2 SWAP4 POP SWAP2 SWAP4 JUMP JUMPDEST PUSH1 0x60 PUSH1 0x1 DUP1 SLOAD DUP1 PUSH1 0x20 MUL PUSH1 0x20 ADD PUSH1 0x40 MLOAD SWAP1 DUP2 ADD PUSH1 0x40 MSTORE DUP1 SWAP3 SWAP2 SWAP1 DUP2 DUP2 MSTORE PUSH1 0x20 ADD DUP3 DUP1 SLOAD DUP1 ISZERO PUSH2 0x5B7 JUMPI PUSH1 0x20 MUL DUP3 ADD SWAP2 SWAP1 PUSH0 MSTORE PUSH1 0x20 PUSH0 KECCAK256 SWAP1 JUMPDEST DUP2 PUSH0 SWAP1 SLOAD SWAP1 PUSH2 0x100 EXP SWAP1 DIV PUSH20 0xFFFFFFFFFFFFFFFFFFFFFFFFFFFFFFFFFFFFFFFF AND PUSH20 0xFFFFFFFFFFFFFFFFFFFFFFFFFFFFFFFFFFFFFFFF AND DUP2 MSTORE PUSH1 0x20 ADD SWAP1 PUSH1 0x1 ADD SWAP1 DUP1 DUP4 GT PUSH2 0x56E JUMPI JUMPDEST POP POP POP POP POP SWAP1 POP SWAP1 JUMP JUMPDEST PUSH0 PUSH0 PUSH0 DUP4 PUSH20 0xFFFFFFFFFFFFFFFFFFFFFFFFFFFFFFFFFFFFFFFF AND PUSH20 0xFFFFFFFFFFFFFFFFFFFFFFFFFFFFFFFFFFFFFFFF AND DUP2 MSTORE PUSH1 0x20 ADD SWAP1 DUP2 MSTORE PUSH1 0x20 ADD PUSH0 KECCAK256 PUSH1 0x2 ADD PUSH1 0x14 SWAP1 SLOAD SWAP1 PUSH2 0x100 EXP SWAP1 DIV PUSH1 0xFF AND SWAP1 POP SWAP2 SWAP1 POP JUMP JUMPDEST PUSH0 PUSH1 0x40 MLOAD SWAP1 POP SWAP1 JUMP JUMPDEST PUSH0 PUSH0 REVERT JUMPDEST PUSH0 PUSH0 REVERT JUMPDEST PUSH0 PUSH0 REVERT JUMPDEST PUSH0 PUSH0 REVERT JUMPDEST PUSH0 PUSH1 0x1F NOT PUSH1 0x1F DUP4 ADD AND SWAP1 POP SWAP2 SWAP1 POP JUMP JUMPDEST PUSH32 0x4E487B7100000000000000000000000000000000000000000000000000000000 PUSH0 MSTORE PUSH1 0x41 PUSH1 0x4 MSTORE PUSH1 0x24 PUSH0 REVERT JUMPDEST PUSH2 0x675 DUP3 PUSH2 0x62F JUMP JUMPDEST DUP2 ADD DUP2 DUP2 LT PUSH8 0xFFFFFFFFFFFFFFFF DUP3 GT OR ISZERO PUSH2 0x694 JUMPI PUSH2 0x693 PUSH2 0x63F JUMP JUMPDEST JUMPDEST DUP1 PUSH1 0x40 MSTORE POP POP POP JUMP JUMPDEST PUSH0 PUSH2 0x6A6 PUSH2 0x616 JUMP JUMPDEST SWAP1 POP PUSH2 0x6B2 DUP3 DUP3 PUSH2 0x66C JUMP JUMPDEST SWAP2 SWAP1 POP JUMP JUMPDEST PUSH0 PUSH8 0xFFFFFFFFFFFFFFFF DUP3 GT ISZERO PUSH2 0x6D1 JUMPI PUSH2 0x6D0 PUSH2 0x63F JUMP JUMPDEST JUMPDEST PUSH2 0x6DA DUP3 PUSH2 0x62F JUMP JUMPDEST SWAP1 POP PUSH1 0x20 DUP2 ADD SWAP1 POP SWAP2 SWAP1 POP JUMP JUMPDEST DUP3 DUP2 DUP4 CALLDATACOPY PUSH0 DUP4 DUP4 ADD MSTORE POP POP POP JUMP JUMPDEST PUSH0 PUSH2 0x707 PUSH2 0x702 DUP5 PUSH2 0x6B7 JUMP JUMPDEST PUSH2 0x69D JUMP JUMPDEST SWAP1 POP DUP3 DUP2 MSTORE PUSH1 0x20 DUP2 ADD DUP5 DUP5 DUP5 ADD GT ISZERO PUSH2 0x723 JUMPI PUSH2 0x722 PUSH2 0x62B JUMP JUMPDEST JUMPDEST PUSH2 0x72E DUP5 DUP3 DUP6 PUSH2 0x6E7 JUMP JUMPDEST POP SWAP4 SWAP3 POP POP POP JUMP JUMPDEST PUSH0 DUP3 PUSH1 0x1F DUP4 ADD SLT PUSH2 0x74A JUMPI PUSH2 0x749 PUSH2 0x627 JUMP JUMPDEST JUMPDEST DUP2 CALLDATALOAD PUSH2 0x75A DUP5 DUP3 PUSH1 0x20 DUP7 ADD PUSH2 0x6F5 JUMP JUMPDEST SWAP2 POP POP SWAP3 SWAP2 POP POP JUMP JUMPDEST PUSH0 PUSH0 PUSH1 0x40 DUP4 DUP6 SUB SLT ISZERO PUSH2 0x779 JUMPI PUSH2 0x778 PUSH2 0x61F JUMP JUMPDEST JUMPDEST PUSH0 DUP4 ADD CALLDATALOAD PUSH8 0xFFFFFFFFFFFFFFFF DUP2 GT ISZERO PUSH2 0x796 JUMPI PUSH2 0x795 PUSH2 0x623 JUMP JUMPDEST JUMPDEST PUSH2 0x7A2 DUP6 DUP3 DUP7 ADD PUSH2 0x736 JUMP JUMPDEST SWAP3 POP POP PUSH1 0x20 DUP4 ADD CALLDATALOAD PUSH8 0xFFFFFFFFFFFFFFFF DUP2 GT ISZERO PUSH2 0x7C3 JUMPI PUSH2 0x7C2 PUSH2 0x623 JUMP JUMPDEST JUMPDEST PUSH2 0x7CF DUP6 DUP3 DUP7 ADD PUSH2 0x736 JUMP JUMPDEST SWAP2 POP POP SWAP3 POP SWAP3 SWAP1 POP JUMP JUMPDEST PUSH0 PUSH20 0xFFFFFFFFFFFFFFFFFFFFFFFFFFFFFFFFFFFFFFFF DUP3 AND SWAP1 POP SWAP2 SWAP1 POP JUMP JUMPDEST PUSH0 PUSH2 0x802 DUP3 PUSH2 0x7D9 JUMP JUMPDEST SWAP1 POP SWAP2 SWAP1 POP JUMP JUMPDEST PUSH2 0x812 DUP2 PUSH2 0x7F8 JUMP JUMPDEST DUP2 EQ PUSH2 0x81C JUMPI PUSH0 PUSH0 REVERT JUMPDEST POP JUMP JUMPDEST PUSH0 DUP2 CALLDATALOAD SWAP1 POP PUSH2 0x82D DUP2 PUSH2 0x809 JUMP JUMPDEST SWAP3 SWAP2 POP POP JUMP JUMPDEST PUSH0 PUSH1 0x20 DUP3 DUP5 SUB SLT ISZERO PUSH2 0x848 JUMPI PUSH2 0x847 PUSH2 0x61F JUMP JUMPDEST JUMPDEST PUSH0 PUSH2 0x855 DUP5 DUP3 DUP6 ADD PUSH2 0x81F JUMP JUMPDEST SWAP2 POP POP SWAP3 SWAP2 POP POP JUMP JUMPDEST PUSH0 DUP2 MLOAD SWAP1 POP SWAP2 SWAP1 POP JUMP JUMPDEST PUSH0 DUP3 DUP3 MSTORE PUSH1 0x20 DUP3 ADD SWAP1 POP SWAP3 SWAP2 POP POP JUMP JUMPDEST DUP3 DUP2 DUP4 MCOPY PUSH0 DUP4 DUP4 ADD MSTORE POP POP POP JUMP JUMPDEST PUSH0 PUSH2 0x890 DUP3 PUSH2 0x85E JUMP JUMPDEST PUSH2 0x89A DUP2 DUP6 PUSH2 0x868 JUMP JUMPDEST SWAP4 POP PUSH2 0x8AA DUP2 DUP6 PUSH1 0x20 DUP7 ADD PUSH2 0x878 JUMP JUMPDEST PUSH2 0x8B3 DUP2 PUSH2 0x62F JUMP JUMPDEST DUP5 ADD SWAP2 POP POP SWAP3 SWAP2 POP POP JUMP JUMPDEST PUSH2 0x8C7 DUP2 PUSH2 0x7F8 JUMP JUMPDEST DUP3 MSTORE POP POP JUMP JUMPDEST PUSH0 DUP2 ISZERO ISZERO SWAP1 POP SWAP2 SWAP1 POP JUMP JUMPDEST PUSH2 0x8E1 DUP2 PUSH2 0x8CD JUMP JUMPDEST DUP3 MSTORE POP POP JUMP JUMPDEST PUSH0 PUSH1 0x80 DUP3 ADD SWAP1 POP DUP2 DUP2 SUB PUSH0 DUP4 ADD MSTORE PUSH2 0x8FF DUP2 DUP8 PUSH2 0x886 JUMP JUMPDEST SWAP1 POP DUP2 DUP2 SUB PUSH1 0x20 DUP4 ADD MSTORE PUSH2 0x913 DUP2 DUP7 PUSH2 0x886 JUMP JUMPDEST SWAP1 POP PUSH2 0x922 PUSH1 0x40 DUP4 ADD DUP6 PUSH2 0x8BE JUMP JUMPDEST PUSH2 0x92F PUSH1 0x60 DUP4 ADD DUP5 PUSH2 0x8D8 JUMP JUMPDEST SWAP6 SWAP5 POP POP POP POP POP JUMP JUMPDEST PUSH0 DUP2 MLOAD SWAP1 POP SWAP2 SWAP1 POP JUMP JUMPDEST PUSH0 DUP3 DUP3 MSTORE PUSH1 0x20 DUP3 ADD SWAP1 POP SWAP3 SWAP2 POP POP JUMP JUMPDEST PUSH0 DUP2 SWAP1 POP PUSH1 0x20 DUP3 ADD SWAP1 POP SWAP2 SWAP1 POP JUMP JUMPDEST PUSH2 0x96A DUP2 PUSH2 0x7F8 JUMP JUMPDEST DUP3 MSTORE POP POP JUMP JUMPDEST PUSH0 PUSH2 0x97B DUP4 DUP4 PUSH2 0x961 JUMP JUMPDEST PUSH1 0x20 DUP4 ADD SWAP1 POP SWAP3 SWAP2 POP POP JUMP JUMPDEST PUSH0 PUSH1 0x20 DUP3 ADD SWAP1 POP SWAP2 SWAP1 POP JUMP JUMPDEST PUSH0 PUSH2 0x99D DUP3 PUSH2 0x938 JUMP JUMPDEST PUSH2 0x9A7 DUP2 DUP6 PUSH2 0x942 JUMP JUMPDEST SWAP4 POP PUSH2 0x9B2 DUP4 PUSH2 0x952 JUMP JUMPDEST DUP1 PUSH0 JUMPDEST DUP4 DUP2 LT ISZERO PUSH2 0x9E2 JUMPI DUP2 MLOAD PUSH2 0x9C9 DUP9 DUP3 PUSH2 0x970 JUMP JUMPDEST SWAP8 POP PUSH2 0x9D4 DUP4 PUSH2 0x987 JUMP JUMPDEST SWAP3 POP POP PUSH1 0x1 DUP2 ADD SWAP1 POP PUSH2 0x9B5 JUMP JUMPDEST POP DUP6 SWAP4 POP POP POP POP SWAP3 SWAP2 POP POP JUMP JUMPDEST PUSH0 PUSH1 0x20 DUP3 ADD SWAP1 POP DUP2 DUP2 SUB PUSH0 DUP4 ADD MSTORE PUSH2 0xA07 DUP2 DUP5 PUSH2 0x993 JUMP JUMPDEST SWAP1 POP SWAP3 SWAP2 POP POP JUMP JUMPDEST PUSH0 PUSH1 0x20 DUP3 ADD SWAP1 POP PUSH2 0xA22 PUSH0 DUP4 ADD DUP5 PUSH2 0x8D8 JUMP JUMPDEST SWAP3 SWAP2 POP POP JUMP JUMPDEST PUSH32 0x416C726561647920726567697374657265642E00000000000000000000000000 PUSH0 DUP3 ADD MSTORE POP JUMP JUMPDEST PUSH0 PUSH2 0xA5C PUSH1 0x13 DUP4 PUSH2 0x868 JUMP JUMPDEST SWAP2 POP PUSH2 0xA67 DUP3 PUSH2 0xA28 JUMP JUMPDEST PUSH1 0x20 DUP3 ADD SWAP1 POP SWAP2 SWAP1 POP JUMP JUMPDEST PUSH0 PUSH1 0x20 DUP3 ADD SWAP1 POP DUP2 DUP2 SUB PUSH0 DUP4 ADD MSTORE PUSH2 0xA89 DUP2 PUSH2 0xA50 JUMP JUMPDEST SWAP1 POP SWAP2 SWAP1 POP JUMP JUMPDEST PUSH32 0x4E487B7100000000000000000000000000000000000000000000000000000000 PUSH0 MSTORE PUSH1 0x22 PUSH1 0x4 MSTORE PUSH1 0x24 PUSH0 REVERT JUMPDEST PUSH0 PUSH1 0x2 DUP3 DIV SWAP1 POP PUSH1 0x1 DUP3 AND DUP1 PUSH2 0xAD4 JUMPI PUSH1 0x7F DUP3 AND SWAP2 POP JUMPDEST PUSH1 0x20 DUP3 LT DUP2 SUB PUSH2 0xAE7 JUMPI PUSH2 0xAE6 PUSH2 0xA90 JUMP JUMPDEST JUMPDEST POP SWAP2 SWAP1 POP JUMP JUMPDEST PUSH0 DUP2 SWAP1 POP DUP2 PUSH0 MSTORE PUSH1 0x20 PUSH0 KECCAK256 SWAP1 POP SWAP2 SWAP1 POP JUMP JUMPDEST PUSH0 PUSH1 0x20 PUSH1 0x1F DUP4 ADD DIV SWAP1 POP SWAP2 SWAP1 POP JUMP JUMPDEST PUSH0 DUP3 DUP3 SHL SWAP1 POP SWAP3 SWAP2 POP POP JUMP JUMPDEST PUSH0 PUSH1 0x8 DUP4 MUL PUSH2 0xB49 PUSH32 0xFFFFFFFFFFFFFFFFFFFFFFFFFFFFFFFFFFFFFFFFFFFFFFFFFFFFFFFFFFFFFFFF DUP3 PUSH2 0xB0E JUMP JUMPDEST PUSH2 0xB53 DUP7 DUP4 PUSH2 0xB0E JUMP JUMPDEST SWAP6 POP DUP1 NOT DUP5 AND SWAP4 POP DUP1 DUP7 AND DUP5 OR SWAP3 POP POP POP SWAP4 SWAP3 POP POP POP JUMP JUMPDEST PUSH0 DUP2 SWAP1 POP SWAP2 SWAP1 POP JUMP JUMPDEST PUSH0 DUP2 SWAP1 POP SWAP2 SWAP1 POP JUMP JUMPDEST PUSH0 PUSH2 0xB97 PUSH2 0xB92 PUSH2 0xB8D DUP5 PUSH2 0xB6B JUMP JUMPDEST PUSH2 0xB74 JUMP JUMPDEST PUSH2 0xB6B JUMP JUMPDEST SWAP1 POP SWAP2 SWAP1 POP JUMP JUMPDEST PUSH0 DUP2 SWAP1 POP SWAP2 SWAP1 POP JUMP JUMPDEST PUSH2 0xBB0 DUP4 PUSH2 0xB7D JUMP JUMPDEST PUSH2 0xBC4 PUSH2 0xBBC DUP3 PUSH2 0xB9E JUMP JUMPDEST DUP5 DUP5 SLOAD PUSH2 0xB1A JUMP JUMPDEST DUP3 SSTORE POP POP POP POP JUMP JUMPDEST PUSH0 PUSH0 SWAP1 POP SWAP1 JUMP JUMPDEST PUSH2 0xBDB PUSH2 0xBCC JUMP JUMPDEST PUSH2 0xBE6 DUP2 DUP5 DUP5 PUSH2 0xBA7 JUMP JUMPDEST POP POP POP JUMP JUMPDEST JUMPDEST DUP2 DUP2 LT ISZERO PUSH2 0xC09 JUMPI PUSH2 0xBFE PUSH0 DUP3 PUSH2 0xBD3 JUMP JUMPDEST PUSH1 0x1 DUP2 ADD SWAP1 POP PUSH2 0xBEC JUMP JUMPDEST POP POP JUMP JUMPDEST PUSH1 0x1F DUP3 GT ISZERO PUSH2 0xC4E JUMPI PUSH2 0xC1F DUP2 PUSH2 0xAED JUMP JUMPDEST PUSH2 0xC28 DUP5 PUSH2 0xAFF JUMP JUMPDEST DUP2 ADD PUSH1 0x20 DUP6 LT ISZERO PUSH2 0xC37 JUMPI DUP2 SWAP1 POP JUMPDEST PUSH2 0xC4B PUSH2 0xC43 DUP6 PUSH2 0xAFF JUMP JUMPDEST DUP4 ADD DUP3 PUSH2 0xBEB JUMP JUMPDEST POP POP JUMPDEST POP POP POP JUMP JUMPDEST PUSH0 DUP3 DUP3 SHR SWAP1 POP SWAP3 SWAP2 POP POP JUMP JUMPDEST PUSH0 PUSH2 0xC6E PUSH0 NOT DUP5 PUSH1 0x8 MUL PUSH2 0xC53 JUMP JUMPDEST NOT DUP1 DUP4 AND SWAP2 POP POP SWAP3 SWAP2 POP POP JUMP JUMPDEST PUSH0 PUSH2 0xC86 DUP4 DUP4 PUSH2 0xC5F JUMP JUMPDEST SWAP2 POP DUP3 PUSH1 0x2 MUL DUP3 OR SWAP1 POP SWAP3 SWAP2 POP POP JUMP JUMPDEST PUSH2 0xC9F DUP3 PUSH2 0x85E JUMP JUMPDEST PUSH8 0xFFFFFFFFFFFFFFFF DUP2 GT ISZERO PUSH2 0xCB8 JUMPI PUSH2 0xCB7 PUSH2 0x63F JUMP JUMPDEST JUMPDEST PUSH2 0xCC2 DUP3 SLOAD PUSH2 0xABD JUMP JUMPDEST PUSH2 0xCCD DUP3 DUP3 DUP6 PUSH2 0xC0D JUMP JUMPDEST PUSH0 PUSH1 0x20 SWAP1 POP PUSH1 0x1F DUP4 GT PUSH1 0x1 DUP2 EQ PUSH2 0xCFE JUMPI PUSH0 DUP5 ISZERO PUSH2 0xCEC JUMPI DUP3 DUP8 ADD MLOAD SWAP1 POP JUMPDEST PUSH2 0xCF6 DUP6 DUP3 PUSH2 0xC7B JUMP JUMPDEST DUP7 SSTORE POP PUSH2 0xD5D JUMP JUMPDEST PUSH1 0x1F NOT DUP5 AND PUSH2 0xD0C DUP7 PUSH2 0xAED JUMP JUMPDEST PUSH0 JUMPDEST DUP3 DUP2 LT ISZERO PUSH2 0xD33 JUMPI DUP5 DUP10 ADD MLOAD DUP3 SSTORE PUSH1 0x1 DUP3 ADD SWAP2 POP PUSH1 0x20 DUP6 ADD SWAP5 POP PUSH1 0x20 DUP2 ADD SWAP1 POP PUSH2 0xD0E JUMP JUMPDEST DUP7 DUP4 LT ISZERO PUSH2 0xD50 JUMPI DUP5 DUP10 ADD MLOAD PUSH2 0xD4C PUSH1 0x1F DUP10 AND DUP3 PUSH2 0xC5F JUMP JUMPDEST DUP4 SSTORE POP JUMPDEST PUSH1 0x1 PUSH1 0x2 DUP9 MUL ADD DUP9 SSTORE POP POP POP JUMPDEST POP POP POP POP POP POP JUMP JUMPDEST PUSH0 PUSH1 0x40 DUP3 ADD SWAP1 POP DUP2 DUP2 SUB PUSH0 DUP4 ADD MSTORE PUSH2 0xD7D DUP2 DUP6 PUSH2 0x886 JUMP JUMPDEST SWAP1 POP DUP2 DUP2 SUB PUSH1 0x20 DUP4 ADD MSTORE PUSH2 0xD91 DUP2 DUP5 PUSH2 0x886 JUMP JUMPDEST SWAP1 POP SWAP4 SWAP3 POP POP POP JUMP INVALID LOG2 PUSH5 0x6970667358 0x22 SLT KECCAK256 0xB7 DUP10 PUSH11 0x19F2AF466818800B23E909 RETF PUSH22 0x95C4D4B49E7C5FDC9D428D172FA292C464736F6C6343 STOP ADDMOD 0x1E STOP CALLER "
				},
				"gasEstimates": {
					"creation": {
						"codeDepositCost": "707200",
						"executionCost": "739",
						"totalCost": "707939"
					},
					"external": {
						"getAllEntities()": "infinite",
						"getEntity(address)": "infinite",
						"isRegistered(address)": "2970",
						"registerEntity(string,string)": "infinite"
					}
				},
				"methodIdentifiers": {
					"getAllEntities()": "7e69dae0",
					"getEntity(address)": "75894e8c",
					"isRegistered(address)": "c3c5a547",
					"registerEntity(string,string)": "2ff19780"
				}
			},
			"storageLayout": {
				"storage": [
					{
						"astId": 15,
						"contract": "Year1Term3/INFO6001/Assignment2/trafficDataSharing/entityManager.sol:EntityManager",
						"label": "entities",
						"offset": 0,
						"slot": "0",
						"type": "t_mapping(t_address,t_struct(Entity)10_storage)"
					},
					{
						"astId": 18,
						"contract": "Year1Term3/INFO6001/Assignment2/trafficDataSharing/entityManager.sol:EntityManager",
						"label": "registeredEntities",
						"offset": 0,
						"slot": "1",
						"type": "t_array(t_address)dyn_storage"
					}
				],
				"types": {
					"t_address": {
						"encoding": "inplace",
						"label": "address",
						"numberOfBytes": "20"
					},
					"t_array(t_address)dyn_storage": {
						"base": "t_address",
						"encoding": "dynamic_array",
						"label": "address[]",
						"numberOfBytes": "32"
					},
					"t_bool": {
						"encoding": "inplace",
						"label": "bool",
						"numberOfBytes": "1"
					},
					"t_mapping(t_address,t_struct(Entity)10_storage)": {
						"encoding": "mapping",
						"key": "t_address",
						"label": "mapping(address => struct EntityManager.Entity)",
						"numberOfBytes": "32",
						"value": "t_struct(Entity)10_storage"
					},
					"t_string_storage": {
						"encoding": "bytes",
						"label": "string",
						"numberOfBytes": "32"
					},
					"t_struct(Entity)10_storage": {
						"encoding": "inplace",
						"label": "struct EntityManager.Entity",
						"members": [
							{
								"astId": 3,
								"contract": "Year1Term3/INFO6001/Assignment2/trafficDataSharing/entityManager.sol:EntityManager",
								"label": "name",
								"offset": 0,
								"slot": "0",
								"type": "t_string_storage"
							},
							{
								"astId": 5,
								"contract": "Year1Term3/INFO6001/Assignment2/trafficDataSharing/entityManager.sol:EntityManager",
								"label": "entityType",
								"offset": 0,
								"slot": "1",
								"type": "t_string_storage"
							},
							{
								"astId": 7,
								"contract": "Year1Term3/INFO6001/Assignment2/trafficDataSharing/entityManager.sol:EntityManager",
								"label": "entityAddress",
								"offset": 0,
								"slot": "2",
								"type": "t_address"
							},
							{
								"astId": 9,
								"contract": "Year1Term3/INFO6001/Assignment2/trafficDataSharing/entityManager.sol:EntityManager",
								"label": "registered",
								"offset": 20,
								"slot": "2",
								"type": "t_bool"
							}
						],
						"numberOfBytes": "96"
					}
				}
			},
			"userdoc": {
				"kind": "user",
				"methods": {},
				"version": 1
			}
		}
	}
}