{
	"data": {
		"bytecode": {
			"linkReferences": {},
			"object": "6080604052348015600e575f5ffd5b506116a88061001c5f395ff3fe608060405234801561000f575f5ffd5b5060043610610091575f3560e01c80637e69dae0116100645780637e69dae0146101305780639b981fe31461014e578063bae2b4581461016c578063c3c5a5471461019f578063cb1f5b4d146101cf57610091565b80632ff197801461009557806354069bbb146100b157806354998b47146100cd57806375894e8c146100fd575b5f5ffd5b6100af60048036038101906100aa9190610de2565b610202565b005b6100cb60048036038101906100c69190610de2565b61044c565b005b6100e760048036038101906100e29190610e8b565b61061d565b6040516100f49190610ed0565b60405180910390f35b61011760048036038101906101129190610f43565b610627565b6040516101279493929190610fdd565b60405180910390f35b610138610828565b60405161014591906110e5565b60405180910390f35b6101566108b3565b6040516101639190611114565b60405180910390f35b61018660048036038101906101819190610e8b565b6108bf565b604051610196949392919061112d565b60405180910390f35b6101b960048036038101906101b49190610f43565b610ada565b6040516101c69190610ed0565b60405180910390f35b6101e960048036038101906101e49190610e8b565b610b2f565b6040516101f9949392919061112d565b60405180910390f35b5f5f3373ffffffffffffffffffffffffffffffffffffffff1673ffffffffffffffffffffffffffffffffffffffff1681526020019081526020015f2060020160149054906101000a900460ff161561028f576040517f08c379a0000000000000000000000000000000000000000000000000000000008152600401610286906111c8565b60405180910390fd5b60405180608001604052808381526020018281526020013373ffffffffffffffffffffffffffffffffffffffff168152602001600115158152505f5f3373ffffffffffffffffffffffffffffffffffffffff1673ffffffffffffffffffffffffffffffffffffffff1681526020019081526020015f205f820151815f01908161031891906113e3565b50602082015181600101908161032e91906113e3565b506040820151816002015f6101000a81548173ffffffffffffffffffffffffffffffffffffffff021916908373ffffffffffffffffffffffffffffffffffffffff16021790555060608201518160020160146101000a81548160ff021916908315150217905550905050600133908060018154018082558091505060019003905f5260205f20015f9091909190916101000a81548173ffffffffffffffffffffffffffffffffffffffff021916908373ffffffffffffffffffffffffffffffffffffffff1602179055503373ffffffffffffffffffffffffffffffffffffffff167fb7218c8f53a2510b44c6ae2c8bc4ad68abecd93526d50d88bd472e70bf81fcca83836040516104409291906114b2565b60405180910390a25050565b5f5f3373ffffffffffffffffffffffffffffffffffffffff1673ffffffffffffffffffffffffffffffffffffffff1681526020019081526020015f2060020160149054906101000a900460ff166104d8576040517f08c379a00000000000000000000000000000000000000000000000000000000081526004016104cf90611531565b60405180910390fd5b5f60405180608001604052803373ffffffffffffffffffffffffffffffffffffffff168152602001848152602001838152602001428152509050600281908060018154018082558091505060019003905f5260205f2090600402015f909190919091505f820151815f015f6101000a81548173ffffffffffffffffffffffffffffffffffffffff021916908373ffffffffffffffffffffffffffffffffffffffff160217905550602082015181600101908161059491906113e3565b5060408201518160020190816105aa91906113e3565b506060820151816003015550503373ffffffffffffffffffffffffffffffffffffffff167f651900bb744a0ab3da5bcaa10f645eb3f4f496bd3f07b11c576e074494f33d056001600280549050610601919061157c565b856040516106109291906115af565b60405180910390a2505050565b5f60019050919050565b6060805f5f5f5f5f8773ffffffffffffffffffffffffffffffffffffffff1673ffffffffffffffffffffffffffffffffffffffff1681526020019081526020015f206040518060800160405290815f8201805461068390611213565b80601f01602080910402602001604051908101604052809291908181526020018280546106af90611213565b80156106fa5780601f106106d1576101008083540402835291602001916106fa565b820191905f5260205f20905b8154815290600101906020018083116106dd57829003601f168201915b5050505050815260200160018201805461071390611213565b80601f016020809104026020016040519081016040528092919081815260200182805461073f90611213565b801561078a5780601f106107615761010080835404028352916020019161078a565b820191905f5260205f20905b81548152906001019060200180831161076d57829003601f168201915b50505050508152602001600282015f9054906101000a900473ffffffffffffffffffffffffffffffffffffffff1673ffffffffffffffffffffffffffffffffffffffff1673ffffffffffffffffffffffffffffffffffffffff1681526020016002820160149054906101000a900460ff1615151515815250509050805f01518160200151826040015183606001519450945094509450509193509193565b606060018054806020026020016040519081016040528092919081815260200182805480156108a957602002820191905f5260205f20905b815f9054906101000a900473ffffffffffffffffffffffffffffffffffffffff1673ffffffffffffffffffffffffffffffffffffffff1681526020019060010190808311610860575b5050505050905090565b5f600280549050905090565b5f6060805f600280549050851061090b576040517f08c379a000000000000000000000000000000000000000000000000000000000815260040161090290611627565b60405180910390fd5b5f600286815481106109205761091f611645565b5b905f5260205f2090600402016040518060800160405290815f82015f9054906101000a900473ffffffffffffffffffffffffffffffffffffffff1673ffffffffffffffffffffffffffffffffffffffff1673ffffffffffffffffffffffffffffffffffffffff16815260200160018201805461099b90611213565b80601f01602080910402602001604051908101604052809291908181526020018280546109c790611213565b8015610a125780601f106109e957610100808354040283529160200191610a12565b820191905f5260205f20905b8154815290600101906020018083116109f557829003601f168201915b50505050508152602001600282018054610a2b90611213565b80601f0160208091040260200160405190810160405280929190818152602001828054610a5790611213565b8015610aa25780601f10610a7957610100808354040283529160200191610aa2565b820191905f5260205f20905b815481529060010190602001808311610a8557829003601f168201915b505050505081526020016003820154815250509050805f01518160200151826040015183606001519450945094509450509193509193565b5f5f5f8373ffffffffffffffffffffffffffffffffffffffff1673ffffffffffffffffffffffffffffffffffffffff1681526020019081526020015f2060020160149054906101000a900460ff169050919050565b60028181548110610b3e575f80fd5b905f5260205f2090600402015f91509050805f015f9054906101000a900473ffffffffffffffffffffffffffffffffffffffff1690806001018054610b8290611213565b80601f0160208091040260200160405190810160405280929190818152602001828054610bae90611213565b8015610bf95780601f10610bd057610100808354040283529160200191610bf9565b820191905f5260205f20905b815481529060010190602001808311610bdc57829003601f168201915b505050505090806002018054610c0e90611213565b80601f0160208091040260200160405190810160405280929190818152602001828054610c3a90611213565b8015610c855780601f10610c5c57610100808354040283529160200191610c85565b820191905f5260205f20905b815481529060010190602001808311610c6857829003601f168201915b5050505050908060030154905084565b5f604051905090565b5f5ffd5b5f5ffd5b5f5ffd5b5f5ffd5b5f601f19601f8301169050919050565b7f4e487b71000000000000000000000000000000000000000000000000000000005f52604160045260245ffd5b610cf482610cae565b810181811067ffffffffffffffff82111715610d1357610d12610cbe565b5b80604052505050565b5f610d25610c95565b9050610d318282610ceb565b919050565b5f67ffffffffffffffff821115610d5057610d4f610cbe565b5b610d5982610cae565b9050602081019050919050565b828183375f83830152505050565b5f610d86610d8184610d36565b610d1c565b905082815260208101848484011115610da257610da1610caa565b5b610dad848285610d66565b509392505050565b5f82601f830112610dc957610dc8610ca6565b5b8135610dd9848260208601610d74565b91505092915050565b5f5f60408385031215610df857610df7610c9e565b5b5f83013567ffffffffffffffff811115610e1557610e14610ca2565b5b610e2185828601610db5565b925050602083013567ffffffffffffffff811115610e4257610e41610ca2565b5b610e4e85828601610db5565b9150509250929050565b5f819050919050565b610e6a81610e58565b8114610e74575f5ffd5b50565b5f81359050610e8581610e61565b92915050565b5f60208284031215610ea057610e9f610c9e565b5b5f610ead84828501610e77565b91505092915050565b5f8115159050919050565b610eca81610eb6565b82525050565b5f602082019050610ee35f830184610ec1565b92915050565b5f73ffffffffffffffffffffffffffffffffffffffff82169050919050565b5f610f1282610ee9565b9050919050565b610f2281610f08565b8114610f2c575f5ffd5b50565b5f81359050610f3d81610f19565b92915050565b5f60208284031215610f5857610f57610c9e565b5b5f610f6584828501610f2f565b91505092915050565b5f81519050919050565b5f82825260208201905092915050565b8281835e5f83830152505050565b5f610fa082610f6e565b610faa8185610f78565b9350610fba818560208601610f88565b610fc381610cae565b840191505092915050565b610fd781610f08565b82525050565b5f6080820190508181035f830152610ff58187610f96565b905081810360208301526110098186610f96565b90506110186040830185610fce565b6110256060830184610ec1565b95945050505050565b5f81519050919050565b5f82825260208201905092915050565b5f819050602082019050919050565b61106081610f08565b82525050565b5f6110718383611057565b60208301905092915050565b5f602082019050919050565b5f6110938261102e565b61109d8185611038565b93506110a883611048565b805f5b838110156110d85781516110bf8882611066565b97506110ca8361107d565b9250506001810190506110ab565b5085935050505092915050565b5f6020820190508181035f8301526110fd8184611089565b905092915050565b61110e81610e58565b82525050565b5f6020820190506111275f830184611105565b92915050565b5f6080820190506111405f830187610fce565b81810360208301526111528186610f96565b905081810360408301526111668185610f96565b90506111756060830184611105565b95945050505050565b7f416c726561647920726567697374657265642e000000000000000000000000005f82015250565b5f6111b2601383610f78565b91506111bd8261117e565b602082019050919050565b5f6020820190508181035f8301526111df816111a6565b9050919050565b7f4e487b71000000000000000000000000000000000000000000000000000000005f52602260045260245ffd5b5f600282049050600182168061122a57607f821691505b60208210810361123d5761123c6111e6565b5b50919050565b5f819050815f5260205f209050919050565b5f6020601f8301049050919050565b5f82821b905092915050565b5f6008830261129f7fffffffffffffffffffffffffffffffffffffffffffffffffffffffffffffffff82611264565b6112a98683611264565b95508019841693508086168417925050509392505050565b5f819050919050565b5f6112e46112df6112da84610e58565b6112c1565b610e58565b9050919050565b5f819050919050565b6112fd836112ca565b611311611309826112eb565b848454611270565b825550505050565b5f5f905090565b611328611319565b6113338184846112f4565b505050565b5b818110156113565761134b5f82611320565b600181019050611339565b5050565b601f82111561139b5761136c81611243565b61137584611255565b81016020851015611384578190505b61139861139085611255565b830182611338565b50505b505050565b5f82821c905092915050565b5f6113bb5f19846008026113a0565b1980831691505092915050565b5f6113d383836113ac565b9150826002028217905092915050565b6113ec82610f6e565b67ffffffffffffffff81111561140557611404610cbe565b5b61140f8254611213565b61141a82828561135a565b5f60209050601f83116001811461144b575f8415611439578287015190505b61144385826113c8565b8655506114aa565b601f19841661145986611243565b5f5b828110156114805784890151825560018201915060208501945060208101905061145b565b8683101561149d5784890151611499601f8916826113ac565b8355505b6001600288020188555050505b505050505050565b5f6040820190508181035f8301526114ca8185610f96565b905081810360208301526114de8184610f96565b90509392505050565b7f4e6f742061207265676973746572656420656e746974792e00000000000000005f82015250565b5f61151b601883610f78565b9150611526826114e7565b602082019050919050565b5f6020820190508181035f8301526115488161150f565b9050919050565b7f4e487b71000000000000000000000000000000000000000000000000000000005f52601160045260245ffd5b5f61158682610e58565b915061159183610e58565b92508282039050818111156115a9576115a861154f565b5b92915050565b5f6040820190506115c25f830185611105565b81810360208301526115d48184610f96565b90509392505050565b7f496e646578206f7574206f662072616e67652e000000000000000000000000005f82015250565b5f611611601383610f78565b915061161c826115dd565b602082019050919050565b5f6020820190508181035f83015261163e81611605565b9050919050565b7f4e487b71000000000000000000000000000000000000000000000000000000005f52603260045260245ffdfea2646970667358221220fcea3125467e23698cf1db82efd613602f3d58ab440bd0a87e718e725b06b51464736f6c634300081e0033",
			"opcodes": "PUSH1 0x80 PUSH1 0x40 MSTORE CALLVALUE DUP1 ISZERO PUSH1 0xE JUMPI PUSH0 PUSH0 REVERT JUMPDEST POP PUSH2 0x16A8 DUP1 PUSH2 0x1C PUSH0 CODECOPY PUSH0 RETURN INVALID PUSH1 0x80 PUSH1 0x40 MSTORE CALLVALUE DUP1 ISZERO PUSH2 0xF JUMPI PUSH0 PUSH0 REVERT JUMPDEST POP PUSH1 0x4 CALLDATASIZE LT PUSH2 0x91 JUMPI PUSH0 CALLDATALOAD PUSH1 0xE0 SHR DUP1 PUSH4 0x7E69DAE0 GT PUSH2 0x64 JUMPI DUP1 PUSH4 0x7E69DAE0 EQ PUSH2 0x130 JUMPI DUP1 PUSH4 0x9B981FE3 EQ PUSH2 0x14E JUMPI DUP1 PUSH4 0xBAE2B458 EQ PUSH2 0x16C JUMPI DUP1 PUSH4 0xC3C5A547 EQ PUSH2 0x19F JUMPI DUP1 PUSH4 0xCB1F5B4D EQ PUSH2 0x1CF JUMPI PUSH2 0x91 JUMP JUMPDEST DUP1 PUSH4 0x2FF19780 EQ PUSH2 0x95 JUMPI DUP1 PUSH4 0x54069BBB EQ PUSH2 0xB1 JUMPI DUP1 PUSH4 0x54998B47 EQ PUSH2 0xCD JUMPI DUP1 PUSH4 0x75894E8C EQ PUSH2 0xFD JUMPI JUMPDEST PUSH0 PUSH0 REVERT JUMPDEST PUSH2 0xAF PUSH1 0x4 DUP1 CALLDATASIZE SUB DUP2 ADD SWAP1 PUSH2 0xAA SWAP2 SWAP1 PUSH2 0xDE2 JUMP JUMPDEST PUSH2 0x202 JUMP JUMPDEST STOP JUMPDEST PUSH2 0xCB PUSH1 0x4 DUP1 CALLDATASIZE SUB DUP2 ADD SWAP1 PUSH2 0xC6 SWAP2 SWAP1 PUSH2 0xDE2 JUMP JUMPDEST PUSH2 0x44C JUMP JUMPDEST STOP JUMPDEST PUSH2 0xE7 PUSH1 0x4 DUP1 CALLDATASIZE SUB DUP2 ADD SWAP1 PUSH2 0xE2 SWAP2 SWAP1 PUSH2 0xE8B JUMP JUMPDEST PUSH2 0x61D JUMP JUMPDEST PUSH1 0x40 MLOAD PUSH2 0xF4 SWAP2 SWAP1 PUSH2 0xED0 JUMP JUMPDEST PUSH1 0x40 MLOAD DUP1 SWAP2 SUB SWAP1 RETURN JUMPDEST PUSH2 0x117 PUSH1 0x4 DUP1 CALLDATASIZE SUB DUP2 ADD SWAP1 PUSH2 0x112 SWAP2 SWAP1 PUSH2 0xF43 JUMP JUMPDEST PUSH2 0x627 JUMP JUMPDEST PUSH1 0x40 MLOAD PUSH2 0x127 SWAP5 SWAP4 SWAP3 SWAP2 SWAP1 PUSH2 0xFDD JUMP JUMPDEST PUSH1 0x40 MLOAD DUP1 SWAP2 SUB SWAP1 RETURN JUMPDEST PUSH2 0x138 PUSH2 0x828 JUMP JUMPDEST PUSH1 0x40 MLOAD PUSH2 0x145 SWAP2 SWAP1 PUSH2 0x10E5 JUMP JUMPDEST PUSH1 0x40 MLOAD DUP1 SWAP2 SUB SWAP1 RETURN JUMPDEST PUSH2 0x156 PUSH2 0x8B3 JUMP JUMPDEST PUSH1 0x40 MLOAD PUSH2 0x163 SWAP2 SWAP1 PUSH2 0x1114 JUMP JUMPDEST PUSH1 0x40 MLOAD DUP1 SWAP2 SUB SWAP1 RETURN JUMPDEST PUSH2 0x186 PUSH1 0x4 DUP1 CALLDATASIZE SUB DUP2 ADD SWAP1 PUSH2 0x181 SWAP2 SWAP1 PUSH2 0xE8B JUMP JUMPDEST PUSH2 0x8BF JUMP JUMPDEST PUSH1 0x40 MLOAD PUSH2 0x196 SWAP5 SWAP4 SWAP3 SWAP2 SWAP1 PUSH2 0x112D JUMP JUMPDEST PUSH1 0x40 MLOAD DUP1 SWAP2 SUB SWAP1 RETURN JUMPDEST PUSH2 0x1B9 PUSH1 0x4 DUP1 CALLDATASIZE SUB DUP2 ADD SWAP1 PUSH2 0x1B4 SWAP2 SWAP1 PUSH2 0xF43 JUMP JUMPDEST PUSH2 0xADA JUMP JUMPDEST PUSH1 0x40 MLOAD PUSH2 0x1C6 SWAP2 SWAP1 PUSH2 0xED0 JUMP JUMPDEST PUSH1 0x40 MLOAD DUP1 SWAP2 SUB SWAP1 RETURN JUMPDEST PUSH2 0x1E9 PUSH1 0x4 DUP1 CALLDATASIZE SUB DUP2 ADD SWAP1 PUSH2 0x1E4 SWAP2 SWAP1 PUSH2 0xE8B JUMP JUMPDEST PUSH2 0xB2F JUMP JUMPDEST PUSH1 0x40 MLOAD PUSH2 0x1F9 SWAP5 SWAP4 SWAP3 SWAP2 SWAP1 PUSH2 0x112D JUMP JUMPDEST PUSH1 0x40 MLOAD DUP1 SWAP2 SUB SWAP1 RETURN JUMPDEST PUSH0 PUSH0 CALLER PUSH20 0xFFFFFFFFFFFFFFFFFFFFFFFFFFFFFFFFFFFFFFFF AND PUSH20 0xFFFFFFFFFFFFFFFFFFFFFFFFFFFFFFFFFFFFFFFF AND DUP2 MSTORE PUSH1 0x20 ADD SWAP1 DUP2 MSTORE PUSH1 0x20 ADD PUSH0 KECCAK256 PUSH1 0x2 ADD PUSH1 0x14 SWAP1 SLOAD SWAP1 PUSH2 0x100 EXP SWAP1 DIV PUSH1 0xFF AND ISZERO PUSH2 0x28F JUMPI PUSH1 0x40 MLOAD PUSH32 0x8C379A000000000000000000000000000000000000000000000000000000000 DUP2 MSTORE PUSH1 0x4 ADD PUSH2 0x286 SWAP1 PUSH2 0x11C8 JUMP JUMPDEST PUSH1 0x40 MLOAD DUP1 SWAP2 SUB SWAP1 REVERT JUMPDEST PUSH1 0x40 MLOAD DUP1 PUSH1 0x80 ADD PUSH1 0x40 MSTORE DUP1 DUP4 DUP2 MSTORE PUSH1 0x20 ADD DUP3 DUP2 MSTORE PUSH1 0x20 ADD CALLER PUSH20 0xFFFFFFFFFFFFFFFFFFFFFFFFFFFFFFFFFFFFFFFF AND DUP2 MSTORE PUSH1 0x20 ADD PUSH1 0x1 ISZERO ISZERO DUP2 MSTORE POP PUSH0 PUSH0 CALLER PUSH20 0xFFFFFFFFFFFFFFFFFFFFFFFFFFFFFFFFFFFFFFFF AND PUSH20 0xFFFFFFFFFFFFFFFFFFFFFFFFFFFFFFFFFFFFFFFF AND DUP2 MSTORE PUSH1 0x20 ADD SWAP1 DUP2 MSTORE PUSH1 0x20 ADD PUSH0 KECCAK256 PUSH0 DUP3 ADD MLOAD DUP2 PUSH0 ADD SWAP1 DUP2 PUSH2 0x318 SWAP2 SWAP1 PUSH2 0x13E3 JUMP JUMPDEST POP PUSH1 0x20 DUP3 ADD MLOAD DUP2 PUSH1 0x1 ADD SWAP1 DUP2 PUSH2 0x32E SWAP2 SWAP1 PUSH2 0x13E3 JUMP JUMPDEST POP PUSH1 0x40 DUP3 ADD MLOAD DUP2 PUSH1 0x2 ADD PUSH0 PUSH2 0x100 EXP DUP2 SLOAD DUP2 PUSH20 0xFFFFFFFFFFFFFFFFFFFFFFFFFFFFFFFFFFFFFFFF MUL NOT AND SWAP1 DUP4 PUSH20 0xFFFFFFFFFFFFFFFFFFFFFFFFFFFFFFFFFFFFFFFF AND MUL OR SWAP1 SSTORE POP PUSH1 0x60 DUP3 ADD MLOAD DUP2 PUSH1 0x2 ADD PUSH1 0x14 PUSH2 0x100 EXP DUP2 SLOAD DUP2 PUSH1 0xFF MUL NOT AND SWAP1 DUP4 ISZERO ISZERO MUL OR SWAP1 SSTORE POP SWAP1 POP POP PUSH1 0x1 CALLER SWAP1 DUP1 PUSH1 0x1 DUP2 SLOAD ADD DUP1 DUP3 SSTORE DUP1 SWAP2 POP POP PUSH1 0x1 SWAP1 SUB SWAP1 PUSH0 MSTORE PUSH1 0x20 PUSH0 KECCAK256 ADD PUSH0 SWAP1 SWAP2 SWAP1 SWAP2 SWAP1 SWAP2 PUSH2 0x100 EXP DUP2 SLOAD DUP2 PUSH20 0xFFFFFFFFFFFFFFFFFFFFFFFFFFFFFFFFFFFFFFFF MUL NOT AND SWAP1 DUP4 PUSH20 0xFFFFFFFFFFFFFFFFFFFFFFFFFFFFFFFFFFFFFFFF AND MUL OR SWAP1 SSTORE POP CALLER PUSH20 0xFFFFFFFFFFFFFFFFFFFFFFFFFFFFFFFFFFFFFFFF AND PUSH32 0xB7218C8F53A2510B44C6AE2C8BC4AD68ABECD93526D50D88BD472E70BF81FCCA DUP4 DUP4 PUSH1 0x40 MLOAD PUSH2 0x440 SWAP3 SWAP2 SWAP1 PUSH2 0x14B2 JUMP JUMPDEST PUSH1 0x40 MLOAD DUP1 SWAP2 SUB SWAP1 LOG2 POP POP JUMP JUMPDEST PUSH0 PUSH0 CALLER PUSH20 0xFFFFFFFFFFFFFFFFFFFFFFFFFFFFFFFFFFFFFFFF AND PUSH20 0xFFFFFFFFFFFFFFFFFFFFFFFFFFFFFFFFFFFFFFFF AND DUP2 MSTORE PUSH1 0x20 ADD SWAP1 DUP2 MSTORE PUSH1 0x20 ADD PUSH0 KECCAK256 PUSH1 0x2 ADD PUSH1 0x14 SWAP1 SLOAD SWAP1 PUSH2 0x100 EXP SWAP1 DIV PUSH1 0xFF AND PUSH2 0x4D8 JUMPI PUSH1 0x40 MLOAD PUSH32 0x8C379A000000000000000000000000000000000000000000000000000000000 DUP2 MSTORE PUSH1 0x4 ADD PUSH2 0x4CF SWAP1 PUSH2 0x1531 JUMP JUMPDEST PUSH1 0x40 MLOAD DUP1 SWAP2 SUB SWAP1 REVERT JUMPDEST PUSH0 PUSH1 0x40 MLOAD DUP1 PUSH1 0x80 ADD PUSH1 0x40 MSTORE DUP1 CALLER PUSH20 0xFFFFFFFFFFFFFFFFFFFFFFFFFFFFFFFFFFFFFFFF AND DUP2 MSTORE PUSH1 0x20 ADD DUP5 DUP2 MSTORE PUSH1 0x20 ADD DUP4 DUP2 MSTORE PUSH1 0x20 ADD TIMESTAMP DUP2 MSTORE POP SWAP1 POP PUSH1 0x2 DUP2 SWAP1 DUP1 PUSH1 0x1 DUP2 SLOAD ADD DUP1 DUP3 SSTORE DUP1 SWAP2 POP POP PUSH1 0x1 SWAP1 SUB SWAP1 PUSH0 MSTORE PUSH1 0x20 PUSH0 KECCAK256 SWAP1 PUSH1 0x4 MUL ADD PUSH0 SWAP1 SWAP2 SWAP1 SWAP2 SWAP1 SWAP2 POP PUSH0 DUP3 ADD MLOAD DUP2 PUSH0 ADD PUSH0 PUSH2 0x100 EXP DUP2 SLOAD DUP2 PUSH20 0xFFFFFFFFFFFFFFFFFFFFFFFFFFFFFFFFFFFFFFFF MUL NOT AND SWAP1 DUP4 PUSH20 0xFFFFFFFFFFFFFFFFFFFFFFFFFFFFFFFFFFFFFFFF AND MUL OR SWAP1 SSTORE POP PUSH1 0x20 DUP3 ADD MLOAD DUP2 PUSH1 0x1 ADD SWAP1 DUP2 PUSH2 0x594 SWAP2 SWAP1 PUSH2 0x13E3 JUMP JUMPDEST POP PUSH1 0x40 DUP3 ADD MLOAD DUP2 PUSH1 0x2 ADD SWAP1 DUP2 PUSH2 0x5AA SWAP2 SWAP1 PUSH2 0x13E3 JUMP JUMPDEST POP PUSH1 0x60 DUP3 ADD MLOAD DUP2 PUSH1 0x3 ADD SSTORE POP POP CALLER PUSH20 0xFFFFFFFFFFFFFFFFFFFFFFFFFFFFFFFFFFFFFFFF AND PUSH32 0x651900BB744A0AB3DA5BCAA10F645EB3F4F496BD3F07B11C576E074494F33D05 PUSH1 0x1 PUSH1 0x2 DUP1 SLOAD SWAP1 POP PUSH2 0x601 SWAP2 SWAP1 PUSH2 0x157C JUMP JUMPDEST DUP6 PUSH1 0x40 MLOAD PUSH2 0x610 SWAP3 SWAP2 SWAP1 PUSH2 0x15AF JUMP JUMPDEST PUSH1 0x40 MLOAD DUP1 SWAP2 SUB SWAP1 LOG2 POP POP POP JUMP JUMPDEST PUSH0 PUSH1 0x1 SWAP1 POP SWAP2 SWAP1 POP JUMP JUMPDEST PUSH1 0x60 DUP1 PUSH0 PUSH0 PUSH0 PUSH0 PUSH0 DUP8 PUSH20 0xFFFFFFFFFFFFFFFFFFFFFFFFFFFFFFFFFFFFFFFF AND PUSH20 0xFFFFFFFFFFFFFFFFFFFFFFFFFFFFFFFFFFFFFFFF AND DUP2 MSTORE PUSH1 0x20 ADD SWAP1 DUP2 MSTORE PUSH1 0x20 ADD PUSH0 KECCAK256 PUSH1 0x40 MLOAD DUP1 PUSH1 0x80 ADD PUSH1 0x40 MSTORE SWAP1 DUP2 PUSH0 DUP3 ADD DUP1 SLOAD PUSH2 0x683 SWAP1 PUSH2 0x1213 JUMP JUMPDEST DUP1 PUSH1 0x1F ADD PUSH1 0x20 DUP1 SWAP2 DIV MUL PUSH1 0x20 ADD PUSH1 0x40 MLOAD SWAP1 DUP2 ADD PUSH1 0x40 MSTORE DUP1 SWAP3 SWAP2 SWAP1 DUP2 DUP2 MSTORE PUSH1 0x20 ADD DUP3 DUP1 SLOAD PUSH2 0x6AF SWAP1 PUSH2 0x1213 JUMP JUMPDEST DUP1 ISZERO PUSH2 0x6FA JUMPI DUP1 PUSH1 0x1F LT PUSH2 0x6D1 JUMPI PUSH2 0x100 DUP1 DUP4 SLOAD DIV MUL DUP4 MSTORE SWAP2 PUSH1 0x20 ADD SWAP2 PUSH2 0x6FA JUMP JUMPDEST DUP3 ADD SWAP2 SWAP1 PUSH0 MSTORE PUSH1 0x20 PUSH0 KECCAK256 SWAP1 JUMPDEST DUP2 SLOAD DUP2 MSTORE SWAP1 PUSH1 0x1 ADD SWAP1 PUSH1 0x20 ADD DUP1 DUP4 GT PUSH2 0x6DD JUMPI DUP3 SWAP1 SUB PUSH1 0x1F AND DUP3 ADD SWAP2 JUMPDEST POP POP POP POP POP DUP2 MSTORE PUSH1 0x20 ADD PUSH1 0x1 DUP3 ADD DUP1 SLOAD PUSH2 0x713 SWAP1 PUSH2 0x1213 JUMP JUMPDEST DUP1 PUSH1 0x1F ADD PUSH1 0x20 DUP1 SWAP2 DIV MUL PUSH1 0x20 ADD PUSH1 0x40 MLOAD SWAP1 DUP2 ADD PUSH1 0x40 MSTORE DUP1 SWAP3 SWAP2 SWAP1 DUP2 DUP2 MSTORE PUSH1 0x20 ADD DUP3 DUP1 SLOAD PUSH2 0x73F SWAP1 PUSH2 0x1213 JUMP JUMPDEST DUP1 ISZERO PUSH2 0x78A JUMPI DUP1 PUSH1 0x1F LT PUSH2 0x761 JUMPI PUSH2 0x100 DUP1 DUP4 SLOAD DIV MUL DUP4 MSTORE SWAP2 PUSH1 0x20 ADD SWAP2 PUSH2 0x78A JUMP JUMPDEST DUP3 ADD SWAP2 SWAP1 PUSH0 MSTORE PUSH1 0x20 PUSH0 KECCAK256 SWAP1 JUMPDEST DUP2 SLOAD DUP2 MSTORE SWAP1 PUSH1 0x1 ADD SWAP1 PUSH1 0x20 ADD DUP1 DUP4 GT PUSH2 0x76D JUMPI DUP3 SWAP1 SUB PUSH1 0x1F AND DUP3 ADD SWAP2 JUMPDEST POP POP POP POP POP DUP2 MSTORE PUSH1 0x20 ADD PUSH1 0x2 DUP3 ADD PUSH0 SWAP1 SLOAD SWAP1 PUSH2 0x100 EXP SWAP1 DIV PUSH20 0xFFFFFFFFFFFFFFFFFFFFFFFFFFFFFFFFFFFFFFFF AND PUSH20 0xFFFFFFFFFFFFFFFFFFFFFFFFFFFFFFFFFFFFFFFF AND PUSH20 0xFFFFFFFFFFFFFFFFFFFFFFFFFFFFFFFFFFFFFFFF AND DUP2 MSTORE PUSH1 0x20 ADD PUSH1 0x2 DUP3 ADD PUSH1 0x14 SWAP1 SLOAD SWAP1 PUSH2 0x100 EXP SWAP1 DIV PUSH1 0xFF AND ISZERO ISZERO ISZERO ISZERO DUP2 MSTORE POP POP SWAP1 POP DUP1 PUSH0 ADD MLOAD DUP2 PUSH1 0x20 ADD MLOAD DUP3 PUSH1 0x40 ADD MLOAD DUP4 PUSH1 0x60 ADD MLOAD SWAP5 POP SWAP5 POP SWAP5 POP SWAP5 POP POP SWAP2 SWAP4 POP SWAP2 SWAP4 JUMP JUMPDEST PUSH1 0x60 PUSH1 0x1 DUP1 SLOAD DUP1 PUSH1 0x20 MUL PUSH1 0x20 ADD PUSH1 0x40 MLOAD SWAP1 DUP2 ADD PUSH1 0x40 MSTORE DUP1 SWAP3 SWAP2 SWAP1 DUP2 DUP2 MSTORE PUSH1 0x20 ADD DUP3 DUP1 SLOAD DUP1 ISZERO PUSH2 0x8A9 JUMPI PUSH1 0x20 MUL DUP3 ADD SWAP2 SWAP1 PUSH0 MSTORE PUSH1 0x20 PUSH0 KECCAK256 SWAP1 JUMPDEST DUP2 PUSH0 SWAP1 SLOAD SWAP1 PUSH2 0x100 EXP SWAP1 DIV PUSH20 0xFFFFFFFFFFFFFFFFFFFFFFFFFFFFFFFFFFFFFFFF AND PUSH20 0xFFFFFFFFFFFFFFFFFFFFFFFFFFFFFFFFFFFFFFFF AND DUP2 MSTORE PUSH1 0x20 ADD SWAP1 PUSH1 0x1 ADD SWAP1 DUP1 DUP4 GT PUSH2 0x860 JUMPI JUMPDEST POP POP POP POP POP SWAP1 POP SWAP1 JUMP JUMPDEST PUSH0 PUSH1 0x2 DUP1 SLOAD SWAP1 POP SWAP1 POP SWAP1 JUMP JUMPDEST PUSH0 PUSH1 0x60 DUP1 PUSH0 PUSH1 0x2 DUP1 SLOAD SWAP1 POP DUP6 LT PUSH2 0x90B JUMPI PUSH1 0x40 MLOAD PUSH32 0x8C379A000000000000000000000000000000000000000000000000000000000 DUP2 MSTORE PUSH1 0x4 ADD PUSH2 0x902 SWAP1 PUSH2 0x1627 JUMP JUMPDEST PUSH1 0x40 MLOAD DUP1 SWAP2 SUB SWAP1 REVERT JUMPDEST PUSH0 PUSH1 0x2 DUP7 DUP2 SLOAD DUP2 LT PUSH2 0x920 JUMPI PUSH2 0x91F PUSH2 0x1645 JUMP JUMPDEST JUMPDEST SWAP1 PUSH0 MSTORE PUSH1 0x20 PUSH0 KECCAK256 SWAP1 PUSH1 0x4 MUL ADD PUSH1 0x40 MLOAD DUP1 PUSH1 0x80 ADD PUSH1 0x40 MSTORE SWAP1 DUP2 PUSH0 DUP3 ADD PUSH0 SWAP1 SLOAD SWAP1 PUSH2 0x100 EXP SWAP1 DIV PUSH20 0xFFFFFFFFFFFFFFFFFFFFFFFFFFFFFFFFFFFFFFFF AND PUSH20 0xFFFFFFFFFFFFFFFFFFFFFFFFFFFFFFFFFFFFFFFF AND PUSH20 0xFFFFFFFFFFFFFFFFFFFFFFFFFFFFFFFFFFFFFFFF AND DUP2 MSTORE PUSH1 0x20 ADD PUSH1 0x1 DUP3 ADD DUP1 SLOAD PUSH2 0x99B SWAP1 PUSH2 0x1213 JUMP JUMPDEST DUP1 PUSH1 0x1F ADD PUSH1 0x20 DUP1 SWAP2 DIV MUL PUSH1 0x20 ADD PUSH1 0x40 MLOAD SWAP1 DUP2 ADD PUSH1 0x40 MSTORE DUP1 SWAP3 SWAP2 SWAP1 DUP2 DUP2 MSTORE PUSH1 0x20 ADD DUP3 DUP1 SLOAD PUSH2 0x9C7 SWAP1 PUSH2 0x1213 JUMP JUMPDEST DUP1 ISZERO PUSH2 0xA12 JUMPI DUP1 PUSH1 0x1F LT PUSH2 0x9E9 JUMPI PUSH2 0x100 DUP1 DUP4 SLOAD DIV MUL DUP4 MSTORE SWAP2 PUSH1 0x20 ADD SWAP2 PUSH2 0xA12 JUMP JUMPDEST DUP3 ADD SWAP2 SWAP1 PUSH0 MSTORE PUSH1 0x20 PUSH0 KECCAK256 SWAP1 JUMPDEST DUP2 SLOAD DUP2 MSTORE SWAP1 PUSH1 0x1 ADD SWAP1 PUSH1 0x20 ADD DUP1 DUP4 GT PUSH2 0x9F5 JUMPI DUP3 SWAP1 SUB PUSH1 0x1F AND DUP3 ADD SWAP2 JUMPDEST POP POP POP POP POP DUP2 MSTORE PUSH1 0x20 ADD PUSH1 0x2 DUP3 ADD DUP1 SLOAD PUSH2 0xA2B SWAP1 PUSH2 0x1213 JUMP JUMPDEST DUP1 PUSH1 0x1F ADD PUSH1 0x20 DUP1 SWAP2 DIV MUL PUSH1 0x20 ADD PUSH1 0x40 MLOAD SWAP1 DUP2 ADD PUSH1 0x40 MSTORE DUP1 SWAP3 SWAP2 SWAP1 DUP2 DUP2 MSTORE PUSH1 0x20 ADD DUP3 DUP1 SLOAD PUSH2 0xA57 SWAP1 PUSH2 0x1213 JUMP JUMPDEST DUP1 ISZERO PUSH2 0xAA2 JUMPI DUP1 PUSH1 0x1F LT PUSH2 0xA79 JUMPI PUSH2 0x100 DUP1 DUP4 SLOAD DIV MUL DUP4 MSTORE SWAP2 PUSH1 0x20 ADD SWAP2 PUSH2 0xAA2 JUMP JUMPDEST DUP3 ADD SWAP2 SWAP1 PUSH0 MSTORE PUSH1 0x20 PUSH0 KECCAK256 SWAP1 JUMPDEST DUP2 SLOAD DUP2 MSTORE SWAP1 PUSH1 0x1 ADD SWAP1 PUSH1 0x20 ADD DUP1 DUP4 GT PUSH2 0xA85 JUMPI DUP3 SWAP1 SUB PUSH1 0x1F AND DUP3 ADD SWAP2 JUMPDEST POP POP POP POP POP DUP2 MSTORE PUSH1 0x20 ADD PUSH1 0x3 DUP3 ADD SLOAD DUP2 MSTORE POP POP SWAP1 POP DUP1 PUSH0 ADD MLOAD DUP2 PUSH1 0x20 ADD MLOAD DUP3 PUSH1 0x40 ADD MLOAD DUP4 PUSH1 0x60 ADD MLOAD SWAP5 POP SWAP5 POP SWAP5 POP SWAP5 POP POP SWAP2 SWAP4 POP SWAP2 SWAP4 JUMP JUMPDEST PUSH0 PUSH0 PUSH0 DUP4 PUSH20 0xFFFFFFFFFFFFFFFFFFFFFFFFFFFFFFFFFFFFFFFF AND PUSH20 0xFFFFFFFFFFFFFFFFFFFFFFFFFFFFFFFFFFFFFFFF AND DUP2 MSTORE PUSH1 0x20 ADD SWAP1 DUP2 MSTORE PUSH1 0x20 ADD PUSH0 KECCAK256 PUSH1 0x2 ADD PUSH1 0x14 SWAP1 SLOAD SWAP1 PUSH2 0x100 EXP SWAP1 DIV PUSH1 0xFF AND SWAP1 POP SWAP2 SWAP1 POP JUMP JUMPDEST PUSH1 0x2 DUP2 DUP2 SLOAD DUP2 LT PUSH2 0xB3E JUMPI PUSH0 DUP1 REVERT JUMPDEST SWAP1 PUSH0 MSTORE PUSH1 0x20 PUSH0 KECCAK256 SWAP1 PUSH1 0x4 MUL ADD PUSH0 SWAP2 POP SWAP1 POP DUP1 PUSH0 ADD PUSH0 SWAP1 SLOAD SWAP1 PUSH2 0x100 EXP SWAP1 DIV PUSH20 0xFFFFFFFFFFFFFFFFFFFFFFFFFFFFFFFFFFFFFFFF AND SWAP1 DUP1 PUSH1 0x1 ADD DUP1 SLOAD PUSH2 0xB82 SWAP1 PUSH2 0x1213 JUMP JUMPDEST DUP1 PUSH1 0x1F ADD PUSH1 0x20 DUP1 SWAP2 DIV MUL PUSH1 0x20 ADD PUSH1 0x40 MLOAD SWAP1 DUP2 ADD PUSH1 0x40 MSTORE DUP1 SWAP3 SWAP2 SWAP1 DUP2 DUP2 MSTORE PUSH1 0x20 ADD DUP3 DUP1 SLOAD PUSH2 0xBAE SWAP1 PUSH2 0x1213 JUMP JUMPDEST DUP1 ISZERO PUSH2 0xBF9 JUMPI DUP1 PUSH1 0x1F LT PUSH2 0xBD0 JUMPI PUSH2 0x100 DUP1 DUP4 SLOAD DIV MUL DUP4 MSTORE SWAP2 PUSH1 0x20 ADD SWAP2 PUSH2 0xBF9 JUMP JUMPDEST DUP3 ADD SWAP2 SWAP1 PUSH0 MSTORE PUSH1 0x20 PUSH0 KECCAK256 SWAP1 JUMPDEST DUP2 SLOAD DUP2 MSTORE SWAP1 PUSH1 0x1 ADD SWAP1 PUSH1 0x20 ADD DUP1 DUP4 GT PUSH2 0xBDC JUMPI DUP3 SWAP1 SUB PUSH1 0x1F AND DUP3 ADD SWAP2 JUMPDEST POP POP POP POP POP SWAP1 DUP1 PUSH1 0x2 ADD DUP1 SLOAD PUSH2 0xC0E SWAP1 PUSH2 0x1213 JUMP JUMPDEST DUP1 PUSH1 0x1F ADD PUSH1 0x20 DUP1 SWAP2 DIV MUL PUSH1 0x20 ADD PUSH1 0x40 MLOAD SWAP1 DUP2 ADD PUSH1 0x40 MSTORE DUP1 SWAP3 SWAP2 SWAP1 DUP2 DUP2 MSTORE PUSH1 0x20 ADD DUP3 DUP1 SLOAD PUSH2 0xC3A SWAP1 PUSH2 0x1213 JUMP JUMPDEST DUP1 ISZERO PUSH2 0xC85 JUMPI DUP1 PUSH1 0x1F LT PUSH2 0xC5C JUMPI PUSH2 0x100 DUP1 DUP4 SLOAD DIV MUL DUP4 MSTORE SWAP2 PUSH1 0x20 ADD SWAP2 PUSH2 0xC85 JUMP JUMPDEST DUP3 ADD SWAP2 SWAP1 PUSH0 MSTORE PUSH1 0x20 PUSH0 KECCAK256 SWAP1 JUMPDEST DUP2 SLOAD DUP2 MSTORE SWAP1 PUSH1 0x1 ADD SWAP1 PUSH1 0x20 ADD DUP1 DUP4 GT PUSH2 0xC68 JUMPI DUP3 SWAP1 SUB PUSH1 0x1F AND DUP3 ADD SWAP2 JUMPDEST POP POP POP POP POP SWAP1 DUP1 PUSH1 0x3 ADD SLOAD SWAP1 POP DUP5 JUMP JUMPDEST PUSH0 PUSH1 0x40 MLOAD SWAP1 POP SWAP1 JUMP JUMPDEST PUSH0 PUSH0 REVERT JUMPDEST PUSH0 PUSH0 REVERT JUMPDEST PUSH0 PUSH0 REVERT JUMPDEST PUSH0 PUSH0 REVERT JUMPDEST PUSH0 PUSH1 0x1F NOT PUSH1 0x1F DUP4 ADD AND SWAP1 POP SWAP2 SWAP1 POP JUMP JUMPDEST PUSH32 0x4E487B7100000000000000000000000000000000000000000000000000000000 PUSH0 MSTORE PUSH1 0x41 PUSH1 0x4 MSTORE PUSH1 0x24 PUSH0 REVERT JUMPDEST PUSH2 0xCF4 DUP3 PUSH2 0xCAE JUMP JUMPDEST DUP2 ADD DUP2 DUP2 LT PUSH8 0xFFFFFFFFFFFFFFFF DUP3 GT OR ISZERO PUSH2 0xD13 JUMPI PUSH2 0xD12 PUSH2 0xCBE JUMP JUMPDEST JUMPDEST DUP1 PUSH1 0x40 MSTORE POP POP POP JUMP JUMPDEST PUSH0 PUSH2 0xD25 PUSH2 0xC95 JUMP JUMPDEST SWAP1 POP PUSH2 0xD31 DUP3 DUP3 PUSH2 0xCEB JUMP JUMPDEST SWAP2 SWAP1 POP JUMP JUMPDEST PUSH0 PUSH8 0xFFFFFFFFFFFFFFFF DUP3 GT ISZERO PUSH2 0xD50 JUMPI PUSH2 0xD4F PUSH2 0xCBE JUMP JUMPDEST JUMPDEST PUSH2 0xD59 DUP3 PUSH2 0xCAE JUMP JUMPDEST SWAP1 POP PUSH1 0x20 DUP2 ADD SWAP1 POP SWAP2 SWAP1 POP JUMP JUMPDEST DUP3 DUP2 DUP4 CALLDATACOPY PUSH0 DUP4 DUP4 ADD MSTORE POP POP POP JUMP JUMPDEST PUSH0 PUSH2 0xD86 PUSH2 0xD81 DUP5 PUSH2 0xD36 JUMP JUMPDEST PUSH2 0xD1C JUMP JUMPDEST SWAP1 POP DUP3 DUP2 MSTORE PUSH1 0x20 DUP2 ADD DUP5 DUP5 DUP5 ADD GT ISZERO PUSH2 0xDA2 JUMPI PUSH2 0xDA1 PUSH2 0xCAA JUMP JUMPDEST JUMPDEST PUSH2 0xDAD DUP5 DUP3 DUP6 PUSH2 0xD66 JUMP JUMPDEST POP SWAP4 SWAP3 POP POP POP JUMP JUMPDEST PUSH0 DUP3 PUSH1 0x1F DUP4 ADD SLT PUSH2 0xDC9 JUMPI PUSH2 0xDC8 PUSH2 0xCA6 JUMP JUMPDEST JUMPDEST DUP2 CALLDATALOAD PUSH2 0xDD9 DUP5 DUP3 PUSH1 0x20 DUP7 ADD PUSH2 0xD74 JUMP JUMPDEST SWAP2 POP POP SWAP3 SWAP2 POP POP JUMP JUMPDEST PUSH0 PUSH0 PUSH1 0x40 DUP4 DUP6 SUB SLT ISZERO PUSH2 0xDF8 JUMPI PUSH2 0xDF7 PUSH2 0xC9E JUMP JUMPDEST JUMPDEST PUSH0 DUP4 ADD CALLDATALOAD PUSH8 0xFFFFFFFFFFFFFFFF DUP2 GT ISZERO PUSH2 0xE15 JUMPI PUSH2 0xE14 PUSH2 0xCA2 JUMP JUMPDEST JUMPDEST PUSH2 0xE21 DUP6 DUP3 DUP7 ADD PUSH2 0xDB5 JUMP JUMPDEST SWAP3 POP POP PUSH1 0x20 DUP4 ADD CALLDATALOAD PUSH8 0xFFFFFFFFFFFFFFFF DUP2 GT ISZERO PUSH2 0xE42 JUMPI PUSH2 0xE41 PUSH2 0xCA2 JUMP JUMPDEST JUMPDEST PUSH2 0xE4E DUP6 DUP3 DUP7 ADD PUSH2 0xDB5 JUMP JUMPDEST SWAP2 POP POP SWAP3 POP SWAP3 SWAP1 POP JUMP JUMPDEST PUSH0 DUP2 SWAP1 POP SWAP2 SWAP1 POP JUMP JUMPDEST PUSH2 0xE6A DUP2 PUSH2 0xE58 JUMP JUMPDEST DUP2 EQ PUSH2 0xE74 JUMPI PUSH0 PUSH0 REVERT JUMPDEST POP JUMP JUMPDEST PUSH0 DUP2 CALLDATALOAD SWAP1 POP PUSH2 0xE85 DUP2 PUSH2 0xE61 JUMP JUMPDEST SWAP3 SWAP2 POP POP JUMP JUMPDEST PUSH0 PUSH1 0x20 DUP3 DUP5 SUB SLT ISZERO PUSH2 0xEA0 JUMPI PUSH2 0xE9F PUSH2 0xC9E JUMP JUMPDEST JUMPDEST PUSH0 PUSH2 0xEAD DUP5 DUP3 DUP6 ADD PUSH2 0xE77 JUMP JUMPDEST SWAP2 POP POP SWAP3 SWAP2 POP POP JUMP JUMPDEST PUSH0 DUP2 ISZERO ISZERO SWAP1 POP SWAP2 SWAP1 POP JUMP JUMPDEST PUSH2 0xECA DUP2 PUSH2 0xEB6 JUMP JUMPDEST DUP3 MSTORE POP POP JUMP JUMPDEST PUSH0 PUSH1 0x20 DUP3 ADD SWAP1 POP PUSH2 0xEE3 PUSH0 DUP4 ADD DUP5 PUSH2 0xEC1 JUMP JUMPDEST SWAP3 SWAP2 POP POP JUMP JUMPDEST PUSH0 PUSH20 0xFFFFFFFFFFFFFFFFFFFFFFFFFFFFFFFFFFFFFFFF DUP3 AND SWAP1 POP SWAP2 SWAP1 POP JUMP JUMPDEST PUSH0 PUSH2 0xF12 DUP3 PUSH2 0xEE9 JUMP JUMPDEST SWAP1 POP SWAP2 SWAP1 POP JUMP JUMPDEST PUSH2 0xF22 DUP2 PUSH2 0xF08 JUMP JUMPDEST DUP2 EQ PUSH2 0xF2C JUMPI PUSH0 PUSH0 REVERT JUMPDEST POP JUMP JUMPDEST PUSH0 DUP2 CALLDATALOAD SWAP1 POP PUSH2 0xF3D DUP2 PUSH2 0xF19 JUMP JUMPDEST SWAP3 SWAP2 POP POP JUMP JUMPDEST PUSH0 PUSH1 0x20 DUP3 DUP5 SUB SLT ISZERO PUSH2 0xF58 JUMPI PUSH2 0xF57 PUSH2 0xC9E JUMP JUMPDEST JUMPDEST PUSH0 PUSH2 0xF65 DUP5 DUP3 DUP6 ADD PUSH2 0xF2F JUMP JUMPDEST SWAP2 POP POP SWAP3 SWAP2 POP POP JUMP JUMPDEST PUSH0 DUP2 MLOAD SWAP1 POP SWAP2 SWAP1 POP JUMP JUMPDEST PUSH0 DUP3 DUP3 MSTORE PUSH1 0x20 DUP3 ADD SWAP1 POP SWAP3 SWAP2 POP POP JUMP JUMPDEST DUP3 DUP2 DUP4 MCOPY PUSH0 DUP4 DUP4 ADD MSTORE POP POP POP JUMP JUMPDEST PUSH0 PUSH2 0xFA0 DUP3 PUSH2 0xF6E JUMP JUMPDEST PUSH2 0xFAA DUP2 DUP6 PUSH2 0xF78 JUMP JUMPDEST SWAP4 POP PUSH2 0xFBA DUP2 DUP6 PUSH1 0x20 DUP7 ADD PUSH2 0xF88 JUMP JUMPDEST PUSH2 0xFC3 DUP2 PUSH2 0xCAE JUMP JUMPDEST DUP5 ADD SWAP2 POP POP SWAP3 SWAP2 POP POP JUMP JUMPDEST PUSH2 0xFD7 DUP2 PUSH2 0xF08 JUMP JUMPDEST DUP3 MSTORE POP POP JUMP JUMPDEST PUSH0 PUSH1 0x80 DUP3 ADD SWAP1 POP DUP2 DUP2 SUB PUSH0 DUP4 ADD MSTORE PUSH2 0xFF5 DUP2 DUP8 PUSH2 0xF96 JUMP JUMPDEST SWAP1 POP DUP2 DUP2 SUB PUSH1 0x20 DUP4 ADD MSTORE PUSH2 0x1009 DUP2 DUP7 PUSH2 0xF96 JUMP JUMPDEST SWAP1 POP PUSH2 0x1018 PUSH1 0x40 DUP4 ADD DUP6 PUSH2 0xFCE JUMP JUMPDEST PUSH2 0x1025 PUSH1 0x60 DUP4 ADD DUP5 PUSH2 0xEC1 JUMP JUMPDEST SWAP6 SWAP5 POP POP POP POP POP JUMP JUMPDEST PUSH0 DUP2 MLOAD SWAP1 POP SWAP2 SWAP1 POP JUMP JUMPDEST PUSH0 DUP3 DUP3 MSTORE PUSH1 0x20 DUP3 ADD SWAP1 POP SWAP3 SWAP2 POP POP JUMP JUMPDEST PUSH0 DUP2 SWAP1 POP PUSH1 0x20 DUP3 ADD SWAP1 POP SWAP2 SWAP1 POP JUMP JUMPDEST PUSH2 0x1060 DUP2 PUSH2 0xF08 JUMP JUMPDEST DUP3 MSTORE POP POP JUMP JUMPDEST PUSH0 PUSH2 0x1071 DUP4 DUP4 PUSH2 0x1057 JUMP JUMPDEST PUSH1 0x20 DUP4 ADD SWAP1 POP SWAP3 SWAP2 POP POP JUMP JUMPDEST PUSH0 PUSH1 0x20 DUP3 ADD SWAP1 POP SWAP2 SWAP1 POP JUMP JUMPDEST PUSH0 PUSH2 0x1093 DUP3 PUSH2 0x102E JUMP JUMPDEST PUSH2 0x109D DUP2 DUP6 PUSH2 0x1038 JUMP JUMPDEST SWAP4 POP PUSH2 0x10A8 DUP4 PUSH2 0x1048 JUMP JUMPDEST DUP1 PUSH0 JUMPDEST DUP4 DUP2 LT ISZERO PUSH2 0x10D8 JUMPI DUP2 MLOAD PUSH2 0x10BF DUP9 DUP3 PUSH2 0x1066 JUMP JUMPDEST SWAP8 POP PUSH2 0x10CA DUP4 PUSH2 0x107D JUMP JUMPDEST SWAP3 POP POP PUSH1 0x1 DUP2 ADD SWAP1 POP PUSH2 0x10AB JUMP JUMPDEST POP DUP6 SWAP4 POP POP POP POP SWAP3 SWAP2 POP POP JUMP JUMPDEST PUSH0 PUSH1 0x20 DUP3 ADD SWAP1 POP DUP2 DUP2 SUB PUSH0 DUP4 ADD MSTORE PUSH2 0x10FD DUP2 DUP5 PUSH2 0x1089 JUMP JUMPDEST SWAP1 POP SWAP3 SWAP2 POP POP JUMP JUMPDEST PUSH2 0x110E DUP2 PUSH2 0xE58 JUMP JUMPDEST DUP3 MSTORE POP POP JUMP JUMPDEST PUSH0 PUSH1 0x20 DUP3 ADD SWAP1 POP PUSH2 0x1127 PUSH0 DUP4 ADD DUP5 PUSH2 0x1105 JUMP JUMPDEST SWAP3 SWAP2 POP POP JUMP JUMPDEST PUSH0 PUSH1 0x80 DUP3 ADD SWAP1 POP PUSH2 0x1140 PUSH0 DUP4 ADD DUP8 PUSH2 0xFCE JUMP JUMPDEST DUP2 DUP2 SUB PUSH1 0x20 DUP4 ADD MSTORE PUSH2 0x1152 DUP2 DUP7 PUSH2 0xF96 JUMP JUMPDEST SWAP1 POP DUP2 DUP2 SUB PUSH1 0x40 DUP4 ADD MSTORE PUSH2 0x1166 DUP2 DUP6 PUSH2 0xF96 JUMP JUMPDEST SWAP1 POP PUSH2 0x1175 PUSH1 0x60 DUP4 ADD DUP5 PUSH2 0x1105 JUMP JUMPDEST SWAP6 SWAP5 POP POP POP POP POP JUMP JUMPDEST PUSH32 0x416C726561647920726567697374657265642E00000000000000000000000000 PUSH0 DUP3 ADD MSTORE POP JUMP JUMPDEST PUSH0 PUSH2 0x11B2 PUSH1 0x13 DUP4 PUSH2 0xF78 JUMP JUMPDEST SWAP2 POP PUSH2 0x11BD DUP3 PUSH2 0x117E JUMP JUMPDEST PUSH1 0x20 DUP3 ADD SWAP1 POP SWAP2 SWAP1 POP JUMP JUMPDEST PUSH0 PUSH1 0x20 DUP3 ADD SWAP1 POP DUP2 DUP2 SUB PUSH0 DUP4 ADD MSTORE PUSH2 0x11DF DUP2 PUSH2 0x11A6 JUMP JUMPDEST SWAP1 POP SWAP2 SWAP1 POP JUMP JUMPDEST PUSH32 0x4E487B7100000000000000000000000000000000000000000000000000000000 PUSH0 MSTORE PUSH1 0x22 PUSH1 0x4 MSTORE PUSH1 0x24 PUSH0 REVERT JUMPDEST PUSH0 PUSH1 0x2 DUP3 DIV SWAP1 POP PUSH1 0x1 DUP3 AND DUP1 PUSH2 0x122A JUMPI PUSH1 0x7F DUP3 AND SWAP2 POP JUMPDEST PUSH1 0x20 DUP3 LT DUP2 SUB PUSH2 0x123D JUMPI PUSH2 0x123C PUSH2 0x11E6 JUMP JUMPDEST JUMPDEST POP SWAP2 SWAP1 POP JUMP JUMPDEST PUSH0 DUP2 SWAP1 POP DUP2 PUSH0 MSTORE PUSH1 0x20 PUSH0 KECCAK256 SWAP1 POP SWAP2 SWAP1 POP JUMP JUMPDEST PUSH0 PUSH1 0x20 PUSH1 0x1F DUP4 ADD DIV SWAP1 POP SWAP2 SWAP1 POP JUMP JUMPDEST PUSH0 DUP3 DUP3 SHL SWAP1 POP SWAP3 SWAP2 POP POP JUMP JUMPDEST PUSH0 PUSH1 0x8 DUP4 MUL PUSH2 0x129F PUSH32 0xFFFFFFFFFFFFFFFFFFFFFFFFFFFFFFFFFFFFFFFFFFFFFFFFFFFFFFFFFFFFFFFF DUP3 PUSH2 0x1264 JUMP JUMPDEST PUSH2 0x12A9 DUP7 DUP4 PUSH2 0x1264 JUMP JUMPDEST SWAP6 POP DUP1 NOT DUP5 AND SWAP4 POP DUP1 DUP7 AND DUP5 OR SWAP3 POP POP POP SWAP4 SWAP3 POP POP POP JUMP JUMPDEST PUSH0 DUP2 SWAP1 POP SWAP2 SWAP1 POP JUMP JUMPDEST PUSH0 PUSH2 0x12E4 PUSH2 0x12DF PUSH2 0x12DA DUP5 PUSH2 0xE58 JUMP JUMPDEST PUSH2 0x12C1 JUMP JUMPDEST PUSH2 0xE58 JUMP JUMPDEST SWAP1 POP SWAP2 SWAP1 POP JUMP JUMPDEST PUSH0 DUP2 SWAP1 POP SWAP2 SWAP1 POP JUMP JUMPDEST PUSH2 0x12FD DUP4 PUSH2 0x12CA JUMP JUMPDEST PUSH2 0x1311 PUSH2 0x1309 DUP3 PUSH2 0x12EB JUMP JUMPDEST DUP5 DUP5 SLOAD PUSH2 0x1270 JUMP JUMPDEST DUP3 SSTORE POP POP POP POP JUMP JUMPDEST PUSH0 PUSH0 SWAP1 POP SWAP1 JUMP JUMPDEST PUSH2 0x1328 PUSH2 0x1319 JUMP JUMPDEST PUSH2 0x1333 DUP2 DUP5 DUP5 PUSH2 0x12F4 JUMP JUMPDEST POP POP POP JUMP JUMPDEST JUMPDEST DUP2 DUP2 LT ISZERO PUSH2 0x1356 JUMPI PUSH2 0x134B PUSH0 DUP3 PUSH2 0x1320 JUMP JUMPDEST PUSH1 0x1 DUP2 ADD SWAP1 POP PUSH2 0x1339 JUMP JUMPDEST POP POP JUMP JUMPDEST PUSH1 0x1F DUP3 GT ISZERO PUSH2 0x139B JUMPI PUSH2 0x136C DUP2 PUSH2 0x1243 JUMP JUMPDEST PUSH2 0x1375 DUP5 PUSH2 0x1255 JUMP JUMPDEST DUP2 ADD PUSH1 0x20 DUP6 LT ISZERO PUSH2 0x1384 JUMPI DUP2 SWAP1 POP JUMPDEST PUSH2 0x1398 PUSH2 0x1390 DUP6 PUSH2 0x1255 JUMP JUMPDEST DUP4 ADD DUP3 PUSH2 0x1338 JUMP JUMPDEST POP POP JUMPDEST POP POP POP JUMP JUMPDEST PUSH0 DUP3 DUP3 SHR SWAP1 POP SWAP3 SWAP2 POP POP JUMP JUMPDEST PUSH0 PUSH2 0x13BB PUSH0 NOT DUP5 PUSH1 0x8 MUL PUSH2 0x13A0 JUMP JUMPDEST NOT DUP1 DUP4 AND SWAP2 POP POP SWAP3 SWAP2 POP POP JUMP JUMPDEST PUSH0 PUSH2 0x13D3 DUP4 DUP4 PUSH2 0x13AC JUMP JUMPDEST SWAP2 POP DUP3 PUSH1 0x2 MUL DUP3 OR SWAP1 POP SWAP3 SWAP2 POP POP JUMP JUMPDEST PUSH2 0x13EC DUP3 PUSH2 0xF6E JUMP JUMPDEST PUSH8 0xFFFFFFFFFFFFFFFF DUP2 GT ISZERO PUSH2 0x1405 JUMPI PUSH2 0x1404 PUSH2 0xCBE JUMP JUMPDEST JUMPDEST PUSH2 0x140F DUP3 SLOAD PUSH2 0x1213 JUMP JUMPDEST PUSH2 0x141A DUP3 DUP3 DUP6 PUSH2 0x135A JUMP JUMPDEST PUSH0 PUSH1 0x20 SWAP1 POP PUSH1 0x1F DUP4 GT PUSH1 0x1 DUP2 EQ PUSH2 0x144B JUMPI PUSH0 DUP5 ISZERO PUSH2 0x1439 JUMPI DUP3 DUP8 ADD MLOAD SWAP1 POP JUMPDEST PUSH2 0x1443 DUP6 DUP3 PUSH2 0x13C8 JUMP JUMPDEST DUP7 SSTORE POP PUSH2 0x14AA JUMP JUMPDEST PUSH1 0x1F NOT DUP5 AND PUSH2 0x1459 DUP7 PUSH2 0x1243 JUMP JUMPDEST PUSH0 JUMPDEST DUP3 DUP2 LT ISZERO PUSH2 0x1480 JUMPI DUP5 DUP10 ADD MLOAD DUP3 SSTORE PUSH1 0x1 DUP3 ADD SWAP2 POP PUSH1 0x20 DUP6 ADD SWAP5 POP PUSH1 0x20 DUP2 ADD SWAP1 POP PUSH2 0x145B JUMP JUMPDEST DUP7 DUP4 LT ISZERO PUSH2 0x149D JUMPI DUP5 DUP10 ADD MLOAD PUSH2 0x1499 PUSH1 0x1F DUP10 AND DUP3 PUSH2 0x13AC JUMP JUMPDEST DUP4 SSTORE POP JUMPDEST PUSH1 0x1 PUSH1 0x2 DUP9 MUL ADD DUP9 SSTORE POP POP POP JUMPDEST POP POP POP POP POP POP JUMP JUMPDEST PUSH0 PUSH1 0x40 DUP3 ADD SWAP1 POP DUP2 DUP2 SUB PUSH0 DUP4 ADD MSTORE PUSH2 0x14CA DUP2 DUP6 PUSH2 0xF96 JUMP JUMPDEST SWAP1 POP DUP2 DUP2 SUB PUSH1 0x20 DUP4 ADD MSTORE PUSH2 0x14DE DUP2 DUP5 PUSH2 0xF96 JUMP JUMPDEST SWAP1 POP SWAP4 SWAP3 POP POP POP JUMP JUMPDEST PUSH32 0x4E6F742061207265676973746572656420656E746974792E0000000000000000 PUSH0 DUP3 ADD MSTORE POP JUMP JUMPDEST PUSH0 PUSH2 0x151B PUSH1 0x18 DUP4 PUSH2 0xF78 JUMP JUMPDEST SWAP2 POP PUSH2 0x1526 DUP3 PUSH2 0x14E7 JUMP JUMPDEST PUSH1 0x20 DUP3 ADD SWAP1 POP SWAP2 SWAP1 POP JUMP JUMPDEST PUSH0 PUSH1 0x20 DUP3 ADD SWAP1 POP DUP2 DUP2 SUB PUSH0 DUP4 ADD MSTORE PUSH2 0x1548 DUP2 PUSH2 0x150F JUMP JUMPDEST SWAP1 POP SWAP2 SWAP1 POP JUMP JUMPDEST PUSH32 0x4E487B7100000000000000000000000000000000000000000000000000000000 PUSH0 MSTORE PUSH1 0x11 PUSH1 0x4 MSTORE PUSH1 0x24 PUSH0 REVERT JUMPDEST PUSH0 PUSH2 0x1586 DUP3 PUSH2 0xE58 JUMP JUMPDEST SWAP2 POP PUSH2 0x1591 DUP4 PUSH2 0xE58 JUMP JUMPDEST SWAP3 POP DUP3 DUP3 SUB SWAP1 POP DUP2 DUP2 GT ISZERO PUSH2 0x15A9 JUMPI PUSH2 0x15A8 PUSH2 0x154F JUMP JUMPDEST JUMPDEST SWAP3 SWAP2 POP POP JUMP JUMPDEST PUSH0 PUSH1 0x40 DUP3 ADD SWAP1 POP PUSH2 0x15C2 PUSH0 DUP4 ADD DUP6 PUSH2 0x1105 JUMP JUMPDEST DUP2 DUP2 SUB PUSH1 0x20 DUP4 ADD MSTORE PUSH2 0x15D4 DUP2 DUP5 PUSH2 0xF96 JUMP JUMPDEST SWAP1 POP SWAP4 SWAP3 POP POP POP JUMP JUMPDEST PUSH32 0x496E646578206F7574206F662072616E67652E00000000000000000000000000 PUSH0 DUP3 ADD MSTORE POP JUMP JUMPDEST PUSH0 PUSH2 0x1611 PUSH1 0x13 DUP4 PUSH2 0xF78 JUMP JUMPDEST SWAP2 POP PUSH2 0x161C DUP3 PUSH2 0x15DD JUMP JUMPDEST PUSH1 0x20 DUP3 ADD SWAP1 POP SWAP2 SWAP1 POP JUMP JUMPDEST PUSH0 PUSH1 0x20 DUP3 ADD SWAP1 POP DUP2 DUP2 SUB PUSH0 DUP4 ADD MSTORE PUSH2 0x163E DUP2 PUSH2 0x1605 JUMP JUMPDEST SWAP1 POP SWAP2 SWAP1 POP JUMP JUMPDEST PUSH32 0x4E487B7100000000000000000000000000000000000000000000000000000000 PUSH0 MSTORE PUSH1 0x32 PUSH1 0x4 MSTORE PUSH1 0x24 PUSH0 REVERT INVALID LOG2 PUSH5 0x6970667358 0x22 SLT KECCAK256 0xFC 0xEA BALANCE 0x25 CHAINID PUSH31 0x23698CF1DB82EFD613602F3D58AB440BD0A87E718E725B06B51464736F6C63 NUMBER STOP ADDMOD 0x1E STOP CALLER "
		},
		"gasEstimates": {
			"creation": {
				"codeDepositCost": "1160000",
				"executionCost": "1205",
				"totalCost": "1161205"
			},
			"external": {
				"getAllEntities()": "infinite",
				"getEntity(address)": "infinite",
				"getTrafficDataCount()": "2462",
				"getTrafficFeedAt(uint256)": "infinite",
				"isRegistered(address)": "2992",
				"isTrafficDataValid(uint256)": "644",
				"registerEntity(string,string)": "infinite",
				"submitTrafficData(string,string)": "infinite",
				"trafficFeeds(uint256)": "infinite"
			}
		},
		"methodIdentifiers": {
			"getAllEntities()": "7e69dae0",
			"getEntity(address)": "75894e8c",
			"getTrafficDataCount()": "9b981fe3",
			"getTrafficFeedAt(uint256)": "bae2b458",
			"isRegistered(address)": "c3c5a547",
			"isTrafficDataValid(uint256)": "54998b47",
			"registerEntity(string,string)": "2ff19780",
			"submitTrafficData(string,string)": "54069bbb",
			"trafficFeeds(uint256)": "cb1f5b4d"
		}
	},
	"abi": [
		{
			"anonymous": false,
			"inputs": [
				{
					"indexed": true,
					"internalType": "address",
					"name": "entityAddress",
					"type": "address"
				},
				{
					"indexed": false,
					"internalType": "string",
					"name": "name",
					"type": "string"
				},
				{
					"indexed": false,
					"internalType": "string",
					"name": "entityType",
					"type": "string"
				}
			],
			"name": "EntityRegistered",
			"type": "event"
		},
		{
			"anonymous": false,
			"inputs": [
				{
					"indexed": true,
					"internalType": "address",
					"name": "reporter",
					"type": "address"
				},
				{
					"indexed": false,
					"internalType": "uint256",
					"name": "index",
					"type": "uint256"
				},
				{
					"indexed": false,
					"internalType": "string",
					"name": "dataType",
					"type": "string"
				}
			],
			"name": "TrafficDataSubmitted",
			"type": "event"
		},
		{
			"inputs": [],
			"name": "getAllEntities",
			"outputs": [
				{
					"internalType": "address[]",
					"name": "",
					"type": "address[]"
				}
			],
			"stateMutability": "view",
			"type": "function"
		},
		{
			"inputs": [
				{
					"internalType": "address",
					"name": "_user",
					"type": "address"
				}
			],
			"name": "getEntity",
			"outputs": [
				{
					"internalType": "string",
					"name": "",
					"type": "string"
				},
				{
					"internalType": "string",
					"name": "",
					"type": "string"
				},
				{
					"internalType": "address",
					"name": "",
					"type": "address"
				},
				{
					"internalType": "bool",
					"name": "",
					"type": "bool"
				}
			],
			"stateMutability": "view",
			"type": "function"
		},
		{
			"inputs": [],
			"name": "getTrafficDataCount",
			"outputs": [
				{
					"internalType": "uint256",
					"name": "",
					"type": "uint256"
				}
			],
			"stateMutability": "view",
			"type": "function"
		},
		{
			"inputs": [
				{
					"internalType": "uint256",
					"name": "idx",
					"type": "uint256"
				}
			],
			"name": "getTrafficFeedAt",
			"outputs": [
				{
					"internalType": "address",
					"name": "reporter",
					"type": "address"
				},
				{
					"internalType": "string",
					"name": "dataType",
					"type": "string"
				},
				{
					"internalType": "string",
					"name": "dataDetails",
					"type": "string"
				},
				{
					"internalType": "uint256",
					"name": "timestamp",
					"type": "uint256"
				}
			],
			"stateMutability": "view",
			"type": "function"
		},
		{
			"inputs": [
				{
					"internalType": "address",
					"name": "_user",
					"type": "address"
				}
			],
			"name": "isRegistered",
			"outputs": [
				{
					"internalType": "bool",
					"name": "",
					"type": "bool"
				}
			],
			"stateMutability": "view",
			"type": "function"
		},
		{
			"inputs": [
				{
					"internalType": "uint256",
					"name": "",
					"type": "uint256"
				}
			],
			"name": "isTrafficDataValid",
			"outputs": [
				{
					"internalType": "bool",
					"name": "",
					"type": "bool"
				}
			],
			"stateMutability": "pure",
			"type": "function"
		},
		{
			"inputs": [
				{
					"internalType": "string",
					"name": "_name",
					"type": "string"
				},
				{
					"internalType": "string",
					"name": "_entityType",
					"type": "string"
				}
			],
			"name": "registerEntity",
			"outputs": [],
			"stateMutability": "nonpayable",
			"type": "function"
		},
		{
			"inputs": [
				{
					"internalType": "string",
					"name": "_dataType",
					"type": "string"
				},
				{
					"internalType": "string",
					"name": "_dataDetails",
					"type": "string"
				}
			],
			"name": "submitTrafficData",
			"outputs": [],
			"stateMutability": "nonpayable",
			"type": "function"
		},
		{
			"inputs": [
				{
					"internalType": "uint256",
					"name": "",
					"type": "uint256"
				}
			],
			"name": "trafficFeeds",
			"outputs": [
				{
					"internalType": "address",
					"name": "reporter",
					"type": "address"
				},
				{
					"internalType": "string",
					"name": "dataType",
					"type": "string"
				},
				{
					"internalType": "string",
					"name": "dataDetails",
					"type": "string"
				},
				{
					"internalType": "uint256",
					"name": "timestamp",
					"type": "uint256"
				}
			],
			"stateMutability": "view",
			"type": "function"
		}
	]
}